{
  "_format": "hh-sol-artifact-1",
  "contractName": "Lease",
  "sourceName": "contracts/Lease.sol",
  "abi": [
    {
      "inputs": [
        {
          "internalType": "address",
          "name": "_trustIdContract",
          "type": "address"
        },
        {
          "internalType": "address",
          "name": "_platformIdContract",
          "type": "address"
        }
      ],
      "stateMutability": "nonpayable",
      "type": "constructor"
    },
    {
      "anonymous": false,
      "inputs": [
        {
          "indexed": false,
          "internalType": "uint256",
          "name": "leaseId",
          "type": "uint256"
        },
        {
          "indexed": false,
          "internalType": "bool",
          "name": "cancelledByOwner",
          "type": "bool"
        },
        {
          "indexed": false,
          "internalType": "bool",
          "name": "cancelledByTenant",
          "type": "bool"
        }
      ],
      "name": "CancellationRequested",
      "type": "event"
    },
    {
      "anonymous": false,
      "inputs": [
        {
          "indexed": false,
          "internalType": "uint256",
          "name": "leaseId",
          "type": "uint256"
        },
        {
          "indexed": false,
          "internalType": "uint256",
          "name": "tenantId",
          "type": "uint256"
        },
        {
          "indexed": false,
          "internalType": "uint256",
          "name": "ownerId",
          "type": "uint256"
        },
        {
          "indexed": false,
          "internalType": "uint8",
          "name": "totalNumberOfRents",
          "type": "uint8"
        },
        {
          "indexed": false,
          "internalType": "uint256",
          "name": "startDate",
          "type": "uint256"
        },
        {
          "indexed": false,
          "internalType": "uint256",
          "name": "rentPaymentInterval",
          "type": "uint256"
        },
        {
          "indexed": false,
          "internalType": "uint256",
          "name": "platformId",
          "type": "uint256"
        }
      ],
      "name": "LeaseCreated",
      "type": "event"
    },
    {
      "anonymous": false,
      "inputs": [
        {
          "indexed": false,
          "internalType": "uint256",
          "name": "leaseId",
          "type": "uint256"
        },
        {
          "indexed": false,
          "internalType": "string",
          "name": "metaData",
          "type": "string"
        }
      ],
      "name": "LeaseMetaDataUpdated",
      "type": "event"
    },
    {
      "anonymous": false,
      "inputs": [
        {
          "indexed": false,
          "internalType": "uint256",
          "name": "leaseId",
          "type": "uint256"
        },
        {
          "indexed": false,
          "internalType": "uint256",
          "name": "rentAmount",
          "type": "uint256"
        },
        {
          "indexed": false,
          "internalType": "address",
          "name": "paymentToken",
          "type": "address"
        },
        {
          "indexed": false,
          "internalType": "string",
          "name": "currencyPair",
          "type": "string"
        }
      ],
      "name": "LeasePaymentDataUpdated",
      "type": "event"
    },
    {
      "anonymous": false,
      "inputs": [
        {
          "indexed": false,
          "internalType": "uint256",
          "name": "leaseId",
          "type": "uint256"
        },
        {
          "indexed": false,
          "internalType": "string",
          "name": "reviewUri",
          "type": "string"
        }
      ],
      "name": "LeaseReviewedByOwner",
      "type": "event"
    },
    {
      "anonymous": false,
      "inputs": [
        {
          "indexed": false,
          "internalType": "uint256",
          "name": "leaseId",
          "type": "uint256"
        },
        {
          "indexed": false,
          "internalType": "string",
          "name": "reviewUri",
          "type": "string"
        }
      ],
      "name": "LeaseReviewedByTenant",
      "type": "event"
    },
    {
      "anonymous": false,
      "inputs": [
        {
          "indexed": false,
          "internalType": "uint256",
          "name": "leaseId",
          "type": "uint256"
        },
        {
          "indexed": false,
          "internalType": "uint256",
          "name": "tenantId",
          "type": "uint256"
        },
        {
          "indexed": false,
          "internalType": "uint256",
          "name": "ownerId",
          "type": "uint256"
        },
        {
          "indexed": false,
          "internalType": "uint8",
          "name": "totalNumberOfRents",
          "type": "uint8"
        },
        {
          "indexed": false,
          "internalType": "uint256",
          "name": "startDate",
          "type": "uint256"
        },
        {
          "indexed": false,
          "internalType": "uint256",
          "name": "rentPaymentInterval",
          "type": "uint256"
        },
        {
          "indexed": false,
          "internalType": "string",
          "name": "metadata",
          "type": "string"
        }
      ],
      "name": "LeaseUpdated",
      "type": "event"
    },
    {
      "anonymous": false,
      "inputs": [
        {
          "indexed": false,
          "internalType": "uint256",
          "name": "openProposalId",
          "type": "uint256"
        },
        {
          "indexed": false,
          "internalType": "uint256",
          "name": "platformId",
          "type": "uint256"
        },
        {
          "indexed": false,
          "internalType": "string",
          "name": "cid",
          "type": "string"
        }
      ],
      "name": "OpenProposalSubmitted",
      "type": "event"
    },
    {
      "anonymous": false,
      "inputs": [
        {
          "indexed": false,
          "internalType": "uint256",
          "name": "openProposalId",
          "type": "uint256"
        },
        {
          "indexed": false,
          "internalType": "string",
          "name": "cid",
          "type": "string"
        }
      ],
      "name": "OpenProposalUpdated",
      "type": "event"
    },
    {
      "anonymous": false,
      "inputs": [
        {
          "indexed": false,
          "internalType": "uint256",
          "name": "leaseId",
          "type": "uint256"
        },
        {
          "indexed": false,
          "internalType": "uint256",
          "name": "tenantId",
          "type": "uint256"
        },
        {
          "indexed": false,
          "internalType": "uint8",
          "name": "totalNumberOfRents",
          "type": "uint8"
        },
        {
          "indexed": false,
          "internalType": "uint256",
          "name": "startDate",
          "type": "uint256"
        },
        {
          "indexed": false,
          "internalType": "uint256",
          "name": "platformId",
          "type": "uint256"
        },
        {
          "indexed": false,
          "internalType": "string",
          "name": "metaData",
          "type": "string"
        }
      ],
      "name": "ProposalSubmitted",
      "type": "event"
    },
    {
      "anonymous": false,
      "inputs": [
        {
          "indexed": false,
          "internalType": "uint256",
          "name": "leaseId",
          "type": "uint256"
        },
        {
          "indexed": false,
          "internalType": "uint256",
          "name": "tenantId",
          "type": "uint256"
        },
        {
          "indexed": false,
          "internalType": "uint8",
          "name": "totalNumberOfRents",
          "type": "uint8"
        },
        {
          "indexed": false,
          "internalType": "uint256",
          "name": "startDate",
          "type": "uint256"
        },
        {
          "indexed": false,
          "internalType": "string",
          "name": "cid",
          "type": "string"
        }
      ],
      "name": "ProposalUpdated",
      "type": "event"
    },
    {
      "anonymous": false,
      "inputs": [
        {
          "indexed": false,
          "internalType": "uint256",
          "name": "tenantId",
          "type": "uint256"
        },
        {
          "indexed": false,
          "internalType": "uint8",
          "name": "totalNumberOfRents",
          "type": "uint8"
        },
        {
          "indexed": false,
          "internalType": "uint256",
          "name": "startDate",
          "type": "uint256"
        }
      ],
      "name": "ProposalValidated",
      "type": "event"
    },
    {
      "anonymous": false,
      "inputs": [
        {
          "indexed": false,
          "internalType": "uint256",
          "name": "leaseId",
          "type": "uint256"
        },
        {
          "indexed": false,
          "internalType": "uint256",
          "name": "rentId",
          "type": "uint256"
        },
        {
          "indexed": false,
          "internalType": "bool",
          "name": "withoutIssues",
          "type": "bool"
        }
      ],
      "name": "RentPaymentIssueStatusUpdated",
      "type": "event"
    },
    {
      "anonymous": false,
      "inputs": [
        {
          "indexed": true,
          "internalType": "bytes32",
          "name": "role",
          "type": "bytes32"
        },
        {
          "indexed": true,
          "internalType": "bytes32",
          "name": "previousAdminRole",
          "type": "bytes32"
        },
        {
          "indexed": true,
          "internalType": "bytes32",
          "name": "newAdminRole",
          "type": "bytes32"
        }
      ],
      "name": "RoleAdminChanged",
      "type": "event"
    },
    {
      "anonymous": false,
      "inputs": [
        {
          "indexed": true,
          "internalType": "bytes32",
          "name": "role",
          "type": "bytes32"
        },
        {
          "indexed": true,
          "internalType": "address",
          "name": "account",
          "type": "address"
        },
        {
          "indexed": true,
          "internalType": "address",
          "name": "sender",
          "type": "address"
        }
      ],
      "name": "RoleGranted",
      "type": "event"
    },
    {
      "anonymous": false,
      "inputs": [
        {
          "indexed": true,
          "internalType": "bytes32",
          "name": "role",
          "type": "bytes32"
        },
        {
          "indexed": true,
          "internalType": "address",
          "name": "account",
          "type": "address"
        },
        {
          "indexed": true,
          "internalType": "address",
          "name": "sender",
          "type": "address"
        }
      ],
      "name": "RoleRevoked",
      "type": "event"
    },
    {
      "anonymous": false,
      "inputs": [
        {
          "indexed": false,
          "internalType": "uint256",
          "name": "leaseId",
          "type": "uint256"
        },
        {
          "indexed": false,
          "internalType": "enum Lease.LeaseStatus",
          "name": "status",
          "type": "uint8"
        }
      ],
      "name": "UpdateLeaseStatus",
      "type": "event"
    },
    {
      "anonymous": false,
      "inputs": [
        {
          "indexed": false,
          "internalType": "uint256",
          "name": "leaseId",
          "type": "uint256"
        },
        {
          "indexed": false,
          "internalType": "uint256",
          "name": "rentId",
          "type": "uint256"
        },
        {
          "indexed": false,
          "internalType": "enum Lease.PaymentStatus",
          "name": "status",
          "type": "uint8"
        }
      ],
      "name": "UpdateRentStatus",
      "type": "event"
    },
    {
      "anonymous": false,
      "inputs": [
        {
          "indexed": false,
          "internalType": "uint256",
          "name": "leaseId",
          "type": "uint256"
        }
      ],
      "name": "ValidateLease",
      "type": "event"
    },
    {
      "inputs": [],
      "name": "DEFAULT_ADMIN_ROLE",
      "outputs": [
        {
          "internalType": "bytes32",
          "name": "",
          "type": "bytes32"
        }
      ],
      "stateMutability": "view",
      "type": "function"
    },
    {
      "inputs": [],
      "name": "PAYMENT_MANAGER_ROLE",
      "outputs": [
        {
          "internalType": "bytes32",
          "name": "",
          "type": "bytes32"
        }
      ],
      "stateMutability": "view",
      "type": "function"
    },
    {
      "inputs": [
        {
          "internalType": "uint256",
          "name": "_profileId",
          "type": "uint256"
        },
        {
          "internalType": "uint256",
          "name": "_leaseId",
          "type": "uint256"
        }
      ],
      "name": "cancelLease",
      "outputs": [],
      "stateMutability": "nonpayable",
      "type": "function"
    },
    {
      "inputs": [
        {
          "internalType": "uint256",
          "name": "_ownerId",
          "type": "uint256"
        },
        {
          "internalType": "uint256",
          "name": "_tenantId",
          "type": "uint256"
        },
        {
          "internalType": "uint256",
          "name": "_rentAmount",
          "type": "uint256"
        },
        {
          "internalType": "uint8",
          "name": "_totalNumberOfRents",
          "type": "uint8"
        },
        {
          "internalType": "address",
          "name": "_paymentToken",
          "type": "address"
        },
        {
          "internalType": "uint256",
          "name": "_rentPaymentInterval",
          "type": "uint256"
        },
        {
          "internalType": "string",
          "name": "_currencyPair",
          "type": "string"
        },
        {
          "internalType": "uint256",
          "name": "_startDate",
          "type": "uint256"
        },
        {
          "internalType": "uint256",
          "name": "_platformId",
          "type": "uint256"
        }
      ],
      "name": "createLease",
      "outputs": [
        {
          "internalType": "uint256",
          "name": "leaseId",
          "type": "uint256"
        }
      ],
      "stateMutability": "nonpayable",
      "type": "function"
    },
    {
      "inputs": [
        {
          "internalType": "uint256",
          "name": "_profileId",
          "type": "uint256"
        },
        {
          "internalType": "uint256",
          "name": "_rentAmount",
          "type": "uint256"
        },
        {
          "internalType": "address",
          "name": "_paymentToken",
          "type": "address"
        },
        {
          "internalType": "uint256",
          "name": "_rentPaymentInterval",
          "type": "uint256"
        },
        {
          "internalType": "string",
          "name": "_currencyPair",
          "type": "string"
        },
        {
          "internalType": "uint256",
          "name": "_startDate",
          "type": "uint256"
        },
        {
          "internalType": "uint256",
          "name": "_platformId",
          "type": "uint256"
        }
      ],
      "name": "createOpenLease",
      "outputs": [
        {
          "internalType": "uint256",
          "name": "",
          "type": "uint256"
        }
      ],
      "stateMutability": "nonpayable",
      "type": "function"
    },
    {
      "inputs": [
        {
          "internalType": "uint256",
          "name": "_profileId",
          "type": "uint256"
        },
        {
          "internalType": "uint256",
          "name": "_platformId",
          "type": "uint256"
        },
        {
          "internalType": "string",
          "name": "_cid",
          "type": "string"
        }
      ],
      "name": "createOpenProposal",
      "outputs": [],
      "stateMutability": "nonpayable",
      "type": "function"
    },
    {
      "inputs": [
        {
          "internalType": "uint256",
          "name": "_profileId",
          "type": "uint256"
        },
        {
          "internalType": "uint256",
          "name": "_leaseId",
          "type": "uint256"
        }
      ],
      "name": "declineLease",
      "outputs": [],
      "stateMutability": "nonpayable",
      "type": "function"
    },
    {
      "inputs": [
        {
          "internalType": "uint256",
          "name": "_leaseId",
          "type": "uint256"
        }
      ],
      "name": "getLease",
      "outputs": [
        {
          "components": [
            {
              "internalType": "uint256",
              "name": "ownerId",
              "type": "uint256"
            },
            {
              "internalType": "uint256",
              "name": "tenantId",
              "type": "uint256"
            },
            {
              "internalType": "uint8",
              "name": "totalNumberOfRents",
              "type": "uint8"
            },
            {
              "internalType": "uint256",
              "name": "rentPaymentInterval",
              "type": "uint256"
            },
            {
              "internalType": "uint256",
              "name": "startDate",
              "type": "uint256"
            },
            {
              "internalType": "string",
              "name": "metaData",
              "type": "string"
            },
            {
              "components": [
                {
                  "internalType": "uint256",
                  "name": "rentAmount",
                  "type": "uint256"
                },
                {
                  "internalType": "address",
                  "name": "paymentToken",
                  "type": "address"
                },
                {
                  "internalType": "string",
                  "name": "currencyPair",
                  "type": "string"
                }
              ],
              "internalType": "struct Lease.PaymentData",
              "name": "paymentData",
              "type": "tuple"
            },
            {
              "components": [
                {
                  "internalType": "bool",
                  "name": "ownerReviewed",
                  "type": "bool"
                },
                {
                  "internalType": "bool",
                  "name": "tenantReviewed",
                  "type": "bool"
                },
                {
                  "internalType": "string",
                  "name": "ownerReviewUri",
                  "type": "string"
                },
                {
                  "internalType": "string",
                  "name": "tenantReviewUri",
                  "type": "string"
                }
              ],
              "internalType": "struct Lease.ReviewStatus",
              "name": "reviewStatus",
              "type": "tuple"
            },
            {
              "components": [
                {
                  "internalType": "bool",
                  "name": "cancelledByOwner",
                  "type": "bool"
                },
                {
                  "internalType": "bool",
                  "name": "cancelledByTenant",
                  "type": "bool"
                }
              ],
              "internalType": "struct Lease.Cancellation",
              "name": "cancellation",
              "type": "tuple"
            },
            {
              "internalType": "enum Lease.LeaseStatus",
              "name": "status",
              "type": "uint8"
            },
            {
              "components": [
                {
                  "internalType": "uint256",
                  "name": "validationDate",
                  "type": "uint256"
                },
                {
                  "internalType": "bool",
                  "name": "withoutIssues",
                  "type": "bool"
                },
                {
                  "internalType": "int256",
                  "name": "exchangeRate",
                  "type": "int256"
                },
                {
                  "internalType": "uint256",
                  "name": "exchangeRateTimestamp",
                  "type": "uint256"
                },
                {
                  "internalType": "enum Lease.PaymentStatus",
                  "name": "paymentStatus",
                  "type": "uint8"
                }
              ],
              "internalType": "struct Lease.TransactionPayment[]",
              "name": "rentPayments",
              "type": "tuple[]"
            },
            {
              "internalType": "uint256",
              "name": "platformId",
              "type": "uint256"
            },
            {
              "internalType": "uint256",
              "name": "proposalId",
              "type": "uint256"
            }
          ],
          "internalType": "struct Lease.Lease",
          "name": "lease",
          "type": "tuple"
        }
      ],
      "stateMutability": "view",
      "type": "function"
    },
    {
      "inputs": [
        {
          "internalType": "uint256",
          "name": "_leaseId",
          "type": "uint256"
        }
      ],
      "name": "getPayments",
      "outputs": [
        {
          "components": [
            {
              "internalType": "uint256",
              "name": "validationDate",
              "type": "uint256"
            },
            {
              "internalType": "bool",
              "name": "withoutIssues",
              "type": "bool"
            },
            {
              "internalType": "int256",
              "name": "exchangeRate",
              "type": "int256"
            },
            {
              "internalType": "uint256",
              "name": "exchangeRateTimestamp",
              "type": "uint256"
            },
            {
              "internalType": "enum Lease.PaymentStatus",
              "name": "paymentStatus",
              "type": "uint8"
            }
          ],
          "internalType": "struct Lease.TransactionPayment[]",
          "name": "rentPayments",
          "type": "tuple[]"
        }
      ],
      "stateMutability": "view",
      "type": "function"
    },
    {
      "inputs": [
        {
          "internalType": "uint256",
          "name": "_leaseId",
          "type": "uint256"
        },
        {
          "internalType": "uint256",
          "name": "_ownerId",
          "type": "uint256"
        }
      ],
      "name": "getProposal",
      "outputs": [
        {
          "components": [
            {
              "internalType": "uint256",
              "name": "ownerId",
              "type": "uint256"
            },
            {
              "internalType": "uint8",
              "name": "totalNumberOfRents",
              "type": "uint8"
            },
            {
              "internalType": "uint256",
              "name": "startDate",
              "type": "uint256"
            },
            {
              "internalType": "uint256",
              "name": "platformId",
              "type": "uint256"
            },
            {
              "internalType": "string",
              "name": "metaData",
              "type": "string"
            },
            {
              "internalType": "enum Lease.ProposalStatus",
              "name": "status",
              "type": "uint8"
            }
          ],
          "internalType": "struct Lease.Proposal",
          "name": "proposal",
          "type": "tuple"
        }
      ],
      "stateMutability": "view",
      "type": "function"
    },
    {
      "inputs": [
        {
          "internalType": "bytes32",
          "name": "role",
          "type": "bytes32"
        }
      ],
      "name": "getRoleAdmin",
      "outputs": [
        {
          "internalType": "bytes32",
          "name": "",
          "type": "bytes32"
        }
      ],
      "stateMutability": "view",
      "type": "function"
    },
    {
      "inputs": [
        {
          "internalType": "bytes32",
          "name": "role",
          "type": "bytes32"
        },
        {
          "internalType": "address",
          "name": "account",
          "type": "address"
        }
      ],
      "name": "grantRole",
      "outputs": [],
      "stateMutability": "nonpayable",
      "type": "function"
    },
    {
      "inputs": [
        {
          "internalType": "bytes32",
          "name": "role",
          "type": "bytes32"
        },
        {
          "internalType": "address",
          "name": "account",
          "type": "address"
        }
      ],
      "name": "hasRole",
      "outputs": [
        {
          "internalType": "bool",
          "name": "",
          "type": "bool"
        }
      ],
      "stateMutability": "view",
      "type": "function"
    },
    {
      "inputs": [
        {
          "internalType": "uint256",
          "name": "_leaseId",
          "type": "uint256"
        }
      ],
      "name": "isValid",
      "outputs": [],
      "stateMutability": "view",
      "type": "function"
    },
    {
      "inputs": [
        {
          "internalType": "uint256",
          "name": "",
          "type": "uint256"
        }
      ],
      "name": "leases",
      "outputs": [
        {
          "internalType": "uint256",
          "name": "ownerId",
          "type": "uint256"
        },
        {
          "internalType": "uint256",
          "name": "tenantId",
          "type": "uint256"
        },
        {
          "internalType": "uint8",
          "name": "totalNumberOfRents",
          "type": "uint8"
        },
        {
          "internalType": "uint256",
          "name": "rentPaymentInterval",
          "type": "uint256"
        },
        {
          "internalType": "uint256",
          "name": "startDate",
          "type": "uint256"
        },
        {
          "internalType": "string",
          "name": "metaData",
          "type": "string"
        },
        {
          "components": [
            {
              "internalType": "uint256",
              "name": "rentAmount",
              "type": "uint256"
            },
            {
              "internalType": "address",
              "name": "paymentToken",
              "type": "address"
            },
            {
              "internalType": "string",
              "name": "currencyPair",
              "type": "string"
            }
          ],
          "internalType": "struct Lease.PaymentData",
          "name": "paymentData",
          "type": "tuple"
        },
        {
          "components": [
            {
              "internalType": "bool",
              "name": "ownerReviewed",
              "type": "bool"
            },
            {
              "internalType": "bool",
              "name": "tenantReviewed",
              "type": "bool"
            },
            {
              "internalType": "string",
              "name": "ownerReviewUri",
              "type": "string"
            },
            {
              "internalType": "string",
              "name": "tenantReviewUri",
              "type": "string"
            }
          ],
          "internalType": "struct Lease.ReviewStatus",
          "name": "reviewStatus",
          "type": "tuple"
        },
        {
          "components": [
            {
              "internalType": "bool",
              "name": "cancelledByOwner",
              "type": "bool"
            },
            {
              "internalType": "bool",
              "name": "cancelledByTenant",
              "type": "bool"
            }
          ],
          "internalType": "struct Lease.Cancellation",
          "name": "cancellation",
          "type": "tuple"
        },
        {
          "internalType": "enum Lease.LeaseStatus",
          "name": "status",
          "type": "uint8"
        },
        {
          "internalType": "uint256",
          "name": "platformId",
          "type": "uint256"
        },
        {
          "internalType": "uint256",
          "name": "proposalId",
          "type": "uint256"
        }
      ],
      "stateMutability": "view",
      "type": "function"
    },
    {
      "inputs": [
        {
          "internalType": "uint256",
          "name": "_profileId",
          "type": "uint256"
        },
        {
          "internalType": "uint256",
          "name": "_leaseId",
          "type": "uint256"
        },
        {
          "internalType": "uint256",
          "name": "_rentId",
          "type": "uint256"
        }
      ],
      "name": "markRentAsNotPaid",
      "outputs": [],
      "stateMutability": "nonpayable",
      "type": "function"
    },
    {
      "inputs": [
        {
          "internalType": "uint256",
          "name": "",
          "type": "uint256"
        }
      ],
      "name": "openProposals",
      "outputs": [
        {
          "internalType": "uint256",
          "name": "ownerId",
          "type": "uint256"
        },
        {
          "internalType": "enum Lease.ProposalStatus",
          "name": "status",
          "type": "uint8"
        },
        {
          "internalType": "uint256",
          "name": "platformId",
          "type": "uint256"
        },
        {
          "internalType": "string",
          "name": "cid",
          "type": "string"
        }
      ],
      "stateMutability": "view",
      "type": "function"
    },
    {
      "inputs": [],
      "name": "protocolFeeRate",
      "outputs": [
        {
          "internalType": "uint16",
          "name": "",
          "type": "uint16"
        }
      ],
      "stateMutability": "view",
      "type": "function"
    },
    {
      "inputs": [
        {
          "internalType": "bytes32",
          "name": "role",
          "type": "bytes32"
        },
        {
          "internalType": "address",
          "name": "account",
          "type": "address"
        }
      ],
      "name": "renounceRole",
      "outputs": [],
      "stateMutability": "nonpayable",
      "type": "function"
    },
    {
      "inputs": [
        {
          "internalType": "uint256",
          "name": "_profileId",
          "type": "uint256"
        },
        {
          "internalType": "uint256",
          "name": "_leaseId",
          "type": "uint256"
        },
        {
          "internalType": "string",
          "name": "_reviewUri",
          "type": "string"
        }
      ],
      "name": "reviewLease",
      "outputs": [],
      "stateMutability": "nonpayable",
      "type": "function"
    },
    {
      "inputs": [
        {
          "internalType": "bytes32",
          "name": "role",
          "type": "bytes32"
        },
        {
          "internalType": "address",
          "name": "account",
          "type": "address"
        }
      ],
      "name": "revokeRole",
      "outputs": [],
      "stateMutability": "nonpayable",
      "type": "function"
    },
    {
      "inputs": [
        {
          "internalType": "uint256",
          "name": "_profileId",
          "type": "uint256"
        },
        {
          "internalType": "uint256",
          "name": "_leaseId",
          "type": "uint256"
        },
        {
          "internalType": "uint8",
          "name": "_totalNumberOfRents",
          "type": "uint8"
        },
        {
          "internalType": "uint256",
          "name": "_startDate",
          "type": "uint256"
        },
        {
          "internalType": "uint256",
          "name": "_platformId",
          "type": "uint256"
        },
        {
          "internalType": "string",
          "name": "_cid",
          "type": "string"
        }
      ],
      "name": "submitProposal",
      "outputs": [],
      "stateMutability": "nonpayable",
      "type": "function"
    },
    {
      "inputs": [
        {
          "internalType": "bytes4",
          "name": "interfaceId",
          "type": "bytes4"
        }
      ],
      "name": "supportsInterface",
      "outputs": [
        {
          "internalType": "bool",
          "name": "",
          "type": "bool"
        }
      ],
      "stateMutability": "view",
      "type": "function"
    },
    {
      "inputs": [
        {
          "internalType": "uint256",
          "name": "",
          "type": "uint256"
        },
        {
          "internalType": "uint256",
          "name": "",
          "type": "uint256"
        }
      ],
      "name": "tenantProposals",
      "outputs": [
        {
          "internalType": "uint256",
          "name": "ownerId",
          "type": "uint256"
        },
        {
          "internalType": "uint8",
          "name": "totalNumberOfRents",
          "type": "uint8"
        },
        {
          "internalType": "uint256",
          "name": "startDate",
          "type": "uint256"
        },
        {
          "internalType": "uint256",
          "name": "platformId",
          "type": "uint256"
        },
        {
          "internalType": "string",
          "name": "metaData",
          "type": "string"
        },
        {
          "internalType": "enum Lease.ProposalStatus",
          "name": "status",
          "type": "uint8"
        }
      ],
      "stateMutability": "view",
      "type": "function"
    },
    {
      "inputs": [],
      "name": "updateLease",
      "outputs": [],
      "stateMutability": "nonpayable",
      "type": "function"
    },
    {
      "inputs": [
        {
          "internalType": "uint256",
          "name": "_profileId",
          "type": "uint256"
        },
        {
          "internalType": "uint256",
          "name": "_leaseId",
          "type": "uint256"
        },
        {
          "internalType": "string",
          "name": "_newCid",
          "type": "string"
        }
      ],
      "name": "updateLeaseMetaData",
      "outputs": [],
      "stateMutability": "nonpayable",
      "type": "function"
    },
    {
      "inputs": [
        {
          "internalType": "uint256",
          "name": "_profileId",
          "type": "uint256"
        },
        {
          "internalType": "string",
          "name": "_cid",
          "type": "string"
        }
      ],
      "name": "updateOpenProposal",
      "outputs": [],
      "stateMutability": "nonpayable",
      "type": "function"
    },
    {
      "inputs": [
        {
          "internalType": "uint256",
          "name": "_tenantId",
          "type": "uint256"
        },
        {
          "internalType": "uint256",
          "name": "_leaseId",
          "type": "uint256"
        },
        {
          "internalType": "uint8",
          "name": "_totalNumberOfRents",
          "type": "uint8"
        },
        {
          "internalType": "uint256",
          "name": "_startDate",
          "type": "uint256"
        },
        {
          "internalType": "string",
          "name": "_cid",
          "type": "string"
        }
      ],
      "name": "updateProposal",
      "outputs": [],
      "stateMutability": "nonpayable",
      "type": "function"
    },
    {
      "inputs": [
        {
          "internalType": "uint256",
          "name": "_profileId",
          "type": "uint256"
        },
        {
          "internalType": "uint256",
          "name": "_leaseId",
          "type": "uint256"
        }
      ],
      "name": "validateLease",
      "outputs": [],
      "stateMutability": "nonpayable",
      "type": "function"
    },
    {
      "inputs": [
        {
          "internalType": "uint256",
          "name": "_profileId",
          "type": "uint256"
        },
        {
          "internalType": "uint256",
          "name": "_tenantId",
          "type": "uint256"
        },
        {
          "internalType": "uint256",
          "name": "_leaseId",
          "type": "uint256"
        }
      ],
      "name": "validateProposal",
      "outputs": [],
      "stateMutability": "nonpayable",
      "type": "function"
    },
    {
      "inputs": [
        {
          "internalType": "uint256",
          "name": "_leaseId",
          "type": "uint256"
        },
        {
          "internalType": "uint256",
          "name": "_rentId",
          "type": "uint256"
        },
        {
          "internalType": "bool",
          "name": "_withoutIssues",
          "type": "bool"
        }
      ],
      "name": "validateRentPayment",
      "outputs": [],
      "stateMutability": "nonpayable",
      "type": "function"
    }
  ],
  "bytecode": "0x60806040526003805460ff191660c81790553480156200001e57600080fd5b50604051620048823803806200488283398101604081905262000041916200016d565b6200005860016200009760201b620031351760201c565b62000065600033620000a0565b600780546001600160a01b039384166001600160a01b03199182161790915560088054929093169116179055620001a5565b80546001019055565b620000ac8282620000b0565b5050565b6000828152602081815260408083206001600160a01b038516845290915290205460ff16620000ac576000828152602081815260408083206001600160a01b03851684529091529020805460ff191660011790556200010c3390565b6001600160a01b0316816001600160a01b0316837f2f8788117e7eff1d82e926ec794901d17c78024a50270940304540a733656f0d60405160405180910390a45050565b80516001600160a01b03811681146200016857600080fd5b919050565b600080604083850312156200018157600080fd5b6200018c8362000150565b91506200019c6020840162000150565b90509250929050565b6146cd80620001b56000396000f3fe608060405234801561001057600080fd5b50600436106101e55760003560e01c806391d148541161010f578063baad51eb116100a2578063e844379511610071578063e84437951461047f578063f577a50014610492578063fb9e6ab1146104a5578063fe365199146104b857600080fd5b8063baad51eb14610433578063c2410d1c14610446578063d547741f14610459578063dba470331461046c57600080fd5b8063a27e1aac116100de578063a27e1aac146103db578063aba21009146103ee578063ac71189214610225578063b79d69651461040e57600080fd5b806391d148541461038d5780639a9f56b7146103a05780639f44657c146103b3578063a217fddf146103d357600080fd5b806358f858801161018757806377d8434f1161015657806377d8434f146103295780638927a1061461033c5780638de3d2b4146103675780638fd5cee71461037a57600080fd5b806358f85880146102b457806359183f00146102dc57806363305b601461030357806375649a421461031657600080fd5b80632d631aa4116101c35780632d631aa4146102585780632f2ff15d1461026b57806336568abe1461027e57806346e897871461029157600080fd5b806301ffc9a7146101ea5780631a8cfa0514610212578063248a9ca314610227575b600080fd5b6101fd6101f836600461385d565b6104d8565b60405190151581526020015b60405180910390f35b610225610220366004613887565b61050f565b005b61024a6102353660046138b3565b60009081526020819052604090206001015490565b604051908152602001610209565b610225610266366004613915565b610c31565b610225610279366004613976565b610c90565b61022561028c366004613976565b610cba565b6102a461029f3660046138b3565b610d38565b6040516102099493929190613a20565b6008546102c990600160a01b900461ffff1681565b60405161ffff9091168152602001610209565b61024a7fa624ddbc4fb31a463e13e6620d62eeaf14248f89110a7fda32b4048499c999a681565b610225610311366004613a56565b610def565b61024a610324366004613aaa565b610ec2565b610225610337366004613887565b6110c3565b61034f61034a3660046138b3565b6114ca565b6040516102099c9b9a99989796959493929190613be3565b610225610375366004613c8a565b6117e2565b610225610388366004613cfb565b61186d565b6101fd61039b366004613976565b611b2b565b6102256103ae366004613d4e565b611b54565b6103c66103c13660046138b3565b611df5565b6040516102099190613df3565b61024a600081565b6102256103e9366004613f19565b61225f565b6104016103fc366004613d4e565b61238a565b6040516102099190613fdd565b61042161041c366004613d4e565b6124b0565b60405161020996959493929190614040565b610225610441366004614088565b612581565b610225610454366004613d4e565b61275b565b610225610467366004613976565b612ac1565b61022561047a366004613cfb565b612ae6565b61024a61048d366004614103565b612c80565b6102256104a03660046138b3565b612e7c565b6102256104b3366004613d4e565b612ed0565b6104cb6104c63660046138b3565b613062565b6040516102099190614185565b60006001600160e01b03198216637965db0b60e01b148061050957506301ffc9a760e01b6001600160e01b03198316145b92915050565b6007546040516331a9108f60e11b815260048101859052849133916001600160a01b0390911690636352211e90602401602060405180830381865afa15801561055c573d6000803e3d6000fd5b505050506040513d601f19601f820116820180604052508101906105809190614198565b6001600160a01b0316146105af5760405162461bcd60e51b81526004016105a6906141b5565b60405180910390fd5b6105b883612e7c565b600083815260046020818152604080842081516101a08101835281548152600182015493810193909352600281015460ff16918301919091526003810154606083015291820154608082015260058201805491929160a08401919061061c906141ec565b80601f0160208091040260200160405190810160405280929190818152602001828054610648906141ec565b80156106955780601f1061066a57610100808354040283529160200191610695565b820191906000526020600020905b81548152906001019060200180831161067857829003601f168201915b5050505050815260200160068201604051806060016040529081600082015481526020016001820160009054906101000a90046001600160a01b03166001600160a01b03166001600160a01b031681526020016002820180546106f7906141ec565b80601f0160208091040260200160405190810160405280929190818152602001828054610723906141ec565b80156107705780601f1061074557610100808354040283529160200191610770565b820191906000526020600020905b81548152906001019060200180831161075357829003601f168201915b5050509190925250505081526040805160808101825260098401805460ff80821615158452610100909104161515602083810191909152600a8601805491909501949293919291840191906107c4906141ec565b80601f01602080910402602001604051908101604052809291908181526020018280546107f0906141ec565b801561083d5780601f106108125761010080835404028352916020019161083d565b820191906000526020600020905b81548152906001019060200180831161082057829003601f168201915b50505050508152602001600282018054610856906141ec565b80601f0160208091040260200160405190810160405280929190818152602001828054610882906141ec565b80156108cf5780601f106108a4576101008083540402835291602001916108cf565b820191906000526020600020905b8154815290600101906020018083116108b257829003601f168201915b505050919092525050508152604080518082018252600c84015460ff8082161515835261010090910481161515602083810191909152840191909152600d8401549190920191166003811115610927576109276139a6565b6003811115610938576109386139a6565b8152602001600e8201805480602002602001604051908101604052809291908181526020016000905b828210156109f65760008481526020908190206040805160a0810182526005860290920180548352600181015460ff9081161515948401949094526002810154918301919091526003810154606083015260048082015492939192608085019216908111156109d2576109d26139a6565b60048111156109e3576109e36139a6565b8152505081526020019060010190610961565b505050508152602001600f8201548152602001601082015481525050905084816000015114610a7d5760405162461bcd60e51b815260206004820152602d60248201527f4c656173653a204f6e6c7920746865206f776e65722063616e20706572666f7260448201526c36903a3434b99030b1ba34b7b760991b60648201526084016105a6565b60008161012001516003811115610a9657610a966139a6565b14610ae35760405162461bcd60e51b815260206004820152601a60248201527f4c656173653a204c65617365206973206e6f742041637469766500000000000060448201526064016105a6565b828160600151610af3919061423c565b81606001518260800151610b079190614253565b610b119190614253565b4211610b6b5760405162461bcd60e51b815260206004820152602360248201527f4c656173653a2054656e616e74207374696c6c206861732074696d6520746f2060448201526270617960e81b60648201526084016105a6565b60008161014001518481518110610b8457610b84614266565b6020026020010151905060016004811115610ba157610ba16139a6565b81608001516004811115610bb757610bb76139a6565b03610c145760405162461bcd60e51b815260206004820152602760248201527f4c656173653a205061796d656e74207374617475732073686f756c642062652060448201526650454e44494e4760c81b60648201526084016105a6565b610c208585600261313e565b610c29856131cf565b505050505050565b600083815260066020526040902060038101610c4e8385836142c2565b507f43a6cdcc2306d0429b12040fb23aa23db218cf6138b44ae7e2b7d787106e8b03848484604051610c82939291906143ab565b60405180910390a150505050565b600082815260208190526040902060010154610cab816132a4565b610cb583836132ae565b505050565b6001600160a01b0381163314610d2a5760405162461bcd60e51b815260206004820152602f60248201527f416363657373436f6e74726f6c3a2063616e206f6e6c792072656e6f756e636560448201526e103937b632b9903337b91039b2b63360891b60648201526084016105a6565b610d348282613332565b5050565b6006602052600090815260409020805460018201546002830154600384018054939460ff90931693919291610d6c906141ec565b80601f0160208091040260200160405190810160405280929190818152602001828054610d98906141ec565b8015610de55780601f10610dba57610100808354040283529160200191610de5565b820191906000526020600020905b815481529060010190602001808311610dc857829003601f168201915b5050505050905084565b7fa624ddbc4fb31a463e13e6620d62eeaf14248f89110a7fda32b4048499c999a6610e19816132a4565b6000848152600460205260408120600e01805485908110610e3c57610e3c614266565b6000918252602090912060059091020160048101805491925060019160ff19168280021790555060018101805460ff1916841515179055428155610e7f856131cf565b7f6567f2e2a2e69688375538429e68369e641782fc09ac9b06b5f09f84a7fb790885856001604051610eb3939291906143c5565b60405180910390a15050505050565b6007546040516331a9108f60e11b8152600481018c90526000918c9133916001600160a01b031690636352211e90602401602060405180830381865afa158015610f10573d6000803e3d6000fd5b505050506040513d601f19601f82011682018060405250810190610f349190614198565b6001600160a01b031614610f5a5760405162461bcd60e51b81526004016105a6906141b5565b600060046000610f6960015490565b815260208101919091526040016000208d8155600181018d9055600681018c905560028101805460ff191660ff8d161790556007810180546001600160a01b0319166001600160a01b038c16179055905060088101610fc98789836142c2565b506003810188905560048101859055600d8101805460ff19166001908117909155600f820185905554815460408051928352602083018f905282015260ff8b1660608201526080810186905260a0810189905260c081018590527f689bbfd861d458fae2fc1b113460631439017d8e1083e7030adf64fecd8d861c9060e00160405180910390a17fa7f448dfd64b32b9afdf7f1f74a71c1c21d126f2d79fd12632da3a4a53b064a061107a60015490565b8c8b8a8a60405161108f9594939291906143e0565b60405180910390a160006110a260015490565b90506110b2600180546001019055565b9d9c50505050505050505050505050565b6007546040516331a9108f60e11b815260048101859052849133916001600160a01b0390911690636352211e90602401602060405180830381865afa158015611110573d6000803e3d6000fd5b505050506040513d601f19601f820116820180604052508101906111349190614198565b6001600160a01b03161461115a5760405162461bcd60e51b81526004016105a6906141b5565b6000828152600460205260409020805485146111c85760405162461bcd60e51b815260206004820152602760248201527f4c656173653a204f6e6c79206f776e65722063616e2076616c696461746520706044820152661c9bdc1bdcd85b60ca1b60648201526084016105a6565b6001600d82015460ff1660038111156111e3576111e36139a6565b1461122b5760405162461bcd60e51b81526020600482015260186024820152772632b0b9b29d102632b0b9b29034b9903737ba1037b832b760411b60448201526064016105a6565b60008381526005602090815260408083208784528252808320815160c08101835281548152600182015460ff16938101939093526002810154918301919091526003810154606083015260048101805460808401919061128a906141ec565b80601f01602080910402602001604051908101604052809291908181526020018280546112b6906141ec565b80156113035780601f106112d857610100808354040283529160200191611303565b820191906000526020600020905b8154815290600101906020018083116112e657829003601f168201915b5050509183525050600582015460209091019060ff16600281111561132a5761132a6139a6565b600281111561133b5761133b6139a6565b90525080516001840155602081015160028401805460ff191660ff9092169190911790556040810151600484015560108301869055905060005b600283015460ff90811690821610156114575782600e016040518060a00160405280600081526020016000151581526020016000815260200160008152602001600060048111156113c8576113c86139a6565b90528154600181810184556000938452602093849020835160059093020191825592820151818401805491151560ff1992831617905560408301516002830155606083015160038301556080830151600480840180549596949592949093929092169190849081111561143d5761143d6139a6565b02179055505050808061144f9061440e565b915050611375565b50600d8201805460ff19169055600160a0820181905250602081015160408083015190517f8bc305c3ac99df0d7e258d6e3fb1db45b50c26dece158c87a4b8ca5407e25948926114ba9289835260ff919091166020830152604082015260600190565b60405180910390a1505050505050565b60046020819052600091825260409091208054600182015460028301546003840154948401546005850180549496939560ff9093169491929161150c906141ec565b80601f0160208091040260200160405190810160405280929190818152602001828054611538906141ec565b80156115855780601f1061155a57610100808354040283529160200191611585565b820191906000526020600020905b81548152906001019060200180831161156857829003601f168201915b505060408051606081018252600687018054825260078801546001600160a01b0316602083015260088801805497989792965090945091850192506115c9906141ec565b80601f01602080910402602001604051908101604052809291908181526020018280546115f5906141ec565b80156116425780601f1061161757610100808354040283529160200191611642565b820191906000526020600020905b81548152906001019060200180831161162557829003601f168201915b5050509190925250506040805160808101825260098501805460ff808216151584526101009091041615156020830152600a86018054959695929450909284019161168c906141ec565b80601f01602080910402602001604051908101604052809291908181526020018280546116b8906141ec565b80156117055780601f106116da57610100808354040283529160200191611705565b820191906000526020600020905b8154815290600101906020018083116116e857829003601f168201915b5050505050815260200160028201805461171e906141ec565b80601f016020809104026020016040519081016040528092919081815260200182805461174a906141ec565b80156117975780601f1061176c57610100808354040283529160200191611797565b820191906000526020600020905b81548152906001019060200180831161177a57829003601f168201915b50505091909252505060408051808201909152600c84015460ff80821615158352610100909104811615156020830152600d850154600f86015460109096015494959294911692508c565b6000858152600560209081526040808320898452909152902060018101805460ff191660ff871617905560028101849055600481016118228385836142c2565b507f0759b8916f2c94ea10095d6bca980cc6acf6027b1ba4eeb083a2fa90d08afd9486888787878760405161185c9695949392919061442d565b60405180910390a150505050505050565b6007546040516331a9108f60e11b815260048101869052859133916001600160a01b0390911690636352211e90602401602060405180830381865afa1580156118ba573d6000803e3d6000fd5b505050506040513d601f19601f820116820180604052508101906118de9190614198565b6001600160a01b0316146119045760405162461bcd60e51b81526004016105a6906141b5565b61190d84612e7c565b6000848152600460205260409020805486148061192d5750806001015486145b6119495760405162461bcd60e51b81526004016105a690614468565b6002600d82015460ff166003811115611964576119646139a6565b146119bc5760405162461bcd60e51b815260206004820152602260248201527f4c656173653a204c65617365206973207374696c6c206e6f742066696e697368604482015261195960f21b60648201526084016105a6565b80600101548603611a83576009810154610100900460ff1615611a215760405162461bcd60e51b815260206004820152601e60248201527f4c656173653a2054656e616e7420616c7265616479207265766965776564000060448201526064016105a6565b600b8101611a308486836142c2565b5060098101805461ff0019166101001790556040517fb1da3f3ff6eac58d60d1b070cb3492689e359cff627a6734122e87ab715f0e7d90611a76908790879087906143ab565b60405180910390a1610c29565b600981015460ff1615611ad85760405162461bcd60e51b815260206004820152601d60248201527f4c656173653a204f776e657220616c726561647920726576696577656400000060448201526064016105a6565b600a8101611ae78486836142c2565b5060098101805460ff191660011790556040517f71142bb90445786375b9189a6d9e4245797ccde8572f008946b95514842c95ab906114ba908790879087906143ab565b6000918252602082815260408084206001600160a01b0393909316845291905290205460ff1690565b6007546040516331a9108f60e11b815260048101849052839133916001600160a01b0390911690636352211e90602401602060405180830381865afa158015611ba1573d6000803e3d6000fd5b505050506040513d601f19601f82011682018060405250810190611bc59190614198565b6001600160a01b031614611beb5760405162461bcd60e51b81526004016105a6906141b5565b611bf482612e7c565b600082815260046020526040902060018101548414611c6b5760405162461bcd60e51b815260206004820152602d60248201527f4c656173653a204f6e6c79207468652074656e616e742063616e2063616c6c2060448201526c3a3434b990333ab731ba34b7b760991b60648201526084016105a6565b6001600d82015460ff166003811115611c8657611c866139a6565b14611cd35760405162461bcd60e51b815260206004820152601b60248201527f4c656173653a204c65617365206973206e6f742070656e64696e67000000000060448201526064016105a6565b60005b600282015460ff9081169082161015611db85781600e016040518060a0016040528060008152602001600015158152602001600081526020016000815260200160006004811115611d2957611d296139a6565b90528154600181810184556000938452602093849020835160059093020191825592820151818401805491151560ff19928316179055604083015160028301556060830151600383015560808301516004808401805495969495929490939290921691908490811115611d9e57611d9e6139a6565b021790555050508080611db09061440e565b915050611cd6565b50600d8101805460ff191690556040518381527ff740d6b600f9198d8207d1841ae46d4dc1e6b0550c614600d875846bc04c1c3490602001610c82565b611dfd613732565b60008281526004602081815260409283902083516101a08101855281548152600182015492810192909252600281015460ff16938201939093526003830154606082015290820154608082015260058201805491929160a084019190611e62906141ec565b80601f0160208091040260200160405190810160405280929190818152602001828054611e8e906141ec565b8015611edb5780601f10611eb057610100808354040283529160200191611edb565b820191906000526020600020905b815481529060010190602001808311611ebe57829003601f168201915b5050505050815260200160068201604051806060016040529081600082015481526020016001820160009054906101000a90046001600160a01b03166001600160a01b03166001600160a01b03168152602001600282018054611f3d906141ec565b80601f0160208091040260200160405190810160405280929190818152602001828054611f69906141ec565b8015611fb65780601f10611f8b57610100808354040283529160200191611fb6565b820191906000526020600020905b815481529060010190602001808311611f9957829003601f168201915b5050509190925250505081526040805160808101825260098401805460ff80821615158452610100909104161515602083810191909152600a86018054919095019492939192918401919061200a906141ec565b80601f0160208091040260200160405190810160405280929190818152602001828054612036906141ec565b80156120835780601f1061205857610100808354040283529160200191612083565b820191906000526020600020905b81548152906001019060200180831161206657829003601f168201915b5050505050815260200160028201805461209c906141ec565b80601f01602080910402602001604051908101604052809291908181526020018280546120c8906141ec565b80156121155780601f106120ea57610100808354040283529160200191612115565b820191906000526020600020905b8154815290600101906020018083116120f857829003601f168201915b505050919092525050508152604080518082018252600c84015460ff8082161515835261010090910481161515602083810191909152840191909152600d840154919092019116600381111561216d5761216d6139a6565b600381111561217e5761217e6139a6565b8152602001600e8201805480602002602001604051908101604052809291908181526020016000905b8282101561223c5760008481526020908190206040805160a0810182526005860290920180548352600181015460ff908116151594840194909452600281015491830191909152600381015460608301526004808201549293919260808501921690811115612218576122186139a6565b6004811115612229576122296139a6565b81525050815260200190600101906121a7565b505050508152602001600f82015481526020016010820154815250509050919050565b6007546040516331a9108f60e11b815260048101859052849133916001600160a01b0390911690636352211e90602401602060405180830381865afa1580156122ac573d6000803e3d6000fd5b505050506040513d601f19601f820116820180604052508101906122d09190614198565b6001600160a01b0316146122f65760405162461bcd60e51b81526004016105a6906141b5565b8151602e1461233c5760405162461bcd60e51b81526020600482015260126024820152711319585cd94e88125b9d985b1a590818da5960721b60448201526064016105a6565b60008381526004602052604090206005810161235884826144a9565b507f4b8571ba3c599c27b0b809fecc20d64cdc3c968443607ed2911be496ff33d18b8484604051610eb3929190614569565b612392613814565b6000838152600560209081526040808320858452825291829020825160c08101845281548152600182015460ff1692810192909252600281015492820192909252600382015460608201526004820180549192916080840191906123f5906141ec565b80601f0160208091040260200160405190810160405280929190818152602001828054612421906141ec565b801561246e5780601f106124435761010080835404028352916020019161246e565b820191906000526020600020905b81548152906001019060200180831161245157829003601f168201915b5050509183525050600582015460209091019060ff166002811115612495576124956139a6565b60028111156124a6576124a66139a6565b9052509392505050565b600560209081526000928352604080842090915290825290208054600182015460028301546003840154600485018054949560ff90941694929391926124f5906141ec565b80601f0160208091040260200160405190810160405280929190818152602001828054612521906141ec565b801561256e5780601f106125435761010080835404028352916020019161256e565b820191906000526020600020905b81548152906001019060200180831161255157829003601f168201915b5050506005909301549192505060ff1686565b6007546040516331a9108f60e11b815260048101899052889133916001600160a01b0390911690636352211e90602401602060405180830381865afa1580156125ce573d6000803e3d6000fd5b505050506040513d601f19601f820116820180604052508101906125f29190614198565b6001600160a01b0316146126185760405162461bcd60e51b81526004016105a6906141b5565b61262487898585613397565b6040518060c001604052808981526020018760ff16815260200186815260200185815260200184848080601f016020809104026020016040519081016040528093929190818152602001838380828437600092018290525093855250505060209182018190528981526005825260408082208c8352835290819020835181559183015160018301805460ff191660ff909216919091179055820151600282015560608201516003820155608082015160048201906126e290826144a9565b5060a082015160058201805460ff19166001836002811115612706576127066139a6565b02179055509050507f671284cc916e24514e3cfd9035c01c2613ce98a2cbc26e7da95c7227ae581fc9878988888888886040516127499796959493929190614582565b60405180910390a15050505050505050565b6007546040516331a9108f60e11b815260048101849052839133916001600160a01b0390911690636352211e90602401602060405180830381865afa1580156127a8573d6000803e3d6000fd5b505050506040513d601f19601f820116820180604052508101906127cc9190614198565b6001600160a01b0316146127f25760405162461bcd60e51b81526004016105a6906141b5565b60015482111561283b5760405162461bcd60e51b81526020600482015260146024820152731319585cd948191bd95cc81b9bdd08195e1a5cdd60621b60448201526064016105a6565b6000828152600460205260409020805484148061285b5750806001015484145b6128775760405162461bcd60e51b81526004016105a690614468565b6000600d82015460ff166003811115612892576128926139a6565b146128d55760405162461bcd60e51b81526020600482015260136024820152724c65617365206973206e6f742041637469766560681b60448201526064016105a6565b8054840361294657600c81015460ff16156129325760405162461bcd60e51b815260206004820181905260248201527f4c6561736520616c72656164792063616e63656c6c6564206279206f776e657260448201526064016105a6565b600c8101805460ff191660011790556129bc565b600c810154610100900460ff16156129aa5760405162461bcd60e51b815260206004820152602160248201527f4c6561736520616c72656164792063616e63656c6c65642062792074656e616e6044820152601d60fa1b60648201526084016105a6565b600c8101805461ff0019166101001790555b600c8101546040805185815260ff80841615156020830152610100909304909216151582820152517f738d90be22c218d95c6514e34f1295c6dbfe8bf4ad7b28af5894cb05991a6d6b9181900360600190a1600c81015460ff168015612a2b5750600c810154610100900460ff165b15612abb5760005b600282015460ff9081169082161015612ab157600082600e018260ff1681548110612a6057612a60614266565b600091825260208220600590910201915060048083015460ff1690811115612a8a57612a8a6139a6565b03612a9e57612a9e858360ff16600361313e565b5080612aa98161440e565b915050612a33565b50612abb836131cf565b50505050565b600082815260208190526040902060010154612adc816132a4565b610cb58383613332565b6007546040516331a9108f60e11b815260048101869052859133916001600160a01b0390911690636352211e90602401602060405180830381865afa158015612b33573d6000803e3d6000fd5b505050506040513d601f19601f82011682018060405250810190612b579190614198565b6001600160a01b031614612b7d5760405162461bcd60e51b81526004016105a6906141b5565b6000612b8860025490565b6040805160808101909152878152909150602081016000815260200186815260200185858080601f0160208091040260200160405190810160405280939291908181526020018383808284376000920182905250939094525050838152600660209081526040909120835181559083015160018083018054939450919260ff191690836002811115612c1c57612c1c6139a6565b02179055506040820151600282015560608201516003820190612c3f90826144a9565b5050600280546001019055507f74bdc926bde0d060c4bb32e56a70f56fe8f7f8ea6c1191f7989f0bc7fb30e78f818686866040516114ba94939291906145c4565b6007546040516331a9108f60e11b8152600481018a90526000918a9133916001600160a01b031690636352211e90602401602060405180830381865afa158015612cce573d6000803e3d6000fd5b505050506040513d601f19601f82011682018060405250810190612cf29190614198565b6001600160a01b031614612d185760405162461bcd60e51b81526004016105a6906141b5565b600060046000612d2760015490565b8152602081019190915260400160009081208c81556001810191909155600681018b905560028101805460ff191690556007810180546001600160a01b0319166001600160a01b038c16179055905060088101612d858789836142c2565b506003810188905560048101859055600d8101805460ff19166001908117909155600f8201859055547f689bbfd861d458fae2fc1b113460631439017d8e1083e7030adf64fecd8d861c90604080519182526000602083018190529082018e905260608201526080810187905260a081018a905260c0810186905260e00160405180910390a17fa7f448dfd64b32b9afdf7f1f74a71c1c21d126f2d79fd12632da3a4a53b064a0612e3560015490565b8b8b8a8a604051612e4a9594939291906143e0565b60405180910390a16000612e5d60015490565b9050612e6d600180546001019055565b9b9a5050505050505050505050565b600081118015612e8e57506001548111155b612ecd5760405162461bcd60e51b815260206004820152601060248201526f125b9d985b1a59081b19585cd948125160821b60448201526064016105a6565b50565b6007546040516331a9108f60e11b815260048101849052839133916001600160a01b0390911690636352211e90602401602060405180830381865afa158015612f1d573d6000803e3d6000fd5b505050506040513d601f19601f82011682018060405250810190612f419190614198565b6001600160a01b031614612f675760405162461bcd60e51b81526004016105a6906141b5565b612f7082612e7c565b60008281526004602052604090208054841480612f905750806001015484145b612fac5760405162461bcd60e51b81526004016105a690614468565b6001600d82015460ff166003811115612fc757612fc76139a6565b1461301f5760405162461bcd60e51b815260206004820152602260248201527f4c656173653a204c656173652077617320616c72656164792076616c69646174604482015261195960f21b60648201526084016105a6565b600d8101805460ff191660039081179091556040517fdb63439c118f1d1f76128d4db22b1d385eb21fdf197e5f27bb3b349b3fba978191610c82918691906145e4565b6000818152600460209081526040808320600e8101805483518186028101860190945280845260609592949192909184015b828210156131295760008481526020908190206040805160a0810182526005860290920180548352600181015460ff908116151594840194909452600281015491830191909152600381015460608301526004808201549293919260808501921690811115613105576131056139a6565b6004811115613116576131166139a6565b8152505081526020019060010190613094565b50505050915050919050565b80546001019055565b6000838152600460205260408120600e0180548490811061316157613161614266565b90600052602060002090600502019050818160040160006101000a81548160ff02191690836004811115613197576131976139a6565b02179055507f6567f2e2a2e69688375538429e68369e641782fc09ac9b06b5f09f84a7fb7908848484604051610c82939291906143c5565b6000818152600460205260408120905b600282015460ff908116908216101561325457600082600e018260ff168154811061320c5761320c614266565b600091825260208220600590910201915060048083015460ff1690811115613236576132366139a6565b036132415750505050565b508061324c8161440e565b9150506131df565b50600d8101805460ff191660029081179091556040517fdb63439c118f1d1f76128d4db22b1d385eb21fdf197e5f27bb3b349b3fba978191613298918591906145e4565b60405180910390a15050565b612ecd8133613524565b6132b88282611b2b565b610d34576000828152602081815260408083206001600160a01b03851684529091529020805460ff191660011790556132ee3390565b6001600160a01b0316816001600160a01b0316837f2f8788117e7eff1d82e926ec794901d17c78024a50270940304540a733656f0d60405160405180910390a45050565b61333c8282611b2b565b15610d34576000828152602081815260408083206001600160a01b0385168085529252808320805460ff1916905551339285917ff6391f5c32d9c69d2a47ea670b442974b53935d1edc7fd64eb21e047a839171b9190a45050565b60008481526004602052604090206001600d82015460ff1660038111156133c0576133c06139a6565b146134085760405162461bcd60e51b81526020600482015260186024820152772632b0b9b29d102632b0b9b29034b9903737ba1037b832b760411b60448201526064016105a6565b602e821461344d5760405162461bcd60e51b81526020600482015260126024820152711319585cd94e88125b9d985b1a590818da5960721b60448201526064016105a6565b80548490036134aa5760405162461bcd60e51b815260206004820152602360248201527f4c656173653a204f776e65722063616e6e6f74207375626d69742070726f706f6044820152621cd85b60ea1b60648201526084016105a6565b600085815260056020908152604080832087845290915290205484900361351d5760405162461bcd60e51b815260206004820152602160248201527f4c656173653a2050726f706f73616c20616c7265616479207375626d697474656044820152601960fa1b60648201526084016105a6565b5050505050565b61352e8282611b2b565b610d345761353b8161357d565b61354683602061358f565b6040516020016135579291906145f8565b60408051601f198184030181529082905262461bcd60e51b82526105a69160040161466d565b60606105096001600160a01b03831660145b6060600061359e83600261423c565b6135a9906002614253565b67ffffffffffffffff8111156135c1576135c1613f03565b6040519080825280601f01601f1916602001820160405280156135eb576020820181803683370190505b509050600360fc1b8160008151811061360657613606614266565b60200101906001600160f81b031916908160001a905350600f60fb1b8160018151811061363557613635614266565b60200101906001600160f81b031916908160001a905350600061365984600261423c565b613664906001614253565b90505b60018111156136dc576f181899199a1a9b1b9c1cb0b131b232b360811b85600f166010811061369857613698614266565b1a60f81b8282815181106136ae576136ae614266565b60200101906001600160f81b031916908160001a90535060049490941c936136d581614680565b9050613667565b50831561372b5760405162461bcd60e51b815260206004820181905260248201527f537472696e67733a20686578206c656e67746820696e73756666696369656e7460448201526064016105a6565b9392505050565b604051806101a001604052806000815260200160008152602001600060ff16815260200160008152602001600081526020016060815260200161379860405180606001604052806000815260200160006001600160a01b03168152602001606081525090565b81526020016137cc604051806080016040528060001515815260200160001515815260200160608152602001606081525090565b81526020016137f260405180604001604052806000151581526020016000151581525090565b8152602001600081526020016060815260200160008152602001600081525090565b6040518060c0016040528060008152602001600060ff16815260200160008152602001600081526020016060815260200160006002811115613858576138586139a6565b905290565b60006020828403121561386f57600080fd5b81356001600160e01b03198116811461372b57600080fd5b60008060006060848603121561389c57600080fd5b505081359360208301359350604090920135919050565b6000602082840312156138c557600080fd5b5035919050565b60008083601f8401126138de57600080fd5b50813567ffffffffffffffff8111156138f657600080fd5b60208301915083602082850101111561390e57600080fd5b9250929050565b60008060006040848603121561392a57600080fd5b83359250602084013567ffffffffffffffff81111561394857600080fd5b613954868287016138cc565b9497909650939450505050565b6001600160a01b0381168114612ecd57600080fd5b6000806040838503121561398957600080fd5b82359150602083013561399b81613961565b809150509250929050565b634e487b7160e01b600052602160045260246000fd5b600381106139cc576139cc6139a6565b9052565b60005b838110156139eb5781810151838201526020016139d3565b50506000910152565b60008151808452613a0c8160208601602086016139d0565b601f01601f19169290920160200192915050565b848152613a3060208201856139bc565b826040820152608060608201526000613a4c60808301846139f4565b9695505050505050565b600080600060608486031215613a6b57600080fd5b833592506020840135915060408401358015158114613a8957600080fd5b809150509250925092565b803560ff81168114613aa557600080fd5b919050565b6000806000806000806000806000806101208b8d031215613aca57600080fd5b8a35995060208b0135985060408b01359750613ae860608c01613a94565b965060808b0135613af881613961565b955060a08b0135945060c08b013567ffffffffffffffff811115613b1b57600080fd5b613b278d828e016138cc565b9b9e9a9d50989b979a969995989760e0810135966101009091013595509350505050565b8051825260018060a01b0360208201511660208301526000604082015160606040850152613b7c60608501826139f4565b949350505050565b8051151582526020810151151560208301526000604082015160806040850152613bb160808501826139f4565b905060608301518482036060860152613bca82826139f4565b95945050505050565b600481106139cc576139cc6139a6565b60006101a08e83528d602084015260ff8d1660408401528b60608401528a60808401528060a0840152613c188184018b6139f4565b905082810360c0840152613c2c818a613b4b565b905082810360e0840152613c408189613b84565b87511515610100850152602088015115156101208501529150613c609050565b613c6e610140830186613bd3565b61016082019390935261018001529a9950505050505050505050565b60008060008060008060a08789031215613ca357600080fd5b8635955060208701359450613cba60408801613a94565b935060608701359250608087013567ffffffffffffffff811115613cdd57600080fd5b613ce989828a016138cc565b979a9699509497509295939492505050565b60008060008060608587031215613d1157600080fd5b8435935060208501359250604085013567ffffffffffffffff811115613d3657600080fd5b613d42878288016138cc565b95989497509550505050565b60008060408385031215613d6157600080fd5b50508035926020909101359150565b600581106139cc576139cc6139a6565b600081518084526020808501945080840160005b83811015613de85781518051885283810151151584890152604080820151908901526060808201519089015260809081015190613dd3818a0183613d70565b505060a0969096019590820190600101613d94565b509495945050505050565b60208152815160208201526020820151604082015260006040830151613e1e606084018260ff169052565b5060608301516080830152608083015160a083015260a08301516101c08060c0850152613e4f6101e08501836139f4565b915060c0850151601f19808685030160e0870152613e6d8483613b4b565b935060e08701519150610100818786030181880152613e8c8584613b84565b945080880151925050610120613eb2818801848051151582526020908101511515910152565b8701519150610160613ec687820184613bd3565b6101408801519250610180828887030181890152613ee48685613d80565b918901516101a089015290970151929095019190915250929392505050565b634e487b7160e01b600052604160045260246000fd5b600080600060608486031215613f2e57600080fd5b8335925060208401359150604084013567ffffffffffffffff80821115613f5457600080fd5b818601915086601f830112613f6857600080fd5b813581811115613f7a57613f7a613f03565b604051601f8201601f19908116603f01168101908382118183101715613fa257613fa2613f03565b81604052828152896020848701011115613fbb57600080fd5b8260208601602083013760006020848301015280955050505050509250925092565b602081528151602082015260ff602083015116604082015260408201516060820152606082015160808201526000608083015160c060a084015261402460e08401826139f4565b905060a084015161403860c08501826139bc565b509392505050565b86815260ff8616602082015284604082015283606082015260c06080820152600061406e60c08301856139f4565b905061407d60a08301846139bc565b979650505050505050565b600080600080600080600060c0888a0312156140a357600080fd5b87359650602088013595506140ba60408901613a94565b9450606088013593506080880135925060a088013567ffffffffffffffff8111156140e457600080fd5b6140f08a828b016138cc565b989b979a50959850939692959293505050565b60008060008060008060008060e0898b03121561411f57600080fd5b8835975060208901359650604089013561413881613961565b955060608901359450608089013567ffffffffffffffff81111561415b57600080fd5b6141678b828c016138cc565b999c989b5096999598969760a08701359660c0013595509350505050565b60208152600061372b6020830184613d80565b6000602082840312156141aa57600080fd5b815161372b81613961565b60208082526018908201527f4c656173653a204e6f742054727573744964206f776e65720000000000000000604082015260600190565b600181811c9082168061420057607f821691505b60208210810361422057634e487b7160e01b600052602260045260246000fd5b50919050565b634e487b7160e01b600052601160045260246000fd5b808202811582820484141761050957610509614226565b8082018082111561050957610509614226565b634e487b7160e01b600052603260045260246000fd5b601f821115610cb557600081815260208120601f850160051c810160208610156142a35750805b601f850160051c820191505b81811015610c29578281556001016142af565b67ffffffffffffffff8311156142da576142da613f03565b6142ee836142e883546141ec565b8361427c565b6000601f841160018114614322576000851561430a5750838201355b600019600387901b1c1916600186901b17835561351d565b600083815260209020601f19861690835b828110156143535786850135825560209485019460019092019101614333565b50868210156143705760001960f88860031b161c19848701351681555b505060018560011b0183555050505050565b81835281816020850137506000828201602090810191909152601f909101601f19169091010190565b838152604060208201526000613bca604083018486614382565b8381526020810183905260608101613b7c6040830184613d70565b85815284602082015260018060a01b038416604082015260806060820152600061407d608083018486614382565b600060ff821660ff810361442457614424614226565b60010192915050565b86815285602082015260ff8516604082015283606082015260a06080820152600061445c60a083018486614382565b98975050505050505050565b60208082526021908201527f4c656173653a204e6f7420616e206163746f72206f662074686973206c6561736040820152606560f81b606082015260800190565b815167ffffffffffffffff8111156144c3576144c3613f03565b6144d7816144d184546141ec565b8461427c565b602080601f83116001811461450c57600084156144f45750858301515b600019600386901b1c1916600185901b178555610c29565b600085815260208120601f198616915b8281101561453b5788860151825594840194600190910190840161451c565b50858210156145595787850151600019600388901b60f8161c191681555b5050505050600190811b01905550565b828152604060208201526000613b7c60408301846139f4565b87815286602082015260ff8616604082015284606082015283608082015260c060a082015260006145b760c083018486614382565b9998505050505050505050565b848152836020820152606060408201526000613a4c606083018486614382565b8281526040810161372b6020830184613bd3565b7f416363657373436f6e74726f6c3a206163636f756e74200000000000000000008152600083516146308160178501602088016139d0565b7001034b99036b4b9b9b4b733903937b6329607d1b60179184019182015283516146618160288401602088016139d0565b01602801949350505050565b60208152600061372b60208301846139f4565b60008161468f5761468f614226565b50600019019056fea2646970667358221220945189bf785a178a7a76f9b7c66d66138b3d03a116b104e65bcbe5a367b3c0d664736f6c63430008110033",
  "linkReferences": {},
  "deployedLinkReferences": {}
}