{
  "_format": "hh-sol-artifact-1",
  "contractName": "Lease",
  "sourceName": "contracts/Lease.sol",
  "abi": [
    {
      "inputs": [
        {
          "internalType": "address",
          "name": "_trustIdContract",
          "type": "address"
        },
        {
          "internalType": "address",
          "name": "_platformIdContract",
          "type": "address"
        }
      ],
      "stateMutability": "nonpayable",
      "type": "constructor"
    },
    {
      "anonymous": false,
      "inputs": [
        {
          "indexed": false,
          "internalType": "uint256",
          "name": "leaseId",
          "type": "uint256"
        },
        {
          "indexed": false,
          "internalType": "bool",
          "name": "cancelledByOwner",
          "type": "bool"
        },
        {
          "indexed": false,
          "internalType": "bool",
          "name": "cancelledByTenant",
          "type": "bool"
        }
      ],
      "name": "CancellationRequested",
      "type": "event"
    },
    {
      "anonymous": false,
      "inputs": [
        {
          "indexed": false,
          "internalType": "uint256",
          "name": "_platformId",
          "type": "uint256"
        },
        {
          "indexed": true,
          "internalType": "address",
          "name": "_token",
          "type": "address"
        },
        {
          "indexed": false,
          "internalType": "uint256",
          "name": "_amount",
          "type": "uint256"
        }
      ],
      "name": "FeesClaimed",
      "type": "event"
    },
    {
      "anonymous": false,
      "inputs": [
        {
          "indexed": false,
          "internalType": "uint256",
          "name": "leaseId",
          "type": "uint256"
        },
        {
          "indexed": false,
          "internalType": "uint256",
          "name": "tenantId",
          "type": "uint256"
        },
        {
          "indexed": false,
          "internalType": "uint256",
          "name": "ownerId",
          "type": "uint256"
        },
        {
          "indexed": false,
          "internalType": "uint8",
          "name": "totalNumberOfRents",
          "type": "uint8"
        },
        {
          "indexed": false,
          "internalType": "uint256",
          "name": "startDate",
          "type": "uint256"
        },
        {
          "indexed": false,
          "internalType": "uint256",
          "name": "rentPaymentInterval",
          "type": "uint256"
        },
        {
          "indexed": false,
          "internalType": "uint256",
          "name": "platformId",
          "type": "uint256"
        }
      ],
      "name": "LeaseCreated",
      "type": "event"
    },
    {
      "anonymous": false,
      "inputs": [
        {
          "indexed": false,
          "internalType": "uint256",
          "name": "leaseId",
          "type": "uint256"
        },
        {
          "indexed": false,
          "internalType": "string",
          "name": "metaData",
          "type": "string"
        }
      ],
      "name": "LeaseMetaDataUpdated",
      "type": "event"
    },
    {
      "anonymous": false,
      "inputs": [
        {
          "indexed": false,
          "internalType": "uint256",
          "name": "leaseId",
          "type": "uint256"
        },
        {
          "indexed": false,
          "internalType": "uint256",
          "name": "rentAmount",
          "type": "uint256"
        },
        {
          "indexed": false,
          "internalType": "address",
          "name": "paymentToken",
          "type": "address"
        },
        {
          "indexed": false,
          "internalType": "string",
          "name": "currencyPair",
          "type": "string"
        }
      ],
      "name": "LeasePaymentDataUpdated",
      "type": "event"
    },
    {
      "anonymous": false,
      "inputs": [
        {
          "indexed": false,
          "internalType": "uint256",
          "name": "leaseId",
          "type": "uint256"
        },
        {
          "indexed": false,
          "internalType": "string",
          "name": "reviewUri",
          "type": "string"
        }
      ],
      "name": "LeaseReviewedByOwner",
      "type": "event"
    },
    {
      "anonymous": false,
      "inputs": [
        {
          "indexed": false,
          "internalType": "uint256",
          "name": "leaseId",
          "type": "uint256"
        },
        {
          "indexed": false,
          "internalType": "string",
          "name": "reviewUri",
          "type": "string"
        }
      ],
      "name": "LeaseReviewedByTenant",
      "type": "event"
    },
    {
      "anonymous": false,
      "inputs": [
        {
          "indexed": false,
          "internalType": "uint256",
          "name": "tenantId",
          "type": "uint256"
        },
        {
          "indexed": false,
          "internalType": "uint8",
          "name": "totalNumberOfRents",
          "type": "uint8"
        },
        {
          "indexed": false,
          "internalType": "uint256",
          "name": "startDate",
          "type": "uint256"
        }
      ],
      "name": "LeaseUpdated",
      "type": "event"
    },
    {
      "anonymous": false,
      "inputs": [
        {
          "indexed": false,
          "internalType": "uint256",
          "name": "openProposalId",
          "type": "uint256"
        },
        {
          "indexed": false,
          "internalType": "uint256",
          "name": "platformId",
          "type": "uint256"
        },
        {
          "indexed": false,
          "internalType": "string",
          "name": "cid",
          "type": "string"
        }
      ],
      "name": "OpenProposalSubmitted",
      "type": "event"
    },
    {
      "anonymous": false,
      "inputs": [
        {
          "indexed": false,
          "internalType": "uint256",
          "name": "leaseId",
          "type": "uint256"
        },
        {
          "indexed": false,
          "internalType": "uint256",
          "name": "tenantId",
          "type": "uint256"
        },
        {
          "indexed": false,
          "internalType": "uint8",
          "name": "totalNumberOfRents",
          "type": "uint8"
        },
        {
          "indexed": false,
          "internalType": "uint256",
          "name": "startDate",
          "type": "uint256"
        },
        {
          "indexed": false,
          "internalType": "uint256",
          "name": "platformId",
          "type": "uint256"
        },
        {
          "indexed": false,
          "internalType": "string",
          "name": "metaData",
          "type": "string"
        }
      ],
      "name": "ProposalSubmitted",
      "type": "event"
    },
    {
      "anonymous": false,
      "inputs": [
        {
          "indexed": false,
          "internalType": "uint16",
          "name": "_protocolFeeRate",
          "type": "uint16"
        }
      ],
      "name": "ProtocolFeeRateUpdated",
      "type": "event"
    },
    {
      "anonymous": false,
      "inputs": [
        {
          "indexed": false,
          "internalType": "uint256",
          "name": "leaseId",
          "type": "uint256"
        },
        {
          "indexed": false,
          "internalType": "uint256",
          "name": "rentId",
          "type": "uint256"
        }
      ],
      "name": "RentNotPaid",
      "type": "event"
    },
    {
      "anonymous": false,
      "inputs": [
        {
          "indexed": false,
          "internalType": "uint256",
          "name": "leaseId",
          "type": "uint256"
        },
        {
          "indexed": false,
          "internalType": "uint256",
          "name": "rentId",
          "type": "uint256"
        },
        {
          "indexed": false,
          "internalType": "bool",
          "name": "withoutIssues",
          "type": "bool"
        }
      ],
      "name": "RentPaymentIssueStatusUpdated",
      "type": "event"
    },
    {
      "anonymous": false,
      "inputs": [
        {
          "indexed": true,
          "internalType": "bytes32",
          "name": "role",
          "type": "bytes32"
        },
        {
          "indexed": true,
          "internalType": "bytes32",
          "name": "previousAdminRole",
          "type": "bytes32"
        },
        {
          "indexed": true,
          "internalType": "bytes32",
          "name": "newAdminRole",
          "type": "bytes32"
        }
      ],
      "name": "RoleAdminChanged",
      "type": "event"
    },
    {
      "anonymous": false,
      "inputs": [
        {
          "indexed": true,
          "internalType": "bytes32",
          "name": "role",
          "type": "bytes32"
        },
        {
          "indexed": true,
          "internalType": "address",
          "name": "account",
          "type": "address"
        },
        {
          "indexed": true,
          "internalType": "address",
          "name": "sender",
          "type": "address"
        }
      ],
      "name": "RoleGranted",
      "type": "event"
    },
    {
      "anonymous": false,
      "inputs": [
        {
          "indexed": true,
          "internalType": "bytes32",
          "name": "role",
          "type": "bytes32"
        },
        {
          "indexed": true,
          "internalType": "address",
          "name": "account",
          "type": "address"
        },
        {
          "indexed": true,
          "internalType": "address",
          "name": "sender",
          "type": "address"
        }
      ],
      "name": "RoleRevoked",
      "type": "event"
    },
    {
      "anonymous": false,
      "inputs": [
        {
          "indexed": false,
          "internalType": "uint256",
          "name": "leaseId",
          "type": "uint256"
        },
        {
          "indexed": false,
          "internalType": "uint256",
          "name": "rentId",
          "type": "uint256"
        }
      ],
      "name": "SetRentToPending",
      "type": "event"
    },
    {
      "anonymous": false,
      "inputs": [
        {
          "indexed": false,
          "internalType": "uint256",
          "name": "leaseId",
          "type": "uint256"
        },
        {
          "indexed": false,
          "internalType": "enum Lease.LeaseStatus",
          "name": "status",
          "type": "uint8"
        }
      ],
      "name": "UpdateLeaseStatus",
      "type": "event"
    },
    {
      "inputs": [],
      "name": "DEFAULT_ADMIN_ROLE",
      "outputs": [
        {
          "internalType": "bytes32",
          "name": "",
          "type": "bytes32"
        }
      ],
      "stateMutability": "view",
      "type": "function"
    },
    {
      "inputs": [],
      "name": "PAYMENT_MANAGER_ROLE",
      "outputs": [
        {
          "internalType": "bytes32",
          "name": "",
          "type": "bytes32"
        }
      ],
      "stateMutability": "view",
      "type": "function"
    },
    {
      "inputs": [
        {
          "internalType": "uint256",
          "name": "_profileId",
          "type": "uint256"
        },
        {
          "internalType": "uint256",
          "name": "_leaseId",
          "type": "uint256"
        }
      ],
      "name": "cancelLease",
      "outputs": [],
      "stateMutability": "nonpayable",
      "type": "function"
    },
    {
      "inputs": [
        {
          "internalType": "uint256",
          "name": "_ownerId",
          "type": "uint256"
        },
        {
          "internalType": "uint256",
          "name": "_tenantId",
          "type": "uint256"
        },
        {
          "internalType": "uint256",
          "name": "_rentAmount",
          "type": "uint256"
        },
        {
          "internalType": "uint8",
          "name": "_totalNumberOfRents",
          "type": "uint8"
        },
        {
          "internalType": "address",
          "name": "_paymentToken",
          "type": "address"
        },
        {
          "internalType": "uint256",
          "name": "_rentPaymentInterval",
          "type": "uint256"
        },
        {
          "internalType": "string",
          "name": "_currencyPair",
          "type": "string"
        },
        {
          "internalType": "uint256",
          "name": "_startDate",
          "type": "uint256"
        },
        {
          "internalType": "uint256",
          "name": "_platformId",
          "type": "uint256"
        }
      ],
      "name": "createLease",
      "outputs": [
        {
          "internalType": "uint256",
          "name": "leaseId",
          "type": "uint256"
        }
      ],
      "stateMutability": "nonpayable",
      "type": "function"
    },
    {
      "inputs": [
        {
          "internalType": "uint256",
          "name": "_profileId",
          "type": "uint256"
        },
        {
          "internalType": "uint256",
          "name": "_rentAmount",
          "type": "uint256"
        },
        {
          "internalType": "address",
          "name": "_paymentToken",
          "type": "address"
        },
        {
          "internalType": "uint256",
          "name": "_rentPaymentInterval",
          "type": "uint256"
        },
        {
          "internalType": "string",
          "name": "_currencyPair",
          "type": "string"
        },
        {
          "internalType": "uint256",
          "name": "_startDate",
          "type": "uint256"
        },
        {
          "internalType": "uint256",
          "name": "_platformId",
          "type": "uint256"
        }
      ],
      "name": "createOpenLease",
      "outputs": [
        {
          "internalType": "uint256",
          "name": "",
          "type": "uint256"
        }
      ],
      "stateMutability": "nonpayable",
      "type": "function"
    },
    {
      "inputs": [
        {
          "internalType": "uint256",
          "name": "_profileId",
          "type": "uint256"
        },
        {
          "internalType": "uint256",
          "name": "_platformId",
          "type": "uint256"
        },
        {
          "internalType": "string",
          "name": "_cid",
          "type": "string"
        }
      ],
      "name": "createOpenProposal",
      "outputs": [],
      "stateMutability": "nonpayable",
      "type": "function"
    },
    {
      "inputs": [
        {
          "internalType": "uint256",
          "name": "_profileId",
          "type": "uint256"
        },
        {
          "internalType": "uint256",
          "name": "_leaseId",
          "type": "uint256"
        }
      ],
      "name": "declineLease",
      "outputs": [],
      "stateMutability": "nonpayable",
      "type": "function"
    },
    {
      "inputs": [
        {
          "internalType": "uint256",
          "name": "_leaseId",
          "type": "uint256"
        }
      ],
      "name": "getLease",
      "outputs": [
        {
          "components": [
            {
              "internalType": "uint256",
              "name": "ownerId",
              "type": "uint256"
            },
            {
              "internalType": "uint256",
              "name": "tenantId",
              "type": "uint256"
            },
            {
              "internalType": "uint8",
              "name": "totalNumberOfRents",
              "type": "uint8"
            },
            {
              "internalType": "uint256",
              "name": "rentPaymentInterval",
              "type": "uint256"
            },
            {
              "internalType": "uint256",
              "name": "startDate",
              "type": "uint256"
            },
            {
              "internalType": "string",
              "name": "metaData",
              "type": "string"
            },
            {
              "components": [
                {
                  "internalType": "uint256",
                  "name": "rentAmount",
                  "type": "uint256"
                },
                {
                  "internalType": "address",
                  "name": "paymentToken",
                  "type": "address"
                },
                {
                  "internalType": "string",
                  "name": "currencyPair",
                  "type": "string"
                }
              ],
              "internalType": "struct Lease.PaymentData",
              "name": "paymentData",
              "type": "tuple"
            },
            {
              "components": [
                {
                  "internalType": "bool",
                  "name": "ownerReviewed",
                  "type": "bool"
                },
                {
                  "internalType": "bool",
                  "name": "tenantReviewed",
                  "type": "bool"
                },
                {
                  "internalType": "string",
                  "name": "ownerReviewUri",
                  "type": "string"
                },
                {
                  "internalType": "string",
                  "name": "tenantReviewUri",
                  "type": "string"
                }
              ],
              "internalType": "struct Lease.ReviewStatus",
              "name": "reviewStatus",
              "type": "tuple"
            },
            {
              "components": [
                {
                  "internalType": "bool",
                  "name": "cancelledByOwner",
                  "type": "bool"
                },
                {
                  "internalType": "bool",
                  "name": "cancelledByTenant",
                  "type": "bool"
                }
              ],
              "internalType": "struct Lease.Cancellation",
              "name": "cancellation",
              "type": "tuple"
            },
            {
              "internalType": "enum Lease.LeaseStatus",
              "name": "status",
              "type": "uint8"
            },
            {
              "components": [
                {
                  "internalType": "uint256",
                  "name": "validationDate",
                  "type": "uint256"
                },
                {
                  "internalType": "bool",
                  "name": "withoutIssues",
                  "type": "bool"
                },
                {
                  "internalType": "int256",
                  "name": "exchangeRate",
                  "type": "int256"
                },
                {
                  "internalType": "uint256",
                  "name": "exchangeRateTimestamp",
                  "type": "uint256"
                },
                {
                  "internalType": "enum Lease.PaymentStatus",
                  "name": "paymentStatus",
                  "type": "uint8"
                }
              ],
              "internalType": "struct Lease.TransactionPayment[]",
              "name": "rentPayments",
              "type": "tuple[]"
            },
            {
              "internalType": "uint256",
              "name": "platformId",
              "type": "uint256"
            },
            {
              "internalType": "uint256",
              "name": "proposalId",
              "type": "uint256"
            }
          ],
          "internalType": "struct Lease.Lease",
          "name": "lease",
          "type": "tuple"
        }
      ],
      "stateMutability": "view",
      "type": "function"
    },
    {
      "inputs": [
        {
          "internalType": "uint256",
          "name": "_leaseId",
          "type": "uint256"
        }
      ],
      "name": "getPayments",
      "outputs": [
        {
          "components": [
            {
              "internalType": "uint256",
              "name": "validationDate",
              "type": "uint256"
            },
            {
              "internalType": "bool",
              "name": "withoutIssues",
              "type": "bool"
            },
            {
              "internalType": "int256",
              "name": "exchangeRate",
              "type": "int256"
            },
            {
              "internalType": "uint256",
              "name": "exchangeRateTimestamp",
              "type": "uint256"
            },
            {
              "internalType": "enum Lease.PaymentStatus",
              "name": "paymentStatus",
              "type": "uint8"
            }
          ],
          "internalType": "struct Lease.TransactionPayment[]",
          "name": "rentPayments",
          "type": "tuple[]"
        }
      ],
      "stateMutability": "view",
      "type": "function"
    },
    {
      "inputs": [
        {
          "internalType": "uint256",
          "name": "_leaseId",
          "type": "uint256"
        },
        {
          "internalType": "uint256",
          "name": "_ownerId",
          "type": "uint256"
        }
      ],
      "name": "getProposal",
      "outputs": [
        {
          "components": [
            {
              "internalType": "uint256",
              "name": "ownerId",
              "type": "uint256"
            },
            {
              "internalType": "uint8",
              "name": "totalNumberOfRents",
              "type": "uint8"
            },
            {
              "internalType": "uint256",
              "name": "startDate",
              "type": "uint256"
            },
            {
              "internalType": "uint256",
              "name": "platformId",
              "type": "uint256"
            },
            {
              "internalType": "string",
              "name": "metaData",
              "type": "string"
            }
          ],
          "internalType": "struct Lease.Proposal",
          "name": "proposal",
          "type": "tuple"
        }
      ],
      "stateMutability": "view",
      "type": "function"
    },
    {
      "inputs": [
        {
          "internalType": "bytes32",
          "name": "role",
          "type": "bytes32"
        }
      ],
      "name": "getRoleAdmin",
      "outputs": [
        {
          "internalType": "bytes32",
          "name": "",
          "type": "bytes32"
        }
      ],
      "stateMutability": "view",
      "type": "function"
    },
    {
      "inputs": [
        {
          "internalType": "bytes32",
          "name": "role",
          "type": "bytes32"
        },
        {
          "internalType": "address",
          "name": "account",
          "type": "address"
        }
      ],
      "name": "grantRole",
      "outputs": [],
      "stateMutability": "nonpayable",
      "type": "function"
    },
    {
      "inputs": [
        {
          "internalType": "bytes32",
          "name": "role",
          "type": "bytes32"
        },
        {
          "internalType": "address",
          "name": "account",
          "type": "address"
        }
      ],
      "name": "hasRole",
      "outputs": [
        {
          "internalType": "bool",
          "name": "",
          "type": "bool"
        }
      ],
      "stateMutability": "view",
      "type": "function"
    },
    {
      "inputs": [
        {
          "internalType": "uint256",
          "name": "_leaseId",
          "type": "uint256"
        }
      ],
      "name": "isValid",
      "outputs": [],
      "stateMutability": "view",
      "type": "function"
    },
    {
      "inputs": [
        {
          "internalType": "uint256",
          "name": "",
          "type": "uint256"
        }
      ],
      "name": "leases",
      "outputs": [
        {
          "internalType": "uint256",
          "name": "ownerId",
          "type": "uint256"
        },
        {
          "internalType": "uint256",
          "name": "tenantId",
          "type": "uint256"
        },
        {
          "internalType": "uint8",
          "name": "totalNumberOfRents",
          "type": "uint8"
        },
        {
          "internalType": "uint256",
          "name": "rentPaymentInterval",
          "type": "uint256"
        },
        {
          "internalType": "uint256",
          "name": "startDate",
          "type": "uint256"
        },
        {
          "internalType": "string",
          "name": "metaData",
          "type": "string"
        },
        {
          "components": [
            {
              "internalType": "uint256",
              "name": "rentAmount",
              "type": "uint256"
            },
            {
              "internalType": "address",
              "name": "paymentToken",
              "type": "address"
            },
            {
              "internalType": "string",
              "name": "currencyPair",
              "type": "string"
            }
          ],
          "internalType": "struct Lease.PaymentData",
          "name": "paymentData",
          "type": "tuple"
        },
        {
          "components": [
            {
              "internalType": "bool",
              "name": "ownerReviewed",
              "type": "bool"
            },
            {
              "internalType": "bool",
              "name": "tenantReviewed",
              "type": "bool"
            },
            {
              "internalType": "string",
              "name": "ownerReviewUri",
              "type": "string"
            },
            {
              "internalType": "string",
              "name": "tenantReviewUri",
              "type": "string"
            }
          ],
          "internalType": "struct Lease.ReviewStatus",
          "name": "reviewStatus",
          "type": "tuple"
        },
        {
          "components": [
            {
              "internalType": "bool",
              "name": "cancelledByOwner",
              "type": "bool"
            },
            {
              "internalType": "bool",
              "name": "cancelledByTenant",
              "type": "bool"
            }
          ],
          "internalType": "struct Lease.Cancellation",
          "name": "cancellation",
          "type": "tuple"
        },
        {
          "internalType": "enum Lease.LeaseStatus",
          "name": "status",
          "type": "uint8"
        },
        {
          "internalType": "uint256",
          "name": "platformId",
          "type": "uint256"
        },
        {
          "internalType": "uint256",
          "name": "proposalId",
          "type": "uint256"
        }
      ],
      "stateMutability": "view",
      "type": "function"
    },
    {
      "inputs": [
        {
          "internalType": "uint256",
          "name": "_profileId",
          "type": "uint256"
        },
        {
          "internalType": "uint256",
          "name": "_leaseId",
          "type": "uint256"
        },
        {
          "internalType": "uint256",
          "name": "_rentId",
          "type": "uint256"
        }
      ],
      "name": "markRentAsNotPaid",
      "outputs": [],
      "stateMutability": "nonpayable",
      "type": "function"
    },
    {
      "inputs": [
        {
          "internalType": "uint256",
          "name": "",
          "type": "uint256"
        }
      ],
      "name": "openProposals",
      "outputs": [
        {
          "internalType": "uint256",
          "name": "ownerId",
          "type": "uint256"
        },
        {
          "internalType": "enum Lease.ProposalStatus",
          "name": "status",
          "type": "uint8"
        },
        {
          "internalType": "uint256",
          "name": "platformId",
          "type": "uint256"
        },
        {
          "internalType": "string",
          "name": "cid",
          "type": "string"
        }
      ],
      "stateMutability": "view",
      "type": "function"
    },
    {
      "inputs": [
        {
          "internalType": "uint256",
          "name": "",
          "type": "uint256"
        },
        {
          "internalType": "uint256",
          "name": "",
          "type": "uint256"
        }
      ],
      "name": "proposals",
      "outputs": [
        {
          "internalType": "uint256",
          "name": "ownerId",
          "type": "uint256"
        },
        {
          "internalType": "uint8",
          "name": "totalNumberOfRents",
          "type": "uint8"
        },
        {
          "internalType": "uint256",
          "name": "startDate",
          "type": "uint256"
        },
        {
          "internalType": "uint256",
          "name": "platformId",
          "type": "uint256"
        },
        {
          "internalType": "string",
          "name": "metaData",
          "type": "string"
        }
      ],
      "stateMutability": "view",
      "type": "function"
    },
    {
      "inputs": [],
      "name": "protocolFeeRate",
      "outputs": [
        {
          "internalType": "uint16",
          "name": "",
          "type": "uint16"
        }
      ],
      "stateMutability": "view",
      "type": "function"
    },
    {
      "inputs": [
        {
          "internalType": "bytes32",
          "name": "role",
          "type": "bytes32"
        },
        {
          "internalType": "address",
          "name": "account",
          "type": "address"
        }
      ],
      "name": "renounceRole",
      "outputs": [],
      "stateMutability": "nonpayable",
      "type": "function"
    },
    {
      "inputs": [
        {
          "internalType": "uint256",
          "name": "_profileId",
          "type": "uint256"
        },
        {
          "internalType": "uint256",
          "name": "_leaseId",
          "type": "uint256"
        },
        {
          "internalType": "string",
          "name": "_reviewUri",
          "type": "string"
        }
      ],
      "name": "reviewLease",
      "outputs": [],
      "stateMutability": "nonpayable",
      "type": "function"
    },
    {
      "inputs": [
        {
          "internalType": "bytes32",
          "name": "role",
          "type": "bytes32"
        },
        {
          "internalType": "address",
          "name": "account",
          "type": "address"
        }
      ],
      "name": "revokeRole",
      "outputs": [],
      "stateMutability": "nonpayable",
      "type": "function"
    },
    {
      "inputs": [
        {
          "internalType": "uint256",
          "name": "_profileId",
          "type": "uint256"
        },
        {
          "internalType": "uint256",
          "name": "_leaseId",
          "type": "uint256"
        },
        {
          "internalType": "uint8",
          "name": "_totalNumberOfRents",
          "type": "uint8"
        },
        {
          "internalType": "uint256",
          "name": "_startDate",
          "type": "uint256"
        },
        {
          "internalType": "uint256",
          "name": "_platformId",
          "type": "uint256"
        },
        {
          "internalType": "string",
          "name": "_cid",
          "type": "string"
        }
      ],
      "name": "submitProposal",
      "outputs": [],
      "stateMutability": "nonpayable",
      "type": "function"
    },
    {
      "inputs": [
        {
          "internalType": "bytes4",
          "name": "interfaceId",
          "type": "bytes4"
        }
      ],
      "name": "supportsInterface",
      "outputs": [
        {
          "internalType": "bool",
          "name": "",
          "type": "bool"
        }
      ],
      "stateMutability": "view",
      "type": "function"
    },
    {
      "inputs": [
        {
          "internalType": "uint256",
          "name": "_profileId",
          "type": "uint256"
        },
        {
          "internalType": "uint256",
          "name": "_leaseId",
          "type": "uint256"
        },
        {
          "internalType": "string",
          "name": "_newCid",
          "type": "string"
        }
      ],
      "name": "updateLeaseMetaData",
      "outputs": [],
      "stateMutability": "nonpayable",
      "type": "function"
    },
    {
      "inputs": [],
      "name": "updateOpenProposal",
      "outputs": [],
      "stateMutability": "nonpayable",
      "type": "function"
    },
    {
      "inputs": [],
      "name": "updateProposal",
      "outputs": [],
      "stateMutability": "nonpayable",
      "type": "function"
    },
    {
      "inputs": [
        {
          "internalType": "uint16",
          "name": "_protocolFeeRate",
          "type": "uint16"
        }
      ],
      "name": "updateProtocolFeeRate",
      "outputs": [],
      "stateMutability": "nonpayable",
      "type": "function"
    },
    {
      "inputs": [
        {
          "internalType": "uint256",
          "name": "_profileId",
          "type": "uint256"
        },
        {
          "internalType": "uint256",
          "name": "_leaseId",
          "type": "uint256"
        }
      ],
      "name": "validateLease",
      "outputs": [],
      "stateMutability": "nonpayable",
      "type": "function"
    },
    {
      "inputs": [
        {
          "internalType": "uint256",
          "name": "_profileId",
          "type": "uint256"
        },
        {
          "internalType": "uint256",
          "name": "_tenantId",
          "type": "uint256"
        },
        {
          "internalType": "uint256",
          "name": "_leaseId",
          "type": "uint256"
        }
      ],
      "name": "validateProposal",
      "outputs": [],
      "stateMutability": "nonpayable",
      "type": "function"
    },
    {
      "inputs": [
        {
          "internalType": "uint256",
          "name": "_leaseId",
          "type": "uint256"
        },
        {
          "internalType": "uint256",
          "name": "_rentId",
          "type": "uint256"
        },
        {
          "internalType": "bool",
          "name": "_withoutIssues",
          "type": "bool"
        }
      ],
      "name": "validateRentPayment",
      "outputs": [],
      "stateMutability": "nonpayable",
      "type": "function"
    }
  ],
  "bytecode": "0x60806040526003805460ff191660c81790553480156200001e57600080fd5b5060405162004a3d38038062004a3d833981016040819052620000419162000459565b620000586001620000a960201b6200305b1760201c565b62000065600033620000b2565b600780546001600160a01b038085166001600160a01b0319928316179092556008805492841692909116919091179055620000a16064620000c2565b5050620005f1565b80546001019055565b620000be828262000126565b5050565b6000620000cf81620001ae565b6008805461ffff60a01b1916600160a01b61ffff8516908102919091179091556040519081527f1b89f70e2fb3771e6a9f5cd2d2ad3439b823b67e0e69bdeb89b7d68a35fdd5c99060200160405180910390a15050565b620001328282620001bd565b620000be576000828152602081815260408083206001600160a01b03851684529091529020805460ff191660011790556200016a3390565b6001600160a01b0316816001600160a01b0316837f2f8788117e7eff1d82e926ec794901d17c78024a50270940304540a733656f0d60405160405180910390a45050565b620001ba8133620001e8565b50565b6000828152602081815260408083206001600160a01b038516845290915290205460ff165b92915050565b620001f48282620001bd565b620000be576200020f816200026960201b620030641760201c565b62000225836020620030766200027c821b17811c565b60405160200162000238929190620004b7565b60408051601f198184030181529082905262461bcd60e51b8252620002609160040162000530565b60405180910390fd5b6060620001e26001600160a01b03831660145b606060006200028d8360026200057b565b6200029a90600262000595565b6001600160401b03811115620002b457620002b4620005ab565b6040519080825280601f01601f191660200182016040528015620002df576020820181803683370190505b509050600360fc1b81600081518110620002fd57620002fd620005c1565b60200101906001600160f81b031916908160001a905350600f60fb1b816001815181106200032f576200032f620005c1565b60200101906001600160f81b031916908160001a9053506000620003558460026200057b565b6200036290600162000595565b90505b6001811115620003e4576f181899199a1a9b1b9c1cb0b131b232b360811b85600f16601081106200039a576200039a620005c1565b1a60f81b828281518110620003b357620003b3620005c1565b60200101906001600160f81b031916908160001a90535060049490941c93620003dc81620005d7565b905062000365565b508315620004355760405162461bcd60e51b815260206004820181905260248201527f537472696e67733a20686578206c656e67746820696e73756666696369656e74604482015260640162000260565b9392505050565b80516001600160a01b03811681146200045457600080fd5b919050565b600080604083850312156200046d57600080fd5b62000478836200043c565b915062000488602084016200043c565b90509250929050565b60005b83811015620004ae57818101518382015260200162000494565b50506000910152565b7f416363657373436f6e74726f6c3a206163636f756e7420000000000000000000815260008351620004f181601785016020880162000491565b7001034b99036b4b9b9b4b733903937b6329607d1b60179184019182015283516200052481602884016020880162000491565b01602801949350505050565b60208152600082518060208401526200055181604085016020870162000491565b601f01601f19169190910160400192915050565b634e487b7160e01b600052601160045260246000fd5b8082028115828204841417620001e257620001e262000565565b80820180821115620001e257620001e262000565565b634e487b7160e01b600052604160045260246000fd5b634e487b7160e01b600052603260045260246000fd5b600081620005e957620005e962000565565b506000190190565b61443c80620006016000396000f3fe608060405234801561001057600080fd5b50600436106101e55760003560e01c806391d148541161010f578063c2cfee27116100a2578063ee5194ad11610071578063ee5194ad14610225578063f577a5001461047e578063fb9e6ab114610491578063fe365199146104a457600080fd5b8063c2cfee2714610421578063d547741f14610445578063dba4703314610458578063e84437951461046b57600080fd5b8063a27e1aac116100de578063a27e1aac146103c8578063aba21009146103db578063baad51eb146103fb578063c2410d1c1461040e57600080fd5b806391d148541461037a5780639a9f56b71461038d5780639f44657c146103a0578063a217fddf146103c057600080fd5b806358f858801161018757806375649a421161015657806375649a421461031657806377d8434f146103295780638927a1061461033c5780638fd5cee71461036757600080fd5b806358f85880146102b457806359183f00146102dc57806359b6e8621461022557806363305b601461030357600080fd5b80632f2ff15d116101c35780632f2ff15d1461025857806336568abe1461026b5780633ba2b7c31461027e57806346e897871461029157600080fd5b806301ffc9a7146101ea5780631a8cfa0514610212578063248a9ca314610227575b600080fd5b6101fd6101f83660046136fa565b6104c4565b60405190151581526020015b60405180910390f35b610225610220366004613724565b6104fb565b005b61024a610235366004613750565b60009081526020819052604090206001015490565b604051908152602001610209565b61022561026636600461377e565b610c57565b61022561027936600461377e565b610c81565b61022561028c3660046137ae565b610cff565b6102a461029f366004613750565b610d62565b6040516102099493929190613838565b6008546102c990600160a01b900461ffff1681565b60405161ffff9091168152602001610209565b61024a7fa624ddbc4fb31a463e13e6620d62eeaf14248f89110a7fda32b4048499c999a681565b610225610311366004613877565b610e19565b61024a610324366004613914565b610eb0565b610225610337366004613724565b6111b2565b61034f61034a366004613750565b61156f565b6040516102099c9b9a99989796959493929190613a51565b610225610375366004613af8565b611887565b6101fd61038836600461377e565b611b4d565b61022561039b366004613b4b565b611b76565b6103b36103ae366004613750565b611d42565b6040516102099190613be4565b61024a600081565b6102256103d6366004613d0a565b6121ac565b6103ee6103e9366004613b4b565b6122e6565b6040516102099190613dce565b610225610409366004613e14565b612408565b61022561041c366004613b4b565b6125b9565b61043461042f366004613b4b565b61291f565b604051610209959493929190613e8f565b61022561045336600461377e565b6129e7565b610225610466366004613af8565b612a0c565b61024a610479366004613ec8565b612ba6565b61022561048c366004613750565b612da2565b61022561049f366004613b4b565b612df6565b6104b76104b2366004613750565b612f88565b6040516102099190613f4a565b60006001600160e01b03198216637965db0b60e01b14806104f557506301ffc9a760e01b6001600160e01b03198316145b92915050565b6007546040516331a9108f60e11b815260048101859052849133916001600160a01b0390911690636352211e90602401602060405180830381865afa158015610548573d6000803e3d6000fd5b505050506040513d601f19601f8201168201806040525081019061056c9190613f5d565b6001600160a01b03161461059b5760405162461bcd60e51b815260040161059290613f7a565b60405180910390fd5b6105a483612da2565b600083815260046020818152604080842081516101a08101835281548152600182015493810193909352600281015460ff16918301919091526003810154606083015291820154608082015260058201805491929160a08401919061060890613fb1565b80601f016020809104026020016040519081016040528092919081815260200182805461063490613fb1565b80156106815780601f1061065657610100808354040283529160200191610681565b820191906000526020600020905b81548152906001019060200180831161066457829003601f168201915b5050505050815260200160068201604051806060016040529081600082015481526020016001820160009054906101000a90046001600160a01b03166001600160a01b03166001600160a01b031681526020016002820180546106e390613fb1565b80601f016020809104026020016040519081016040528092919081815260200182805461070f90613fb1565b801561075c5780601f106107315761010080835404028352916020019161075c565b820191906000526020600020905b81548152906001019060200180831161073f57829003601f168201915b5050509190925250505081526040805160808101825260098401805460ff80821615158452610100909104161515602083810191909152600a8601805491909501949293919291840191906107b090613fb1565b80601f01602080910402602001604051908101604052809291908181526020018280546107dc90613fb1565b80156108295780601f106107fe57610100808354040283529160200191610829565b820191906000526020600020905b81548152906001019060200180831161080c57829003601f168201915b5050505050815260200160028201805461084290613fb1565b80601f016020809104026020016040519081016040528092919081815260200182805461086e90613fb1565b80156108bb5780601f10610890576101008083540402835291602001916108bb565b820191906000526020600020905b81548152906001019060200180831161089e57829003601f168201915b505050919092525050508152604080518082018252600c84015460ff8082161515835261010090910481161515602083810191909152840191909152600d8401549190920191166003811115610913576109136137d2565b6003811115610924576109246137d2565b8152602001600e8201805480602002602001604051908101604052809291908181526020016000905b828210156109e25760008481526020908190206040805160a0810182526005860290920180548352600181015460ff9081161515948401949094526002810154918301919091526003810154606083015260048082015492939192608085019216908111156109be576109be6137d2565b60048111156109cf576109cf6137d2565b815250508152602001906001019061094d565b505050508152602001600f8201548152602001601082015481525050905084816000015114610a695760405162461bcd60e51b815260206004820152602d60248201527f4c656173653a204f6e6c7920746865206f776e65722063616e20706572666f7260448201526c36903a3434b99030b1ba34b7b760991b6064820152608401610592565b60008161012001516003811115610a8257610a826137d2565b14610acf5760405162461bcd60e51b815260206004820152601a60248201527f4c656173653a204c65617365206973206e6f74204163746976650000000000006044820152606401610592565b828160600151610adf9190614001565b81606001518260800151610af39190614018565b610afd9190614018565b4211610b575760405162461bcd60e51b815260206004820152602360248201527f4c656173653a2054656e616e74207374696c6c206861732074696d6520746f2060448201526270617960e81b6064820152608401610592565b60008161014001518481518110610b7057610b7061402b565b6020026020010151905060016004811115610b8d57610b8d6137d2565b81608001516004811115610ba357610ba36137d2565b03610c005760405162461bcd60e51b815260206004820152602760248201527f4c656173653a205061796d656e74207374617475732073686f756c642062652060448201526650454e44494e4760c81b6064820152608401610592565b610c0c85856002613219565b610c158561327d565b60408051868152602081018690527f8a48384a753a3a92bbdcacebf90d2d87eea4a405a9cb061c063ee91313fa3fe191015b60405180910390a1505050505050565b600082815260208190526040902060010154610c7281613346565b610c7c8383613350565b505050565b6001600160a01b0381163314610cf15760405162461bcd60e51b815260206004820152602f60248201527f416363657373436f6e74726f6c3a2063616e206f6e6c792072656e6f756e636560448201526e103937b632b9903337b91039b2b63360891b6064820152608401610592565b610cfb82826133d4565b5050565b6000610d0a81613346565b6008805461ffff60a01b1916600160a01b61ffff8516908102919091179091556040519081527f1b89f70e2fb3771e6a9f5cd2d2ad3439b823b67e0e69bdeb89b7d68a35fdd5c9906020015b60405180910390a15050565b6006602052600090815260409020805460018201546002830154600384018054939460ff90931693919291610d9690613fb1565b80601f0160208091040260200160405190810160405280929190818152602001828054610dc290613fb1565b8015610e0f5780601f10610de457610100808354040283529160200191610e0f565b820191906000526020600020905b815481529060010190602001808311610df257829003601f168201915b5050505050905084565b7fa624ddbc4fb31a463e13e6620d62eeaf14248f89110a7fda32b4048499c999a6610e4381613346565b6000848152600460205260408120600e01805485908110610e6657610e6661402b565b6000918252602090912060059091020160048101805491925060019160ff19168280021790555060018101805460ff1916841515179055428155610ea98561327d565b5050505050565b6007546040516331a9108f60e11b8152600481018c90526000918c9133916001600160a01b031690636352211e90602401602060405180830381865afa158015610efe573d6000803e3d6000fd5b505050506040513d601f19601f82011682018060405250810190610f229190613f5d565b6001600160a01b031614610f485760405162461bcd60e51b815260040161059290613f7a565b600060046000610f5760015490565b815260208101919091526040016000208d8155600181018d9055600681018c905560028101805460ff191660ff8d161790556007810180546001600160a01b0319166001600160a01b038c16179055905060088101610fb7878983614087565b506003810188905560048101859055600d8101805460ff19166001179055600f810184905560005b600282015460ff90811690821610156110c15781600e016040518060a0016040528060008152602001600015158152602001600081526020016000815260200160006004811115611032576110326137d2565b90528154600181810184556000938452602093849020835160059093020191825592820151818401805491151560ff199283161790556040830151600283015560608301516003830155608083015160048084018054959694959294909392909216919084908111156110a7576110a76137d2565b0217905550505080806110b990614147565b915050610fdf565b507f689bbfd861d458fae2fc1b113460631439017d8e1083e7030adf64fecd8d861c6110ec60015490565b8d83600001548d898d8a60405161113797969594939291909687526020870195909552604086019390935260ff919091166060850152608084015260a083015260c082015260e00190565b60405180910390a17fa7f448dfd64b32b9afdf7f1f74a71c1c21d126f2d79fd12632da3a4a53b064a061116960015490565b8c8b8a8a60405161117e95949392919061418f565b60405180910390a1600061119160015490565b90506111a1600180546001019055565b9d9c50505050505050505050505050565b6007546040516331a9108f60e11b815260048101859052849133916001600160a01b0390911690636352211e90602401602060405180830381865afa1580156111ff573d6000803e3d6000fd5b505050506040513d601f19601f820116820180604052508101906112239190613f5d565b6001600160a01b0316146112495760405162461bcd60e51b815260040161059290613f7a565b6000828152600460205260409020805485146112b75760405162461bcd60e51b815260206004820152602760248201527f4c656173653a204f6e6c79206f776e65722063616e2076616c696461746520706044820152661c9bdc1bdcd85b60ca1b6064820152608401610592565b6001600d82015460ff1660038111156112d2576112d26137d2565b1461131a5760405162461bcd60e51b81526020600482015260186024820152772632b0b9b29d102632b0b9b29034b9903737ba1037b832b760411b6044820152606401610592565b60008381526005602090815260408083208784528252808320815160a08101835281548152600182015460ff16938101939093526002810154918301919091526003810154606083015260048101805460808401919061137990613fb1565b80601f01602080910402602001604051908101604052809291908181526020018280546113a590613fb1565b80156113f25780601f106113c7576101008083540402835291602001916113f2565b820191906000526020600020905b8154815290600101906020018083116113d557829003601f168201915b5050509190925250508151600185015550602081015160028401805460ff191660ff9092169190911790556040810151600484015560108301869055905060005b600283015460ff90811690821610156115155782600e016040518060a0016040528060008152602001600015158152602001600081526020016000815260200160006004811115611486576114866137d2565b90528154600181810184556000938452602093849020835160059093020191825592820151818401805491151560ff199283161790556040830151600283015560608301516003830155608083015160048084018054959694959294909392909216919084908111156114fb576114fb6137d2565b02179055505050808061150d90614147565b915050611433565b50600d8201805460ff19169055602080820151604080840151815189815260ff909316938301939093528101919091527f6b684092f15b290a7b8b194ce992d854b9645a4743d9cf5dba8aefed2557799090606001610c47565b60046020819052600091825260409091208054600182015460028301546003840154948401546005850180549496939560ff909316949192916115b190613fb1565b80601f01602080910402602001604051908101604052809291908181526020018280546115dd90613fb1565b801561162a5780601f106115ff5761010080835404028352916020019161162a565b820191906000526020600020905b81548152906001019060200180831161160d57829003601f168201915b505060408051606081018252600687018054825260078801546001600160a01b03166020830152600888018054979897929650909450918501925061166e90613fb1565b80601f016020809104026020016040519081016040528092919081815260200182805461169a90613fb1565b80156116e75780601f106116bc576101008083540402835291602001916116e7565b820191906000526020600020905b8154815290600101906020018083116116ca57829003601f168201915b5050509190925250506040805160808101825260098501805460ff808216151584526101009091041615156020830152600a86018054959695929450909284019161173190613fb1565b80601f016020809104026020016040519081016040528092919081815260200182805461175d90613fb1565b80156117aa5780601f1061177f576101008083540402835291602001916117aa565b820191906000526020600020905b81548152906001019060200180831161178d57829003601f168201915b505050505081526020016002820180546117c390613fb1565b80601f01602080910402602001604051908101604052809291908181526020018280546117ef90613fb1565b801561183c5780601f106118115761010080835404028352916020019161183c565b820191906000526020600020905b81548152906001019060200180831161181f57829003601f168201915b50505091909252505060408051808201909152600c84015460ff80821615158352610100909104811615156020830152600d850154600f86015460109096015494959294911692508c565b6007546040516331a9108f60e11b815260048101869052859133916001600160a01b0390911690636352211e90602401602060405180830381865afa1580156118d4573d6000803e3d6000fd5b505050506040513d601f19601f820116820180604052508101906118f89190613f5d565b6001600160a01b03161461191e5760405162461bcd60e51b815260040161059290613f7a565b61192784612da2565b600084815260046020526040902080548614806119475750806001015486145b6119635760405162461bcd60e51b8152600401610592906141bd565b6002600d82015460ff16600381111561197e5761197e6137d2565b146119d65760405162461bcd60e51b815260206004820152602260248201527f4c656173653a204c65617365206973207374696c6c206e6f742066696e697368604482015261195960f21b6064820152608401610592565b80600101548603611a9d576009810154610100900460ff1615611a3b5760405162461bcd60e51b815260206004820152601e60248201527f4c656173653a2054656e616e7420616c726561647920726576696577656400006044820152606401610592565b600b8101611a4a848683614087565b5060098101805461ff0019166101001790556040517fb1da3f3ff6eac58d60d1b070cb3492689e359cff627a6734122e87ab715f0e7d90611a90908790879087906141fe565b60405180910390a1611b45565b600981015460ff1615611af25760405162461bcd60e51b815260206004820152601d60248201527f4c656173653a204f776e657220616c72656164792072657669657765640000006044820152606401610592565b600a8101611b01848683614087565b5060098101805460ff191660011790556040517f71142bb90445786375b9189a6d9e4245797ccde8572f008946b95514842c95ab90610c47908790879087906141fe565b505050505050565b6000918252602082815260408084206001600160a01b0393909316845291905290205460ff1690565b6007546040516331a9108f60e11b815260048101849052839133916001600160a01b0390911690636352211e90602401602060405180830381865afa158015611bc3573d6000803e3d6000fd5b505050506040513d601f19601f82011682018060405250810190611be79190613f5d565b6001600160a01b031614611c0d5760405162461bcd60e51b815260040161059290613f7a565b611c1682612da2565b600082815260046020526040902060018101548414611c8d5760405162461bcd60e51b815260206004820152602d60248201527f4c656173653a204f6e6c79207468652074656e616e742063616e2063616c6c2060448201526c3a3434b990333ab731ba34b7b760991b6064820152608401610592565b6001600d82015460ff166003811115611ca857611ca86137d2565b14611cf55760405162461bcd60e51b815260206004820152601b60248201527f4c656173653a204c65617365206973206e6f742070656e64696e6700000000006044820152606401610592565b600d8101805460ff191690556040517fdb63439c118f1d1f76128d4db22b1d385eb21fdf197e5f27bb3b349b3fba978190611d34908590600090614218565b60405180910390a150505050565b611d4a613618565b60008281526004602081815260409283902083516101a08101855281548152600182015492810192909252600281015460ff16938201939093526003830154606082015290820154608082015260058201805491929160a084019190611daf90613fb1565b80601f0160208091040260200160405190810160405280929190818152602001828054611ddb90613fb1565b8015611e285780601f10611dfd57610100808354040283529160200191611e28565b820191906000526020600020905b815481529060010190602001808311611e0b57829003601f168201915b5050505050815260200160068201604051806060016040529081600082015481526020016001820160009054906101000a90046001600160a01b03166001600160a01b03166001600160a01b03168152602001600282018054611e8a90613fb1565b80601f0160208091040260200160405190810160405280929190818152602001828054611eb690613fb1565b8015611f035780601f10611ed857610100808354040283529160200191611f03565b820191906000526020600020905b815481529060010190602001808311611ee657829003601f168201915b5050509190925250505081526040805160808101825260098401805460ff80821615158452610100909104161515602083810191909152600a860180549190950194929391929184019190611f5790613fb1565b80601f0160208091040260200160405190810160405280929190818152602001828054611f8390613fb1565b8015611fd05780601f10611fa557610100808354040283529160200191611fd0565b820191906000526020600020905b815481529060010190602001808311611fb357829003601f168201915b50505050508152602001600282018054611fe990613fb1565b80601f016020809104026020016040519081016040528092919081815260200182805461201590613fb1565b80156120625780601f1061203757610100808354040283529160200191612062565b820191906000526020600020905b81548152906001019060200180831161204557829003601f168201915b505050919092525050508152604080518082018252600c84015460ff8082161515835261010090910481161515602083810191909152840191909152600d84015491909201911660038111156120ba576120ba6137d2565b60038111156120cb576120cb6137d2565b8152602001600e8201805480602002602001604051908101604052809291908181526020016000905b828210156121895760008481526020908190206040805160a0810182526005860290920180548352600181015460ff908116151594840194909452600281015491830191909152600381015460608301526004808201549293919260808501921690811115612165576121656137d2565b6004811115612176576121766137d2565b81525050815260200190600101906120f4565b505050508152602001600f82015481526020016010820154815250509050919050565b6007546040516331a9108f60e11b815260048101859052849133916001600160a01b0390911690636352211e90602401602060405180830381865afa1580156121f9573d6000803e3d6000fd5b505050506040513d601f19601f8201168201806040525081019061221d9190613f5d565b6001600160a01b0316146122435760405162461bcd60e51b815260040161059290613f7a565b8151602e146122895760405162461bcd60e51b81526020600482015260126024820152711319585cd94e88125b9d985b1a590818da5960721b6044820152606401610592565b6000838152600460205260409020600581016122a5848261422c565b507f4b8571ba3c599c27b0b809fecc20d64cdc3c968443607ed2911be496ff33d18b84846040516122d79291906142ec565b60405180910390a15050505050565b61231b6040518060a0016040528060008152602001600060ff1681526020016000815260200160008152602001606081525090565b6000838152600560209081526040808320858452825291829020825160a08101845281548152600182015460ff16928101929092526002810154928201929092526003820154606082015260048201805491929160808401919061237e90613fb1565b80601f01602080910402602001604051908101604052809291908181526020018280546123aa90613fb1565b80156123f75780601f106123cc576101008083540402835291602001916123f7565b820191906000526020600020905b8154815290600101906020018083116123da57829003601f168201915b505050505081525050905092915050565b6007546040516331a9108f60e11b815260048101899052889133916001600160a01b0390911690636352211e90602401602060405180830381865afa158015612455573d6000803e3d6000fd5b505050506040513d601f19601f820116820180604052508101906124799190613f5d565b6001600160a01b03161461249f5760405162461bcd60e51b815260040161059290613f7a565b6124ab87898585613439565b6040518060a001604052808981526020018760ff16815260200186815260200185815260200184848080601f01602080910402602001604051908101604052809392919081815260200183838082843760009201829052509390945250508981526005602090815260408083208d8452825291829020845181559084015160018201805460ff191660ff9092169190911790559083015160028201556060830151600382015560808301519091506004820190612568908261422c565b509050507f671284cc916e24514e3cfd9035c01c2613ce98a2cbc26e7da95c7227ae581fc9878988888888886040516125a79796959493929190614305565b60405180910390a15050505050505050565b6007546040516331a9108f60e11b815260048101849052839133916001600160a01b0390911690636352211e90602401602060405180830381865afa158015612606573d6000803e3d6000fd5b505050506040513d601f19601f8201168201806040525081019061262a9190613f5d565b6001600160a01b0316146126505760405162461bcd60e51b815260040161059290613f7a565b6001548211156126995760405162461bcd60e51b81526020600482015260146024820152731319585cd948191bd95cc81b9bdd08195e1a5cdd60621b6044820152606401610592565b600082815260046020526040902080548414806126b95750806001015484145b6126d55760405162461bcd60e51b8152600401610592906141bd565b6000600d82015460ff1660038111156126f0576126f06137d2565b146127335760405162461bcd60e51b81526020600482015260136024820152724c65617365206973206e6f742041637469766560681b6044820152606401610592565b805484036127a457600c81015460ff16156127905760405162461bcd60e51b815260206004820181905260248201527f4c6561736520616c72656164792063616e63656c6c6564206279206f776e65726044820152606401610592565b600c8101805460ff1916600117905561281a565b600c810154610100900460ff16156128085760405162461bcd60e51b815260206004820152602160248201527f4c6561736520616c72656164792063616e63656c6c65642062792074656e616e6044820152601d60fa1b6064820152608401610592565b600c8101805461ff0019166101001790555b600c8101546040805185815260ff80841615156020830152610100909304909216151582820152517f738d90be22c218d95c6514e34f1295c6dbfe8bf4ad7b28af5894cb05991a6d6b9181900360600190a1600c81015460ff1680156128895750600c810154610100900460ff165b156129195760005b600282015460ff908116908216101561290f57600082600e018260ff16815481106128be576128be61402b565b600091825260208220600590910201915060048083015460ff16908111156128e8576128e86137d2565b036128fc576128fc858360ff166003613219565b508061290781614147565b915050612891565b506129198361327d565b50505050565b600560209081526000928352604080842090915290825290208054600182015460028301546003840154600485018054949560ff909416949293919261296490613fb1565b80601f016020809104026020016040519081016040528092919081815260200182805461299090613fb1565b80156129dd5780601f106129b2576101008083540402835291602001916129dd565b820191906000526020600020905b8154815290600101906020018083116129c057829003601f168201915b5050505050905085565b600082815260208190526040902060010154612a0281613346565b610c7c83836133d4565b6007546040516331a9108f60e11b815260048101869052859133916001600160a01b0390911690636352211e90602401602060405180830381865afa158015612a59573d6000803e3d6000fd5b505050506040513d601f19601f82011682018060405250810190612a7d9190613f5d565b6001600160a01b031614612aa35760405162461bcd60e51b815260040161059290613f7a565b6000612aae60025490565b6040805160808101909152878152909150602081016000815260200186815260200185858080601f0160208091040260200160405190810160405280939291908181526020018383808284376000920182905250939094525050838152600660209081526040909120835181559083015160018083018054939450919260ff191690836002811115612b4257612b426137d2565b02179055506040820151600282015560608201516003820190612b65908261422c565b5050600280546001019055507f74bdc926bde0d060c4bb32e56a70f56fe8f7f8ea6c1191f7989f0bc7fb30e78f81868686604051610c479493929190614347565b6007546040516331a9108f60e11b8152600481018a90526000918a9133916001600160a01b031690636352211e90602401602060405180830381865afa158015612bf4573d6000803e3d6000fd5b505050506040513d601f19601f82011682018060405250810190612c189190613f5d565b6001600160a01b031614612c3e5760405162461bcd60e51b815260040161059290613f7a565b600060046000612c4d60015490565b8152602081019190915260400160009081208c81556001810191909155600681018b905560028101805460ff191690556007810180546001600160a01b0319166001600160a01b038c16179055905060088101612cab878983614087565b506003810188905560048101859055600d8101805460ff19166001908117909155600f8201859055547f689bbfd861d458fae2fc1b113460631439017d8e1083e7030adf64fecd8d861c90604080519182526000602083018190529082018e905260608201526080810187905260a081018a905260c0810186905260e00160405180910390a17fa7f448dfd64b32b9afdf7f1f74a71c1c21d126f2d79fd12632da3a4a53b064a0612d5b60015490565b8b8b8a8a604051612d7095949392919061418f565b60405180910390a16000612d8360015490565b9050612d93600180546001019055565b9b9a5050505050505050505050565b600081118015612db457506001548111155b612df35760405162461bcd60e51b815260206004820152601060248201526f125b9d985b1a59081b19585cd948125160821b6044820152606401610592565b50565b6007546040516331a9108f60e11b815260048101849052839133916001600160a01b0390911690636352211e90602401602060405180830381865afa158015612e43573d6000803e3d6000fd5b505050506040513d601f19601f82011682018060405250810190612e679190613f5d565b6001600160a01b031614612e8d5760405162461bcd60e51b815260040161059290613f7a565b612e9682612da2565b60008281526004602052604090208054841480612eb65750806001015484145b612ed25760405162461bcd60e51b8152600401610592906141bd565b6001600d82015460ff166003811115612eed57612eed6137d2565b14612f455760405162461bcd60e51b815260206004820152602260248201527f4c656173653a204c656173652077617320616c72656164792076616c69646174604482015261195960f21b6064820152608401610592565b600d8101805460ff191660039081179091556040517fdb63439c118f1d1f76128d4db22b1d385eb21fdf197e5f27bb3b349b3fba978191611d3491869190614218565b6000818152600460209081526040808320600e8101805483518186028101860190945280845260609592949192909184015b8282101561304f5760008481526020908190206040805160a0810182526005860290920180548352600181015460ff90811615159484019490945260028101549183019190915260038101546060830152600480820154929391926080850192169081111561302b5761302b6137d2565b600481111561303c5761303c6137d2565b8152505081526020019060010190612fba565b50505050915050919050565b80546001019055565b60606104f56001600160a01b03831660145b60606000613085836002614001565b613090906002614018565b67ffffffffffffffff8111156130a8576130a8613cf4565b6040519080825280601f01601f1916602001820160405280156130d2576020820181803683370190505b509050600360fc1b816000815181106130ed576130ed61402b565b60200101906001600160f81b031916908160001a905350600f60fb1b8160018151811061311c5761311c61402b565b60200101906001600160f81b031916908160001a9053506000613140846002614001565b61314b906001614018565b90505b60018111156131c3576f181899199a1a9b1b9c1cb0b131b232b360811b85600f166010811061317f5761317f61402b565b1a60f81b8282815181106131955761319561402b565b60200101906001600160f81b031916908160001a90535060049490941c936131bc81614367565b905061314e565b5083156132125760405162461bcd60e51b815260206004820181905260248201527f537472696e67733a20686578206c656e67746820696e73756666696369656e746044820152606401610592565b9392505050565b6000838152600460205260408120600e0180548490811061323c5761323c61402b565b90600052602060002090600502019050818160040160006101000a81548160ff02191690836004811115613272576132726137d2565b021790555050505050565b6000818152600460205260408120905b600282015460ff908116908216101561330257600082600e018260ff16815481106132ba576132ba61402b565b600091825260208220600590910201915060048083015460ff16908111156132e4576132e46137d2565b036132ef5750505050565b50806132fa81614147565b91505061328d565b50600d8101805460ff191660029081179091556040517fdb63439c118f1d1f76128d4db22b1d385eb21fdf197e5f27bb3b349b3fba978191610d5691859190614218565b612df381336135bf565b61335a8282611b4d565b610cfb576000828152602081815260408083206001600160a01b03851684529091529020805460ff191660011790556133903390565b6001600160a01b0316816001600160a01b0316837f2f8788117e7eff1d82e926ec794901d17c78024a50270940304540a733656f0d60405160405180910390a45050565b6133de8282611b4d565b15610cfb576000828152602081815260408083206001600160a01b0385168085529252808320805460ff1916905551339285917ff6391f5c32d9c69d2a47ea670b442974b53935d1edc7fd64eb21e047a839171b9190a45050565b60008481526004602052604090206001600d82015460ff166003811115613462576134626137d2565b146134aa5760405162461bcd60e51b81526020600482015260186024820152772632b0b9b29d102632b0b9b29034b9903737ba1037b832b760411b6044820152606401610592565b602e82146134ef5760405162461bcd60e51b81526020600482015260126024820152711319585cd94e88125b9d985b1a590818da5960721b6044820152606401610592565b805484900361354c5760405162461bcd60e51b815260206004820152602360248201527f4c656173653a204f776e65722063616e6e6f74207375626d69742070726f706f6044820152621cd85b60ea1b6064820152608401610592565b6000858152600560209081526040808320878452909152902054849003610ea95760405162461bcd60e51b815260206004820152602160248201527f4c656173653a2050726f706f73616c20616c7265616479207375626d697474656044820152601960fa1b6064820152608401610592565b6135c98282611b4d565b610cfb576135d681613064565b6135e1836020613076565b6040516020016135f292919061437e565b60408051601f198184030181529082905262461bcd60e51b8252610592916004016143f3565b604051806101a001604052806000815260200160008152602001600060ff16815260200160008152602001600081526020016060815260200161367e60405180606001604052806000815260200160006001600160a01b03168152602001606081525090565b81526020016136b2604051806080016040528060001515815260200160001515815260200160608152602001606081525090565b81526020016136d860405180604001604052806000151581526020016000151581525090565b8152602001600081526020016060815260200160008152602001600081525090565b60006020828403121561370c57600080fd5b81356001600160e01b03198116811461321257600080fd5b60008060006060848603121561373957600080fd5b505081359360208301359350604090920135919050565b60006020828403121561376257600080fd5b5035919050565b6001600160a01b0381168114612df357600080fd5b6000806040838503121561379157600080fd5b8235915060208301356137a381613769565b809150509250929050565b6000602082840312156137c057600080fd5b813561ffff8116811461321257600080fd5b634e487b7160e01b600052602160045260246000fd5b60005b838110156138035781810151838201526020016137eb565b50506000910152565b600081518084526138248160208601602086016137e8565b601f01601f19169290920160200192915050565b84815260006003851061384d5761384d6137d2565b8460208301528360408301526080606083015261386d608083018461380c565b9695505050505050565b60008060006060848603121561388c57600080fd5b8335925060208401359150604084013580151581146138aa57600080fd5b809150509250925092565b803560ff811681146138c657600080fd5b919050565b60008083601f8401126138dd57600080fd5b50813567ffffffffffffffff8111156138f557600080fd5b60208301915083602082850101111561390d57600080fd5b9250929050565b6000806000806000806000806000806101208b8d03121561393457600080fd5b8a35995060208b0135985060408b0135975061395260608c016138b5565b965060808b013561396281613769565b955060a08b0135945060c08b013567ffffffffffffffff81111561398557600080fd5b6139918d828e016138cb565b9b9e9a9d50989b979a969995989760e0810135966101009091013595509350505050565b8051825260018060a01b03602082015116602083015260006040820151606060408501526139e6606085018261380c565b949350505050565b8051151582526020810151151560208301526000604082015160806040850152613a1b608085018261380c565b905060608301518482036060860152613a34828261380c565b95945050505050565b60048110613a4d57613a4d6137d2565b9052565b60006101a08e83528d602084015260ff8d1660408401528b60608401528a60808401528060a0840152613a868184018b61380c565b905082810360c0840152613a9a818a6139b5565b905082810360e0840152613aae81896139ee565b87511515610100850152602088015115156101208501529150613ace9050565b613adc610140830186613a3d565b61016082019390935261018001529a9950505050505050505050565b60008060008060608587031215613b0e57600080fd5b8435935060208501359250604085013567ffffffffffffffff811115613b3357600080fd5b613b3f878288016138cb565b95989497509550505050565b60008060408385031215613b5e57600080fd5b50508035926020909101359150565b600081518084526020808501945080840160005b83811015613bd9578151805188528381015115158489015260408082015190890152606080820151908901526080908101519060058210613bc457613bc46137d2565b88015260a09096019590820190600101613b81565b509495945050505050565b60208152815160208201526020820151604082015260006040830151613c0f606084018260ff169052565b5060608301516080830152608083015160a083015260a08301516101c08060c0850152613c406101e085018361380c565b915060c0850151601f19808685030160e0870152613c5e84836139b5565b935060e08701519150610100818786030181880152613c7d85846139ee565b945080880151925050610120613ca3818801848051151582526020908101511515910152565b8701519150610160613cb787820184613a3d565b6101408801519250610180828887030181890152613cd58685613b6d565b918901516101a089015290970151929095019190915250929392505050565b634e487b7160e01b600052604160045260246000fd5b600080600060608486031215613d1f57600080fd5b8335925060208401359150604084013567ffffffffffffffff80821115613d4557600080fd5b818601915086601f830112613d5957600080fd5b813581811115613d6b57613d6b613cf4565b604051601f8201601f19908116603f01168101908382118183101715613d9357613d93613cf4565b81604052828152896020848701011115613dac57600080fd5b8260208601602083013760006020848301015280955050505050509250925092565b602081528151602082015260ff602083015116604082015260408201516060820152606082015160808201526000608083015160a0808401526139e660c084018261380c565b600080600080600080600060c0888a031215613e2f57600080fd5b8735965060208801359550613e46604089016138b5565b9450606088013593506080880135925060a088013567ffffffffffffffff811115613e7057600080fd5b613e7c8a828b016138cb565b989b979a50959850939692959293505050565b85815260ff8516602082015283604082015282606082015260a060808201526000613ebd60a083018461380c565b979650505050505050565b60008060008060008060008060e0898b031215613ee457600080fd5b88359750602089013596506040890135613efd81613769565b955060608901359450608089013567ffffffffffffffff811115613f2057600080fd5b613f2c8b828c016138cb565b999c989b5096999598969760a08701359660c0013595509350505050565b6020815260006132126020830184613b6d565b600060208284031215613f6f57600080fd5b815161321281613769565b60208082526018908201527f4c656173653a204e6f742054727573744964206f776e65720000000000000000604082015260600190565b600181811c90821680613fc557607f821691505b602082108103613fe557634e487b7160e01b600052602260045260246000fd5b50919050565b634e487b7160e01b600052601160045260246000fd5b80820281158282048414176104f5576104f5613feb565b808201808211156104f5576104f5613feb565b634e487b7160e01b600052603260045260246000fd5b601f821115610c7c57600081815260208120601f850160051c810160208610156140685750805b601f850160051c820191505b81811015611b4557828155600101614074565b67ffffffffffffffff83111561409f5761409f613cf4565b6140b3836140ad8354613fb1565b83614041565b6000601f8411600181146140e757600085156140cf5750838201355b600019600387901b1c1916600186901b178355610ea9565b600083815260209020601f19861690835b8281101561411857868501358255602094850194600190920191016140f8565b50868210156141355760001960f88860031b161c19848701351681555b505060018560011b0183555050505050565b600060ff821660ff810361415d5761415d613feb565b60010192915050565b81835281816020850137506000828201602090810191909152601f909101601f19169091010190565b85815284602082015260018060a01b0384166040820152608060608201526000613ebd608083018486614166565b60208082526021908201527f4c656173653a204e6f7420616e206163746f72206f662074686973206c6561736040820152606560f81b606082015260800190565b838152604060208201526000613a34604083018486614166565b828152604081016132126020830184613a3d565b815167ffffffffffffffff81111561424657614246613cf4565b61425a816142548454613fb1565b84614041565b602080601f83116001811461428f57600084156142775750858301515b600019600386901b1c1916600185901b178555611b45565b600085815260208120601f198616915b828110156142be5788860151825594840194600190910190840161429f565b50858210156142dc5787850151600019600388901b60f8161c191681555b5050505050600190811b01905550565b8281526040602082015260006139e6604083018461380c565b87815286602082015260ff8616604082015284606082015283608082015260c060a0820152600061433a60c083018486614166565b9998505050505050505050565b84815283602082015260606040820152600061386d606083018486614166565b60008161437657614376613feb565b506000190190565b7f416363657373436f6e74726f6c3a206163636f756e74200000000000000000008152600083516143b68160178501602088016137e8565b7001034b99036b4b9b9b4b733903937b6329607d1b60179184019182015283516143e78160288401602088016137e8565b01602801949350505050565b602081526000613212602083018461380c56fea26469706673582212209cc07b5af64d3150c357e4ebdc1cac94f99fa8999958b3d51cbc829a785f093264736f6c63430008110033",
  "linkReferences": {},
  "deployedLinkReferences": {}
}