{
  "_format": "hh-sol-artifact-1",
  "contractName": "Lease",
  "sourceName": "contracts/Lease.sol",
  "abi": [
    {
      "inputs": [
        {
          "internalType": "address",
          "name": "_trustIdContract",
          "type": "address"
        },
        {
          "internalType": "address",
          "name": "_platformIdContract",
          "type": "address"
        }
      ],
      "stateMutability": "nonpayable",
      "type": "constructor"
    },
    {
      "anonymous": false,
      "inputs": [
        {
          "indexed": false,
          "internalType": "uint256",
          "name": "leaseId",
          "type": "uint256"
        },
        {
          "indexed": false,
          "internalType": "bool",
          "name": "cancelledByOwner",
          "type": "bool"
        },
        {
          "indexed": false,
          "internalType": "bool",
          "name": "cancelledByTenant",
          "type": "bool"
        }
      ],
      "name": "CancellationRequested",
      "type": "event"
    },
    {
      "anonymous": false,
      "inputs": [
        {
          "indexed": false,
          "internalType": "uint256",
          "name": "leaseId",
          "type": "uint256"
        },
        {
          "indexed": false,
          "internalType": "uint256",
          "name": "tenantId",
          "type": "uint256"
        },
        {
          "indexed": false,
          "internalType": "uint256",
          "name": "ownerId",
          "type": "uint256"
        },
        {
          "indexed": false,
          "internalType": "uint8",
          "name": "totalNumberOfRents",
          "type": "uint8"
        },
        {
          "indexed": false,
          "internalType": "uint256",
          "name": "startDate",
          "type": "uint256"
        },
        {
          "indexed": false,
          "internalType": "uint256",
          "name": "rentPaymentInterval",
          "type": "uint256"
        },
        {
          "indexed": false,
          "internalType": "uint256",
          "name": "platformId",
          "type": "uint256"
        }
      ],
      "name": "LeaseCreated",
      "type": "event"
    },
    {
      "anonymous": false,
      "inputs": [
        {
          "indexed": false,
          "internalType": "uint256",
          "name": "leaseId",
          "type": "uint256"
        },
        {
          "indexed": false,
          "internalType": "string",
          "name": "metaData",
          "type": "string"
        }
      ],
      "name": "LeaseMetaDataUpdated",
      "type": "event"
    },
    {
      "anonymous": false,
      "inputs": [
        {
          "indexed": false,
          "internalType": "uint256",
          "name": "leaseId",
          "type": "uint256"
        },
        {
          "indexed": false,
          "internalType": "uint256",
          "name": "rentAmount",
          "type": "uint256"
        },
        {
          "indexed": false,
          "internalType": "address",
          "name": "paymentToken",
          "type": "address"
        },
        {
          "indexed": false,
          "internalType": "string",
          "name": "currencyPair",
          "type": "string"
        }
      ],
      "name": "LeasePaymentDataUpdated",
      "type": "event"
    },
    {
      "anonymous": false,
      "inputs": [
        {
          "indexed": false,
          "internalType": "uint256",
          "name": "leaseId",
          "type": "uint256"
        },
        {
          "indexed": false,
          "internalType": "string",
          "name": "reviewUri",
          "type": "string"
        }
      ],
      "name": "LeaseReviewedByOwner",
      "type": "event"
    },
    {
      "anonymous": false,
      "inputs": [
        {
          "indexed": false,
          "internalType": "uint256",
          "name": "leaseId",
          "type": "uint256"
        },
        {
          "indexed": false,
          "internalType": "string",
          "name": "reviewUri",
          "type": "string"
        }
      ],
      "name": "LeaseReviewedByTenant",
      "type": "event"
    },
    {
      "anonymous": false,
      "inputs": [
        {
          "indexed": false,
          "internalType": "uint256",
          "name": "leaseId",
          "type": "uint256"
        },
        {
          "indexed": false,
          "internalType": "uint256",
          "name": "tenantId",
          "type": "uint256"
        },
        {
          "indexed": false,
          "internalType": "uint256",
          "name": "ownerId",
          "type": "uint256"
        },
        {
          "indexed": false,
          "internalType": "uint8",
          "name": "totalNumberOfRents",
          "type": "uint8"
        },
        {
          "indexed": false,
          "internalType": "uint256",
          "name": "startDate",
          "type": "uint256"
        },
        {
          "indexed": false,
          "internalType": "uint256",
          "name": "rentPaymentInterval",
          "type": "uint256"
        },
        {
          "indexed": false,
          "internalType": "string",
          "name": "metadata",
          "type": "string"
        }
      ],
      "name": "LeaseUpdated",
      "type": "event"
    },
    {
      "anonymous": false,
      "inputs": [
        {
          "indexed": false,
          "internalType": "uint256",
          "name": "openProposalId",
          "type": "uint256"
        },
        {
          "indexed": false,
          "internalType": "uint256",
          "name": "platformId",
          "type": "uint256"
        },
        {
          "indexed": false,
          "internalType": "string",
          "name": "cid",
          "type": "string"
        }
      ],
      "name": "OpenProposalSubmitted",
      "type": "event"
    },
    {
      "anonymous": false,
      "inputs": [
        {
          "indexed": false,
          "internalType": "uint256",
          "name": "openProposalId",
          "type": "uint256"
        },
        {
          "indexed": false,
          "internalType": "string",
          "name": "cid",
          "type": "string"
        }
      ],
      "name": "OpenProposalUpdated",
      "type": "event"
    },
    {
      "anonymous": false,
      "inputs": [
        {
          "indexed": false,
          "internalType": "uint256",
          "name": "leaseId",
          "type": "uint256"
        },
        {
          "indexed": false,
          "internalType": "uint256",
          "name": "tenantId",
          "type": "uint256"
        },
        {
          "indexed": false,
          "internalType": "uint8",
          "name": "totalNumberOfRents",
          "type": "uint8"
        },
        {
          "indexed": false,
          "internalType": "uint256",
          "name": "startDate",
          "type": "uint256"
        },
        {
          "indexed": false,
          "internalType": "uint256",
          "name": "platformId",
          "type": "uint256"
        },
        {
          "indexed": false,
          "internalType": "string",
          "name": "metaData",
          "type": "string"
        }
      ],
      "name": "ProposalSubmitted",
      "type": "event"
    },
    {
      "anonymous": false,
      "inputs": [
        {
          "indexed": false,
          "internalType": "uint256",
          "name": "leaseId",
          "type": "uint256"
        },
        {
          "indexed": false,
          "internalType": "uint8",
          "name": "totalNumberOfRents",
          "type": "uint8"
        },
        {
          "indexed": false,
          "internalType": "uint256",
          "name": "startDate",
          "type": "uint256"
        },
        {
          "indexed": false,
          "internalType": "string",
          "name": "cid",
          "type": "string"
        }
      ],
      "name": "ProposalUpdated",
      "type": "event"
    },
    {
      "anonymous": false,
      "inputs": [
        {
          "indexed": false,
          "internalType": "uint256",
          "name": "tenantId",
          "type": "uint256"
        },
        {
          "indexed": false,
          "internalType": "uint8",
          "name": "totalNumberOfRents",
          "type": "uint8"
        },
        {
          "indexed": false,
          "internalType": "uint256",
          "name": "startDate",
          "type": "uint256"
        }
      ],
      "name": "ProposalValidated",
      "type": "event"
    },
    {
      "anonymous": false,
      "inputs": [
        {
          "indexed": false,
          "internalType": "uint256",
          "name": "leaseId",
          "type": "uint256"
        },
        {
          "indexed": false,
          "internalType": "uint256",
          "name": "rentId",
          "type": "uint256"
        },
        {
          "indexed": false,
          "internalType": "bool",
          "name": "withoutIssues",
          "type": "bool"
        }
      ],
      "name": "RentPaymentIssueStatusUpdated",
      "type": "event"
    },
    {
      "anonymous": false,
      "inputs": [
        {
          "indexed": true,
          "internalType": "bytes32",
          "name": "role",
          "type": "bytes32"
        },
        {
          "indexed": true,
          "internalType": "bytes32",
          "name": "previousAdminRole",
          "type": "bytes32"
        },
        {
          "indexed": true,
          "internalType": "bytes32",
          "name": "newAdminRole",
          "type": "bytes32"
        }
      ],
      "name": "RoleAdminChanged",
      "type": "event"
    },
    {
      "anonymous": false,
      "inputs": [
        {
          "indexed": true,
          "internalType": "bytes32",
          "name": "role",
          "type": "bytes32"
        },
        {
          "indexed": true,
          "internalType": "address",
          "name": "account",
          "type": "address"
        },
        {
          "indexed": true,
          "internalType": "address",
          "name": "sender",
          "type": "address"
        }
      ],
      "name": "RoleGranted",
      "type": "event"
    },
    {
      "anonymous": false,
      "inputs": [
        {
          "indexed": true,
          "internalType": "bytes32",
          "name": "role",
          "type": "bytes32"
        },
        {
          "indexed": true,
          "internalType": "address",
          "name": "account",
          "type": "address"
        },
        {
          "indexed": true,
          "internalType": "address",
          "name": "sender",
          "type": "address"
        }
      ],
      "name": "RoleRevoked",
      "type": "event"
    },
    {
      "anonymous": false,
      "inputs": [
        {
          "indexed": false,
          "internalType": "uint256",
          "name": "leaseId",
          "type": "uint256"
        },
        {
          "indexed": false,
          "internalType": "enum Lease.LeaseStatus",
          "name": "status",
          "type": "uint8"
        }
      ],
      "name": "UpdateLeaseStatus",
      "type": "event"
    },
    {
      "anonymous": false,
      "inputs": [
        {
          "indexed": false,
          "internalType": "uint256",
          "name": "leaseId",
          "type": "uint256"
        },
        {
          "indexed": false,
          "internalType": "uint256",
          "name": "rentId",
          "type": "uint256"
        },
        {
          "indexed": false,
          "internalType": "enum Lease.PaymentStatus",
          "name": "status",
          "type": "uint8"
        }
      ],
      "name": "UpdateRentStatus",
      "type": "event"
    },
    {
      "inputs": [],
      "name": "DEFAULT_ADMIN_ROLE",
      "outputs": [
        {
          "internalType": "bytes32",
          "name": "",
          "type": "bytes32"
        }
      ],
      "stateMutability": "view",
      "type": "function"
    },
    {
      "inputs": [],
      "name": "PAYMENT_MANAGER_ROLE",
      "outputs": [
        {
          "internalType": "bytes32",
          "name": "",
          "type": "bytes32"
        }
      ],
      "stateMutability": "view",
      "type": "function"
    },
    {
      "inputs": [
        {
          "internalType": "uint256",
          "name": "_profileId",
          "type": "uint256"
        },
        {
          "internalType": "uint256",
          "name": "_leaseId",
          "type": "uint256"
        }
      ],
      "name": "cancelLease",
      "outputs": [],
      "stateMutability": "nonpayable",
      "type": "function"
    },
    {
      "inputs": [
        {
          "internalType": "uint256",
          "name": "_ownerId",
          "type": "uint256"
        },
        {
          "internalType": "uint256",
          "name": "_tenantId",
          "type": "uint256"
        },
        {
          "internalType": "uint256",
          "name": "_rentAmount",
          "type": "uint256"
        },
        {
          "internalType": "uint8",
          "name": "_totalNumberOfRents",
          "type": "uint8"
        },
        {
          "internalType": "address",
          "name": "_paymentToken",
          "type": "address"
        },
        {
          "internalType": "uint256",
          "name": "_rentPaymentInterval",
          "type": "uint256"
        },
        {
          "internalType": "string",
          "name": "_currencyPair",
          "type": "string"
        },
        {
          "internalType": "uint256",
          "name": "_startDate",
          "type": "uint256"
        },
        {
          "internalType": "uint256",
          "name": "_platformId",
          "type": "uint256"
        }
      ],
      "name": "createLease",
      "outputs": [
        {
          "internalType": "uint256",
          "name": "leaseId",
          "type": "uint256"
        }
      ],
      "stateMutability": "nonpayable",
      "type": "function"
    },
    {
      "inputs": [
        {
          "internalType": "uint256",
          "name": "_profileId",
          "type": "uint256"
        },
        {
          "internalType": "uint256",
          "name": "_rentAmount",
          "type": "uint256"
        },
        {
          "internalType": "address",
          "name": "_paymentToken",
          "type": "address"
        },
        {
          "internalType": "uint256",
          "name": "_rentPaymentInterval",
          "type": "uint256"
        },
        {
          "internalType": "string",
          "name": "_currencyPair",
          "type": "string"
        },
        {
          "internalType": "uint256",
          "name": "_startDate",
          "type": "uint256"
        },
        {
          "internalType": "uint256",
          "name": "_platformId",
          "type": "uint256"
        }
      ],
      "name": "createOpenLease",
      "outputs": [
        {
          "internalType": "uint256",
          "name": "",
          "type": "uint256"
        }
      ],
      "stateMutability": "nonpayable",
      "type": "function"
    },
    {
      "inputs": [
        {
          "internalType": "uint256",
          "name": "_profileId",
          "type": "uint256"
        },
        {
          "internalType": "uint256",
          "name": "_platformId",
          "type": "uint256"
        },
        {
          "internalType": "string",
          "name": "_cid",
          "type": "string"
        }
      ],
      "name": "createOpenProposal",
      "outputs": [],
      "stateMutability": "nonpayable",
      "type": "function"
    },
    {
      "inputs": [
        {
          "internalType": "uint256",
          "name": "_profileId",
          "type": "uint256"
        },
        {
          "internalType": "uint256",
          "name": "_leaseId",
          "type": "uint256"
        }
      ],
      "name": "declineLease",
      "outputs": [],
      "stateMutability": "nonpayable",
      "type": "function"
    },
    {
      "inputs": [
        {
          "internalType": "uint256",
          "name": "_leaseId",
          "type": "uint256"
        }
      ],
      "name": "getLease",
      "outputs": [
        {
          "components": [
            {
              "internalType": "uint256",
              "name": "ownerId",
              "type": "uint256"
            },
            {
              "internalType": "uint256",
              "name": "tenantId",
              "type": "uint256"
            },
            {
              "internalType": "uint8",
              "name": "totalNumberOfRents",
              "type": "uint8"
            },
            {
              "internalType": "uint256",
              "name": "rentPaymentInterval",
              "type": "uint256"
            },
            {
              "internalType": "uint256",
              "name": "startDate",
              "type": "uint256"
            },
            {
              "internalType": "string",
              "name": "metaData",
              "type": "string"
            },
            {
              "components": [
                {
                  "internalType": "uint256",
                  "name": "rentAmount",
                  "type": "uint256"
                },
                {
                  "internalType": "address",
                  "name": "paymentToken",
                  "type": "address"
                },
                {
                  "internalType": "string",
                  "name": "currencyPair",
                  "type": "string"
                }
              ],
              "internalType": "struct Lease.PaymentData",
              "name": "paymentData",
              "type": "tuple"
            },
            {
              "components": [
                {
                  "internalType": "bool",
                  "name": "ownerReviewed",
                  "type": "bool"
                },
                {
                  "internalType": "bool",
                  "name": "tenantReviewed",
                  "type": "bool"
                },
                {
                  "internalType": "string",
                  "name": "ownerReviewUri",
                  "type": "string"
                },
                {
                  "internalType": "string",
                  "name": "tenantReviewUri",
                  "type": "string"
                }
              ],
              "internalType": "struct Lease.ReviewStatus",
              "name": "reviewStatus",
              "type": "tuple"
            },
            {
              "components": [
                {
                  "internalType": "bool",
                  "name": "cancelledByOwner",
                  "type": "bool"
                },
                {
                  "internalType": "bool",
                  "name": "cancelledByTenant",
                  "type": "bool"
                }
              ],
              "internalType": "struct Lease.Cancellation",
              "name": "cancellation",
              "type": "tuple"
            },
            {
              "internalType": "enum Lease.LeaseStatus",
              "name": "status",
              "type": "uint8"
            },
            {
              "components": [
                {
                  "internalType": "uint256",
                  "name": "validationDate",
                  "type": "uint256"
                },
                {
                  "internalType": "bool",
                  "name": "withoutIssues",
                  "type": "bool"
                },
                {
                  "internalType": "int256",
                  "name": "exchangeRate",
                  "type": "int256"
                },
                {
                  "internalType": "uint256",
                  "name": "exchangeRateTimestamp",
                  "type": "uint256"
                },
                {
                  "internalType": "enum Lease.PaymentStatus",
                  "name": "paymentStatus",
                  "type": "uint8"
                }
              ],
              "internalType": "struct Lease.TransactionPayment[]",
              "name": "rentPayments",
              "type": "tuple[]"
            },
            {
              "internalType": "uint256",
              "name": "platformId",
              "type": "uint256"
            },
            {
              "internalType": "uint256",
              "name": "proposalId",
              "type": "uint256"
            }
          ],
          "internalType": "struct Lease.Lease",
          "name": "lease",
          "type": "tuple"
        }
      ],
      "stateMutability": "view",
      "type": "function"
    },
    {
      "inputs": [
        {
          "internalType": "uint256",
          "name": "_leaseId",
          "type": "uint256"
        }
      ],
      "name": "getPayments",
      "outputs": [
        {
          "components": [
            {
              "internalType": "uint256",
              "name": "validationDate",
              "type": "uint256"
            },
            {
              "internalType": "bool",
              "name": "withoutIssues",
              "type": "bool"
            },
            {
              "internalType": "int256",
              "name": "exchangeRate",
              "type": "int256"
            },
            {
              "internalType": "uint256",
              "name": "exchangeRateTimestamp",
              "type": "uint256"
            },
            {
              "internalType": "enum Lease.PaymentStatus",
              "name": "paymentStatus",
              "type": "uint8"
            }
          ],
          "internalType": "struct Lease.TransactionPayment[]",
          "name": "rentPayments",
          "type": "tuple[]"
        }
      ],
      "stateMutability": "view",
      "type": "function"
    },
    {
      "inputs": [
        {
          "internalType": "uint256",
          "name": "_leaseId",
          "type": "uint256"
        },
        {
          "internalType": "uint256",
          "name": "_ownerId",
          "type": "uint256"
        }
      ],
      "name": "getProposal",
      "outputs": [
        {
          "components": [
            {
              "internalType": "uint256",
              "name": "ownerId",
              "type": "uint256"
            },
            {
              "internalType": "uint8",
              "name": "totalNumberOfRents",
              "type": "uint8"
            },
            {
              "internalType": "uint256",
              "name": "startDate",
              "type": "uint256"
            },
            {
              "internalType": "uint256",
              "name": "platformId",
              "type": "uint256"
            },
            {
              "internalType": "string",
              "name": "metaData",
              "type": "string"
            }
          ],
          "internalType": "struct Lease.Proposal",
          "name": "proposal",
          "type": "tuple"
        }
      ],
      "stateMutability": "view",
      "type": "function"
    },
    {
      "inputs": [
        {
          "internalType": "bytes32",
          "name": "role",
          "type": "bytes32"
        }
      ],
      "name": "getRoleAdmin",
      "outputs": [
        {
          "internalType": "bytes32",
          "name": "",
          "type": "bytes32"
        }
      ],
      "stateMutability": "view",
      "type": "function"
    },
    {
      "inputs": [
        {
          "internalType": "bytes32",
          "name": "role",
          "type": "bytes32"
        },
        {
          "internalType": "address",
          "name": "account",
          "type": "address"
        }
      ],
      "name": "grantRole",
      "outputs": [],
      "stateMutability": "nonpayable",
      "type": "function"
    },
    {
      "inputs": [
        {
          "internalType": "bytes32",
          "name": "role",
          "type": "bytes32"
        },
        {
          "internalType": "address",
          "name": "account",
          "type": "address"
        }
      ],
      "name": "hasRole",
      "outputs": [
        {
          "internalType": "bool",
          "name": "",
          "type": "bool"
        }
      ],
      "stateMutability": "view",
      "type": "function"
    },
    {
      "inputs": [
        {
          "internalType": "uint256",
          "name": "_leaseId",
          "type": "uint256"
        }
      ],
      "name": "isValid",
      "outputs": [],
      "stateMutability": "view",
      "type": "function"
    },
    {
      "inputs": [
        {
          "internalType": "uint256",
          "name": "",
          "type": "uint256"
        }
      ],
      "name": "leases",
      "outputs": [
        {
          "internalType": "uint256",
          "name": "ownerId",
          "type": "uint256"
        },
        {
          "internalType": "uint256",
          "name": "tenantId",
          "type": "uint256"
        },
        {
          "internalType": "uint8",
          "name": "totalNumberOfRents",
          "type": "uint8"
        },
        {
          "internalType": "uint256",
          "name": "rentPaymentInterval",
          "type": "uint256"
        },
        {
          "internalType": "uint256",
          "name": "startDate",
          "type": "uint256"
        },
        {
          "internalType": "string",
          "name": "metaData",
          "type": "string"
        },
        {
          "components": [
            {
              "internalType": "uint256",
              "name": "rentAmount",
              "type": "uint256"
            },
            {
              "internalType": "address",
              "name": "paymentToken",
              "type": "address"
            },
            {
              "internalType": "string",
              "name": "currencyPair",
              "type": "string"
            }
          ],
          "internalType": "struct Lease.PaymentData",
          "name": "paymentData",
          "type": "tuple"
        },
        {
          "components": [
            {
              "internalType": "bool",
              "name": "ownerReviewed",
              "type": "bool"
            },
            {
              "internalType": "bool",
              "name": "tenantReviewed",
              "type": "bool"
            },
            {
              "internalType": "string",
              "name": "ownerReviewUri",
              "type": "string"
            },
            {
              "internalType": "string",
              "name": "tenantReviewUri",
              "type": "string"
            }
          ],
          "internalType": "struct Lease.ReviewStatus",
          "name": "reviewStatus",
          "type": "tuple"
        },
        {
          "components": [
            {
              "internalType": "bool",
              "name": "cancelledByOwner",
              "type": "bool"
            },
            {
              "internalType": "bool",
              "name": "cancelledByTenant",
              "type": "bool"
            }
          ],
          "internalType": "struct Lease.Cancellation",
          "name": "cancellation",
          "type": "tuple"
        },
        {
          "internalType": "enum Lease.LeaseStatus",
          "name": "status",
          "type": "uint8"
        },
        {
          "internalType": "uint256",
          "name": "platformId",
          "type": "uint256"
        },
        {
          "internalType": "uint256",
          "name": "proposalId",
          "type": "uint256"
        }
      ],
      "stateMutability": "view",
      "type": "function"
    },
    {
      "inputs": [
        {
          "internalType": "uint256",
          "name": "_profileId",
          "type": "uint256"
        },
        {
          "internalType": "uint256",
          "name": "_leaseId",
          "type": "uint256"
        },
        {
          "internalType": "uint256",
          "name": "_rentId",
          "type": "uint256"
        }
      ],
      "name": "markRentAsNotPaid",
      "outputs": [],
      "stateMutability": "nonpayable",
      "type": "function"
    },
    {
      "inputs": [
        {
          "internalType": "uint256",
          "name": "",
          "type": "uint256"
        }
      ],
      "name": "openProposals",
      "outputs": [
        {
          "internalType": "uint256",
          "name": "ownerId",
          "type": "uint256"
        },
        {
          "internalType": "enum Lease.ProposalStatus",
          "name": "status",
          "type": "uint8"
        },
        {
          "internalType": "uint256",
          "name": "platformId",
          "type": "uint256"
        },
        {
          "internalType": "string",
          "name": "cid",
          "type": "string"
        }
      ],
      "stateMutability": "view",
      "type": "function"
    },
    {
      "inputs": [],
      "name": "protocolFeeRate",
      "outputs": [
        {
          "internalType": "uint16",
          "name": "",
          "type": "uint16"
        }
      ],
      "stateMutability": "view",
      "type": "function"
    },
    {
      "inputs": [
        {
          "internalType": "bytes32",
          "name": "role",
          "type": "bytes32"
        },
        {
          "internalType": "address",
          "name": "account",
          "type": "address"
        }
      ],
      "name": "renounceRole",
      "outputs": [],
      "stateMutability": "nonpayable",
      "type": "function"
    },
    {
      "inputs": [
        {
          "internalType": "uint256",
          "name": "_profileId",
          "type": "uint256"
        },
        {
          "internalType": "uint256",
          "name": "_leaseId",
          "type": "uint256"
        },
        {
          "internalType": "string",
          "name": "_reviewUri",
          "type": "string"
        }
      ],
      "name": "reviewLease",
      "outputs": [],
      "stateMutability": "nonpayable",
      "type": "function"
    },
    {
      "inputs": [
        {
          "internalType": "bytes32",
          "name": "role",
          "type": "bytes32"
        },
        {
          "internalType": "address",
          "name": "account",
          "type": "address"
        }
      ],
      "name": "revokeRole",
      "outputs": [],
      "stateMutability": "nonpayable",
      "type": "function"
    },
    {
      "inputs": [
        {
          "internalType": "uint256",
          "name": "_profileId",
          "type": "uint256"
        },
        {
          "internalType": "uint256",
          "name": "_leaseId",
          "type": "uint256"
        },
        {
          "internalType": "uint8",
          "name": "_totalNumberOfRents",
          "type": "uint8"
        },
        {
          "internalType": "uint256",
          "name": "_startDate",
          "type": "uint256"
        },
        {
          "internalType": "uint256",
          "name": "_platformId",
          "type": "uint256"
        },
        {
          "internalType": "string",
          "name": "_cid",
          "type": "string"
        }
      ],
      "name": "submitProposal",
      "outputs": [],
      "stateMutability": "nonpayable",
      "type": "function"
    },
    {
      "inputs": [
        {
          "internalType": "bytes4",
          "name": "interfaceId",
          "type": "bytes4"
        }
      ],
      "name": "supportsInterface",
      "outputs": [
        {
          "internalType": "bool",
          "name": "",
          "type": "bool"
        }
      ],
      "stateMutability": "view",
      "type": "function"
    },
    {
      "inputs": [
        {
          "internalType": "uint256",
          "name": "",
          "type": "uint256"
        },
        {
          "internalType": "uint256",
          "name": "",
          "type": "uint256"
        }
      ],
      "name": "tenantProposals",
      "outputs": [
        {
          "internalType": "uint256",
          "name": "ownerId",
          "type": "uint256"
        },
        {
          "internalType": "uint8",
          "name": "totalNumberOfRents",
          "type": "uint8"
        },
        {
          "internalType": "uint256",
          "name": "startDate",
          "type": "uint256"
        },
        {
          "internalType": "uint256",
          "name": "platformId",
          "type": "uint256"
        },
        {
          "internalType": "string",
          "name": "metaData",
          "type": "string"
        }
      ],
      "stateMutability": "view",
      "type": "function"
    },
    {
      "inputs": [],
      "name": "updateLease",
      "outputs": [],
      "stateMutability": "nonpayable",
      "type": "function"
    },
    {
      "inputs": [
        {
          "internalType": "uint256",
          "name": "_profileId",
          "type": "uint256"
        },
        {
          "internalType": "uint256",
          "name": "_leaseId",
          "type": "uint256"
        },
        {
          "internalType": "string",
          "name": "_newCid",
          "type": "string"
        }
      ],
      "name": "updateLeaseMetaData",
      "outputs": [],
      "stateMutability": "nonpayable",
      "type": "function"
    },
    {
      "inputs": [
        {
          "internalType": "uint256",
          "name": "_profileId",
          "type": "uint256"
        },
        {
          "internalType": "string",
          "name": "_cid",
          "type": "string"
        }
      ],
      "name": "updateOpenProposal",
      "outputs": [],
      "stateMutability": "nonpayable",
      "type": "function"
    },
    {
      "inputs": [
        {
          "internalType": "uint256",
          "name": "_tenantId",
          "type": "uint256"
        },
        {
          "internalType": "uint256",
          "name": "_leaseId",
          "type": "uint256"
        },
        {
          "internalType": "uint8",
          "name": "_totalNumberOfRents",
          "type": "uint8"
        },
        {
          "internalType": "uint256",
          "name": "_startDate",
          "type": "uint256"
        },
        {
          "internalType": "string",
          "name": "_cid",
          "type": "string"
        }
      ],
      "name": "updateProposal",
      "outputs": [],
      "stateMutability": "nonpayable",
      "type": "function"
    },
    {
      "inputs": [
        {
          "internalType": "uint256",
          "name": "_profileId",
          "type": "uint256"
        },
        {
          "internalType": "uint256",
          "name": "_leaseId",
          "type": "uint256"
        }
      ],
      "name": "validateLease",
      "outputs": [],
      "stateMutability": "nonpayable",
      "type": "function"
    },
    {
      "inputs": [
        {
          "internalType": "uint256",
          "name": "_profileId",
          "type": "uint256"
        },
        {
          "internalType": "uint256",
          "name": "_tenantId",
          "type": "uint256"
        },
        {
          "internalType": "uint256",
          "name": "_leaseId",
          "type": "uint256"
        }
      ],
      "name": "validateProposal",
      "outputs": [],
      "stateMutability": "nonpayable",
      "type": "function"
    },
    {
      "inputs": [
        {
          "internalType": "uint256",
          "name": "_leaseId",
          "type": "uint256"
        },
        {
          "internalType": "uint256",
          "name": "_rentId",
          "type": "uint256"
        },
        {
          "internalType": "bool",
          "name": "_withoutIssues",
          "type": "bool"
        }
      ],
      "name": "validateRentPayment",
      "outputs": [],
      "stateMutability": "nonpayable",
      "type": "function"
    }
  ],
  "bytecode": "0x60806040526003805460ff191660c81790553480156200001e57600080fd5b506040516200479b3803806200479b83398101604081905262000041916200016d565b6200005860016200009760201b620030dc1760201c565b62000065600033620000a0565b600780546001600160a01b039384166001600160a01b03199182161790915560088054929093169116179055620001a5565b80546001019055565b620000ac8282620000b0565b5050565b6000828152602081815260408083206001600160a01b038516845290915290205460ff16620000ac576000828152602081815260408083206001600160a01b03851684529091529020805460ff191660011790556200010c3390565b6001600160a01b0316816001600160a01b0316837f2f8788117e7eff1d82e926ec794901d17c78024a50270940304540a733656f0d60405160405180910390a45050565b80516001600160a01b03811681146200016857600080fd5b919050565b600080604083850312156200018157600080fd5b6200018c8362000150565b91506200019c6020840162000150565b90509250929050565b6145e680620001b56000396000f3fe608060405234801561001057600080fd5b50600436106101e55760003560e01c806391d148541161010f578063baad51eb116100a2578063e844379511610071578063e84437951461047e578063f577a50014610491578063fb9e6ab1146104a4578063fe365199146104b757600080fd5b8063baad51eb14610432578063c2410d1c14610445578063d547741f14610458578063dba470331461046b57600080fd5b8063a27e1aac116100de578063a27e1aac146103db578063aba21009146103ee578063ac71189214610225578063b79d69651461040e57600080fd5b806391d148541461038d5780639a9f56b7146103a05780639f44657c146103b3578063a217fddf146103d357600080fd5b806358f858801161018757806377d8434f1161015657806377d8434f146103295780638927a1061461033c5780638de3d2b4146103675780638fd5cee71461037a57600080fd5b806358f85880146102b457806359183f00146102dc57806363305b601461030357806375649a421461031657600080fd5b80632d631aa4116101c35780632d631aa4146102585780632f2ff15d1461026b57806336568abe1461027e57806346e897871461029157600080fd5b806301ffc9a7146101ea5780631a8cfa0514610212578063248a9ca314610227575b600080fd5b6101fd6101f83660046137bb565b6104d7565b60405190151581526020015b60405180910390f35b6102256102203660046137e5565b61050e565b005b61024a610235366004613811565b60009081526020819052604090206001015490565b604051908152602001610209565b610225610266366004613873565b610c30565b6102256102793660046138d4565b610c8f565b61022561028c3660046138d4565b610cb9565b6102a461029f366004613811565b610d37565b604051610209949392919061396a565b6008546102c990600160a01b900461ffff1681565b60405161ffff9091168152602001610209565b61024a7fa624ddbc4fb31a463e13e6620d62eeaf14248f89110a7fda32b4048499c999a681565b6102256103113660046139a9565b610dee565b61024a6103243660046139fd565b610ec1565b6102256103373660046137e5565b6111c3565b61034f61034a366004613811565b61158c565b6040516102099c9b9a99989796959493929190613b3a565b610225610375366004613be1565b6118a4565b610225610388366004613c52565b61192d565b6101fd61039b3660046138d4565b611beb565b6102256103ae366004613ca5565b611c14565b6103c66103c1366004613811565b611dd2565b6040516102099190613d4a565b61024a600081565b6102256103e9366004613e70565b61223c565b6104016103fc366004613ca5565b612367565b6040516102099190613f34565b61042161041c366004613ca5565b612489565b604051610209959493929190613f7a565b610225610440366004613fb3565b612551565b610225610453366004613ca5565b612702565b6102256104663660046138d4565b612a68565b610225610479366004613c52565b612a8d565b61024a61048c36600461402e565b612c27565b61022561049f366004613811565b612e23565b6102256104b2366004613ca5565b612e77565b6104ca6104c5366004613811565b613009565b60405161020991906140b0565b60006001600160e01b03198216637965db0b60e01b148061050857506301ffc9a760e01b6001600160e01b03198316145b92915050565b6007546040516331a9108f60e11b815260048101859052849133916001600160a01b0390911690636352211e90602401602060405180830381865afa15801561055b573d6000803e3d6000fd5b505050506040513d601f19601f8201168201806040525081019061057f91906140c3565b6001600160a01b0316146105ae5760405162461bcd60e51b81526004016105a5906140e0565b60405180910390fd5b6105b783612e23565b600083815260046020818152604080842081516101a08101835281548152600182015493810193909352600281015460ff16918301919091526003810154606083015291820154608082015260058201805491929160a08401919061061b90614117565b80601f016020809104026020016040519081016040528092919081815260200182805461064790614117565b80156106945780601f1061066957610100808354040283529160200191610694565b820191906000526020600020905b81548152906001019060200180831161067757829003601f168201915b5050505050815260200160068201604051806060016040529081600082015481526020016001820160009054906101000a90046001600160a01b03166001600160a01b03166001600160a01b031681526020016002820180546106f690614117565b80601f016020809104026020016040519081016040528092919081815260200182805461072290614117565b801561076f5780601f106107445761010080835404028352916020019161076f565b820191906000526020600020905b81548152906001019060200180831161075257829003601f168201915b5050509190925250505081526040805160808101825260098401805460ff80821615158452610100909104161515602083810191909152600a8601805491909501949293919291840191906107c390614117565b80601f01602080910402602001604051908101604052809291908181526020018280546107ef90614117565b801561083c5780601f106108115761010080835404028352916020019161083c565b820191906000526020600020905b81548152906001019060200180831161081f57829003601f168201915b5050505050815260200160028201805461085590614117565b80601f016020809104026020016040519081016040528092919081815260200182805461088190614117565b80156108ce5780601f106108a3576101008083540402835291602001916108ce565b820191906000526020600020905b8154815290600101906020018083116108b157829003601f168201915b505050919092525050508152604080518082018252600c84015460ff8082161515835261010090910481161515602083810191909152840191909152600d840154919092019116600381111561092657610926613904565b600381111561093757610937613904565b8152602001600e8201805480602002602001604051908101604052809291908181526020016000905b828210156109f55760008481526020908190206040805160a0810182526005860290920180548352600181015460ff9081161515948401949094526002810154918301919091526003810154606083015260048082015492939192608085019216908111156109d1576109d1613904565b60048111156109e2576109e2613904565b8152505081526020019060010190610960565b505050508152602001600f8201548152602001601082015481525050905084816000015114610a7c5760405162461bcd60e51b815260206004820152602d60248201527f4c656173653a204f6e6c7920746865206f776e65722063616e20706572666f7260448201526c36903a3434b99030b1ba34b7b760991b60648201526084016105a5565b60008161012001516003811115610a9557610a95613904565b14610ae25760405162461bcd60e51b815260206004820152601a60248201527f4c656173653a204c65617365206973206e6f742041637469766500000000000060448201526064016105a5565b828160600151610af29190614167565b81606001518260800151610b06919061417e565b610b10919061417e565b4211610b6a5760405162461bcd60e51b815260206004820152602360248201527f4c656173653a2054656e616e74207374696c6c206861732074696d6520746f2060448201526270617960e81b60648201526084016105a5565b60008161014001518481518110610b8357610b83614191565b6020026020010151905060016004811115610ba057610ba0613904565b81608001516004811115610bb657610bb6613904565b03610c135760405162461bcd60e51b815260206004820152602760248201527f4c656173653a205061796d656e74207374617475732073686f756c642062652060448201526650454e44494e4760c81b60648201526084016105a5565b610c1f858560026130e5565b610c2885613176565b505050505050565b600083815260066020526040902060038101610c4d8385836141ed565b507f43a6cdcc2306d0429b12040fb23aa23db218cf6138b44ae7e2b7d787106e8b03848484604051610c81939291906142d6565b60405180910390a150505050565b600082815260208190526040902060010154610caa8161324b565b610cb48383613255565b505050565b6001600160a01b0381163314610d295760405162461bcd60e51b815260206004820152602f60248201527f416363657373436f6e74726f6c3a2063616e206f6e6c792072656e6f756e636560448201526e103937b632b9903337b91039b2b63360891b60648201526084016105a5565b610d3382826132d9565b5050565b6006602052600090815260409020805460018201546002830154600384018054939460ff90931693919291610d6b90614117565b80601f0160208091040260200160405190810160405280929190818152602001828054610d9790614117565b8015610de45780601f10610db957610100808354040283529160200191610de4565b820191906000526020600020905b815481529060010190602001808311610dc757829003601f168201915b5050505050905084565b7fa624ddbc4fb31a463e13e6620d62eeaf14248f89110a7fda32b4048499c999a6610e188161324b565b6000848152600460205260408120600e01805485908110610e3b57610e3b614191565b6000918252602090912060059091020160048101805491925060019160ff19168280021790555060018101805460ff1916841515179055428155610e7e85613176565b7f6567f2e2a2e69688375538429e68369e641782fc09ac9b06b5f09f84a7fb790885856001604051610eb2939291906142f0565b60405180910390a15050505050565b6007546040516331a9108f60e11b8152600481018c90526000918c9133916001600160a01b031690636352211e90602401602060405180830381865afa158015610f0f573d6000803e3d6000fd5b505050506040513d601f19601f82011682018060405250810190610f3391906140c3565b6001600160a01b031614610f595760405162461bcd60e51b81526004016105a5906140e0565b600060046000610f6860015490565b815260208101919091526040016000208d8155600181018d9055600681018c905560028101805460ff191660ff8d161790556007810180546001600160a01b0319166001600160a01b038c16179055905060088101610fc88789836141ed565b506003810188905560048101859055600d8101805460ff19166001179055600f810184905560005b600282015460ff90811690821610156110d25781600e016040518060a001604052806000815260200160001515815260200160008152602001600081526020016000600481111561104357611043613904565b90528154600181810184556000938452602093849020835160059093020191825592820151818401805491151560ff199283161790556040830151600283015560608301516003830155608083015160048084018054959694959294909392909216919084908111156110b8576110b8613904565b0217905550505080806110ca9061430b565b915050610ff0565b507f689bbfd861d458fae2fc1b113460631439017d8e1083e7030adf64fecd8d861c6110fd60015490565b8d83600001548d898d8a60405161114897969594939291909687526020870195909552604086019390935260ff919091166060850152608084015260a083015260c082015260e00190565b60405180910390a17fa7f448dfd64b32b9afdf7f1f74a71c1c21d126f2d79fd12632da3a4a53b064a061117a60015490565b8c8b8a8a60405161118f95949392919061432a565b60405180910390a160006111a260015490565b90506111b2600180546001019055565b9d9c50505050505050505050505050565b6007546040516331a9108f60e11b815260048101859052849133916001600160a01b0390911690636352211e90602401602060405180830381865afa158015611210573d6000803e3d6000fd5b505050506040513d601f19601f8201168201806040525081019061123491906140c3565b6001600160a01b03161461125a5760405162461bcd60e51b81526004016105a5906140e0565b6000828152600460205260409020805485146112c85760405162461bcd60e51b815260206004820152602760248201527f4c656173653a204f6e6c79206f776e65722063616e2076616c696461746520706044820152661c9bdc1bdcd85b60ca1b60648201526084016105a5565b6001600d82015460ff1660038111156112e3576112e3613904565b1461132b5760405162461bcd60e51b81526020600482015260186024820152772632b0b9b29d102632b0b9b29034b9903737ba1037b832b760411b60448201526064016105a5565b60008381526005602090815260408083208784528252808320815160a08101835281548152600182015460ff16938101939093526002810154918301919091526003810154606083015260048101805460808401919061138a90614117565b80601f01602080910402602001604051908101604052809291908181526020018280546113b690614117565b80156114035780601f106113d857610100808354040283529160200191611403565b820191906000526020600020905b8154815290600101906020018083116113e657829003601f168201915b5050509190925250508151600185015550602081015160028401805460ff191660ff9092169190911790556040810151600484015560108301869055905060005b600283015460ff90811690821610156115265782600e016040518060a001604052806000815260200160001515815260200160008152602001600081526020016000600481111561149757611497613904565b90528154600181810184556000938452602093849020835160059093020191825592820151818401805491151560ff1992831617905560408301516002830155606083015160038301556080830151600480840180549596949592949093929092169190849081111561150c5761150c613904565b02179055505050808061151e9061430b565b915050611444565b50600d8201805460ff19169055602080820151604080840151815189815260ff909316938301939093528101919091527f8bc305c3ac99df0d7e258d6e3fb1db45b50c26dece158c87a4b8ca5407e25948906060015b60405180910390a1505050505050565b60046020819052600091825260409091208054600182015460028301546003840154948401546005850180549496939560ff909316949192916115ce90614117565b80601f01602080910402602001604051908101604052809291908181526020018280546115fa90614117565b80156116475780601f1061161c57610100808354040283529160200191611647565b820191906000526020600020905b81548152906001019060200180831161162a57829003601f168201915b505060408051606081018252600687018054825260078801546001600160a01b03166020830152600888018054979897929650909450918501925061168b90614117565b80601f01602080910402602001604051908101604052809291908181526020018280546116b790614117565b80156117045780601f106116d957610100808354040283529160200191611704565b820191906000526020600020905b8154815290600101906020018083116116e757829003601f168201915b5050509190925250506040805160808101825260098501805460ff808216151584526101009091041615156020830152600a86018054959695929450909284019161174e90614117565b80601f016020809104026020016040519081016040528092919081815260200182805461177a90614117565b80156117c75780601f1061179c576101008083540402835291602001916117c7565b820191906000526020600020905b8154815290600101906020018083116117aa57829003601f168201915b505050505081526020016002820180546117e090614117565b80601f016020809104026020016040519081016040528092919081815260200182805461180c90614117565b80156118595780601f1061182e57610100808354040283529160200191611859565b820191906000526020600020905b81548152906001019060200180831161183c57829003601f168201915b50505091909252505060408051808201909152600c84015460ff80821615158352610100909104811615156020830152600d850154600f86015460109096015494959294911692508c565b6000858152600560209081526040808320898452909152902060018101805460ff191660ff871617905560028101849055600481016118e48385836141ed565b507f2e04ee6ec073daec7bcded9f0dc6613754d5d1f6ce5db041e264a50ade45bda3868686868660405161191c959493929190614358565b60405180910390a150505050505050565b6007546040516331a9108f60e11b815260048101869052859133916001600160a01b0390911690636352211e90602401602060405180830381865afa15801561197a573d6000803e3d6000fd5b505050506040513d601f19601f8201168201806040525081019061199e91906140c3565b6001600160a01b0316146119c45760405162461bcd60e51b81526004016105a5906140e0565b6119cd84612e23565b600084815260046020526040902080548614806119ed5750806001015486145b611a095760405162461bcd60e51b81526004016105a590614381565b6002600d82015460ff166003811115611a2457611a24613904565b14611a7c5760405162461bcd60e51b815260206004820152602260248201527f4c656173653a204c65617365206973207374696c6c206e6f742066696e697368604482015261195960f21b60648201526084016105a5565b80600101548603611b43576009810154610100900460ff1615611ae15760405162461bcd60e51b815260206004820152601e60248201527f4c656173653a2054656e616e7420616c7265616479207265766965776564000060448201526064016105a5565b600b8101611af08486836141ed565b5060098101805461ff0019166101001790556040517fb1da3f3ff6eac58d60d1b070cb3492689e359cff627a6734122e87ab715f0e7d90611b36908790879087906142d6565b60405180910390a1610c28565b600981015460ff1615611b985760405162461bcd60e51b815260206004820152601d60248201527f4c656173653a204f776e657220616c726561647920726576696577656400000060448201526064016105a5565b600a8101611ba78486836141ed565b5060098101805460ff191660011790556040517f71142bb90445786375b9189a6d9e4245797ccde8572f008946b95514842c95ab9061157c908790879087906142d6565b6000918252602082815260408084206001600160a01b0393909316845291905290205460ff1690565b6007546040516331a9108f60e11b815260048101849052839133916001600160a01b0390911690636352211e90602401602060405180830381865afa158015611c61573d6000803e3d6000fd5b505050506040513d601f19601f82011682018060405250810190611c8591906140c3565b6001600160a01b031614611cab5760405162461bcd60e51b81526004016105a5906140e0565b611cb482612e23565b600082815260046020526040902060018101548414611d2b5760405162461bcd60e51b815260206004820152602d60248201527f4c656173653a204f6e6c79207468652074656e616e742063616e2063616c6c2060448201526c3a3434b990333ab731ba34b7b760991b60648201526084016105a5565b6001600d82015460ff166003811115611d4657611d46613904565b14611d935760405162461bcd60e51b815260206004820152601b60248201527f4c656173653a204c65617365206973206e6f742070656e64696e67000000000060448201526064016105a5565b600d8101805460ff191690556040517fdb63439c118f1d1f76128d4db22b1d385eb21fdf197e5f27bb3b349b3fba978190610c819085906000906143c2565b611dda6136d9565b60008281526004602081815260409283902083516101a08101855281548152600182015492810192909252600281015460ff16938201939093526003830154606082015290820154608082015260058201805491929160a084019190611e3f90614117565b80601f0160208091040260200160405190810160405280929190818152602001828054611e6b90614117565b8015611eb85780601f10611e8d57610100808354040283529160200191611eb8565b820191906000526020600020905b815481529060010190602001808311611e9b57829003601f168201915b5050505050815260200160068201604051806060016040529081600082015481526020016001820160009054906101000a90046001600160a01b03166001600160a01b03166001600160a01b03168152602001600282018054611f1a90614117565b80601f0160208091040260200160405190810160405280929190818152602001828054611f4690614117565b8015611f935780601f10611f6857610100808354040283529160200191611f93565b820191906000526020600020905b815481529060010190602001808311611f7657829003601f168201915b5050509190925250505081526040805160808101825260098401805460ff80821615158452610100909104161515602083810191909152600a860180549190950194929391929184019190611fe790614117565b80601f016020809104026020016040519081016040528092919081815260200182805461201390614117565b80156120605780601f1061203557610100808354040283529160200191612060565b820191906000526020600020905b81548152906001019060200180831161204357829003601f168201915b5050505050815260200160028201805461207990614117565b80601f01602080910402602001604051908101604052809291908181526020018280546120a590614117565b80156120f25780601f106120c7576101008083540402835291602001916120f2565b820191906000526020600020905b8154815290600101906020018083116120d557829003601f168201915b505050919092525050508152604080518082018252600c84015460ff8082161515835261010090910481161515602083810191909152840191909152600d840154919092019116600381111561214a5761214a613904565b600381111561215b5761215b613904565b8152602001600e8201805480602002602001604051908101604052809291908181526020016000905b828210156122195760008481526020908190206040805160a0810182526005860290920180548352600181015460ff9081161515948401949094526002810154918301919091526003810154606083015260048082015492939192608085019216908111156121f5576121f5613904565b600481111561220657612206613904565b8152505081526020019060010190612184565b505050508152602001600f82015481526020016010820154815250509050919050565b6007546040516331a9108f60e11b815260048101859052849133916001600160a01b0390911690636352211e90602401602060405180830381865afa158015612289573d6000803e3d6000fd5b505050506040513d601f19601f820116820180604052508101906122ad91906140c3565b6001600160a01b0316146122d35760405162461bcd60e51b81526004016105a5906140e0565b8151602e146123195760405162461bcd60e51b81526020600482015260126024820152711319585cd94e88125b9d985b1a590818da5960721b60448201526064016105a5565b60008381526004602052604090206005810161233584826143d6565b507f4b8571ba3c599c27b0b809fecc20d64cdc3c968443607ed2911be496ff33d18b8484604051610eb2929190614496565b61239c6040518060a0016040528060008152602001600060ff1681526020016000815260200160008152602001606081525090565b6000838152600560209081526040808320858452825291829020825160a08101845281548152600182015460ff1692810192909252600281015492820192909252600382015460608201526004820180549192916080840191906123ff90614117565b80601f016020809104026020016040519081016040528092919081815260200182805461242b90614117565b80156124785780601f1061244d57610100808354040283529160200191612478565b820191906000526020600020905b81548152906001019060200180831161245b57829003601f168201915b505050505081525050905092915050565b600560209081526000928352604080842090915290825290208054600182015460028301546003840154600485018054949560ff90941694929391926124ce90614117565b80601f01602080910402602001604051908101604052809291908181526020018280546124fa90614117565b80156125475780601f1061251c57610100808354040283529160200191612547565b820191906000526020600020905b81548152906001019060200180831161252a57829003601f168201915b5050505050905085565b6007546040516331a9108f60e11b815260048101899052889133916001600160a01b0390911690636352211e90602401602060405180830381865afa15801561259e573d6000803e3d6000fd5b505050506040513d601f19601f820116820180604052508101906125c291906140c3565b6001600160a01b0316146125e85760405162461bcd60e51b81526004016105a5906140e0565b6125f48789858561333e565b6040518060a001604052808981526020018760ff16815260200186815260200185815260200184848080601f01602080910402602001604051908101604052809392919081815260200183838082843760009201829052509390945250508981526005602090815260408083208d8452825291829020845181559084015160018201805460ff191660ff90921691909117905590830151600282015560608301516003820155608083015190915060048201906126b190826143d6565b509050507f671284cc916e24514e3cfd9035c01c2613ce98a2cbc26e7da95c7227ae581fc9878988888888886040516126f097969594939291906144af565b60405180910390a15050505050505050565b6007546040516331a9108f60e11b815260048101849052839133916001600160a01b0390911690636352211e90602401602060405180830381865afa15801561274f573d6000803e3d6000fd5b505050506040513d601f19601f8201168201806040525081019061277391906140c3565b6001600160a01b0316146127995760405162461bcd60e51b81526004016105a5906140e0565b6001548211156127e25760405162461bcd60e51b81526020600482015260146024820152731319585cd948191bd95cc81b9bdd08195e1a5cdd60621b60448201526064016105a5565b600082815260046020526040902080548414806128025750806001015484145b61281e5760405162461bcd60e51b81526004016105a590614381565b6000600d82015460ff16600381111561283957612839613904565b1461287c5760405162461bcd60e51b81526020600482015260136024820152724c65617365206973206e6f742041637469766560681b60448201526064016105a5565b805484036128ed57600c81015460ff16156128d95760405162461bcd60e51b815260206004820181905260248201527f4c6561736520616c72656164792063616e63656c6c6564206279206f776e657260448201526064016105a5565b600c8101805460ff19166001179055612963565b600c810154610100900460ff16156129515760405162461bcd60e51b815260206004820152602160248201527f4c6561736520616c72656164792063616e63656c6c65642062792074656e616e6044820152601d60fa1b60648201526084016105a5565b600c8101805461ff0019166101001790555b600c8101546040805185815260ff80841615156020830152610100909304909216151582820152517f738d90be22c218d95c6514e34f1295c6dbfe8bf4ad7b28af5894cb05991a6d6b9181900360600190a1600c81015460ff1680156129d25750600c810154610100900460ff165b15612a625760005b600282015460ff9081169082161015612a5857600082600e018260ff1681548110612a0757612a07614191565b600091825260208220600590910201915060048083015460ff1690811115612a3157612a31613904565b03612a4557612a45858360ff1660036130e5565b5080612a508161430b565b9150506129da565b50612a6283613176565b50505050565b600082815260208190526040902060010154612a838161324b565b610cb483836132d9565b6007546040516331a9108f60e11b815260048101869052859133916001600160a01b0390911690636352211e90602401602060405180830381865afa158015612ada573d6000803e3d6000fd5b505050506040513d601f19601f82011682018060405250810190612afe91906140c3565b6001600160a01b031614612b245760405162461bcd60e51b81526004016105a5906140e0565b6000612b2f60025490565b6040805160808101909152878152909150602081016000815260200186815260200185858080601f0160208091040260200160405190810160405280939291908181526020018383808284376000920182905250939094525050838152600660209081526040909120835181559083015160018083018054939450919260ff191690836002811115612bc357612bc3613904565b02179055506040820151600282015560608201516003820190612be690826143d6565b5050600280546001019055507f74bdc926bde0d060c4bb32e56a70f56fe8f7f8ea6c1191f7989f0bc7fb30e78f8186868660405161157c94939291906144f1565b6007546040516331a9108f60e11b8152600481018a90526000918a9133916001600160a01b031690636352211e90602401602060405180830381865afa158015612c75573d6000803e3d6000fd5b505050506040513d601f19601f82011682018060405250810190612c9991906140c3565b6001600160a01b031614612cbf5760405162461bcd60e51b81526004016105a5906140e0565b600060046000612cce60015490565b8152602081019190915260400160009081208c81556001810191909155600681018b905560028101805460ff191690556007810180546001600160a01b0319166001600160a01b038c16179055905060088101612d2c8789836141ed565b506003810188905560048101859055600d8101805460ff19166001908117909155600f8201859055547f689bbfd861d458fae2fc1b113460631439017d8e1083e7030adf64fecd8d861c90604080519182526000602083018190529082018e905260608201526080810187905260a081018a905260c0810186905260e00160405180910390a17fa7f448dfd64b32b9afdf7f1f74a71c1c21d126f2d79fd12632da3a4a53b064a0612ddc60015490565b8b8b8a8a604051612df195949392919061432a565b60405180910390a16000612e0460015490565b9050612e14600180546001019055565b9b9a5050505050505050505050565b600081118015612e3557506001548111155b612e745760405162461bcd60e51b815260206004820152601060248201526f125b9d985b1a59081b19585cd948125160821b60448201526064016105a5565b50565b6007546040516331a9108f60e11b815260048101849052839133916001600160a01b0390911690636352211e90602401602060405180830381865afa158015612ec4573d6000803e3d6000fd5b505050506040513d601f19601f82011682018060405250810190612ee891906140c3565b6001600160a01b031614612f0e5760405162461bcd60e51b81526004016105a5906140e0565b612f1782612e23565b60008281526004602052604090208054841480612f375750806001015484145b612f535760405162461bcd60e51b81526004016105a590614381565b6001600d82015460ff166003811115612f6e57612f6e613904565b14612fc65760405162461bcd60e51b815260206004820152602260248201527f4c656173653a204c656173652077617320616c72656164792076616c69646174604482015261195960f21b60648201526084016105a5565b600d8101805460ff191660039081179091556040517fdb63439c118f1d1f76128d4db22b1d385eb21fdf197e5f27bb3b349b3fba978191610c81918691906143c2565b6000818152600460209081526040808320600e8101805483518186028101860190945280845260609592949192909184015b828210156130d05760008481526020908190206040805160a0810182526005860290920180548352600181015460ff9081161515948401949094526002810154918301919091526003810154606083015260048082015492939192608085019216908111156130ac576130ac613904565b60048111156130bd576130bd613904565b815250508152602001906001019061303b565b50505050915050919050565b80546001019055565b6000838152600460205260408120600e0180548490811061310857613108614191565b90600052602060002090600502019050818160040160006101000a81548160ff0219169083600481111561313e5761313e613904565b02179055507f6567f2e2a2e69688375538429e68369e641782fc09ac9b06b5f09f84a7fb7908848484604051610c81939291906142f0565b6000818152600460205260408120905b600282015460ff90811690821610156131fb57600082600e018260ff16815481106131b3576131b3614191565b600091825260208220600590910201915060048083015460ff16908111156131dd576131dd613904565b036131e85750505050565b50806131f38161430b565b915050613186565b50600d8101805460ff191660029081179091556040517fdb63439c118f1d1f76128d4db22b1d385eb21fdf197e5f27bb3b349b3fba97819161323f918591906143c2565b60405180910390a15050565b612e7481336134cb565b61325f8282611beb565b610d33576000828152602081815260408083206001600160a01b03851684529091529020805460ff191660011790556132953390565b6001600160a01b0316816001600160a01b0316837f2f8788117e7eff1d82e926ec794901d17c78024a50270940304540a733656f0d60405160405180910390a45050565b6132e38282611beb565b15610d33576000828152602081815260408083206001600160a01b0385168085529252808320805460ff1916905551339285917ff6391f5c32d9c69d2a47ea670b442974b53935d1edc7fd64eb21e047a839171b9190a45050565b60008481526004602052604090206001600d82015460ff16600381111561336757613367613904565b146133af5760405162461bcd60e51b81526020600482015260186024820152772632b0b9b29d102632b0b9b29034b9903737ba1037b832b760411b60448201526064016105a5565b602e82146133f45760405162461bcd60e51b81526020600482015260126024820152711319585cd94e88125b9d985b1a590818da5960721b60448201526064016105a5565b80548490036134515760405162461bcd60e51b815260206004820152602360248201527f4c656173653a204f776e65722063616e6e6f74207375626d69742070726f706f6044820152621cd85b60ea1b60648201526084016105a5565b60008581526005602090815260408083208784529091529020548490036134c45760405162461bcd60e51b815260206004820152602160248201527f4c656173653a2050726f706f73616c20616c7265616479207375626d697474656044820152601960fa1b60648201526084016105a5565b5050505050565b6134d58282611beb565b610d33576134e281613524565b6134ed836020613536565b6040516020016134fe929190614511565b60408051601f198184030181529082905262461bcd60e51b82526105a591600401614586565b60606105086001600160a01b03831660145b60606000613545836002614167565b61355090600261417e565b67ffffffffffffffff81111561356857613568613e5a565b6040519080825280601f01601f191660200182016040528015613592576020820181803683370190505b509050600360fc1b816000815181106135ad576135ad614191565b60200101906001600160f81b031916908160001a905350600f60fb1b816001815181106135dc576135dc614191565b60200101906001600160f81b031916908160001a9053506000613600846002614167565b61360b90600161417e565b90505b6001811115613683576f181899199a1a9b1b9c1cb0b131b232b360811b85600f166010811061363f5761363f614191565b1a60f81b82828151811061365557613655614191565b60200101906001600160f81b031916908160001a90535060049490941c9361367c81614599565b905061360e565b5083156136d25760405162461bcd60e51b815260206004820181905260248201527f537472696e67733a20686578206c656e67746820696e73756666696369656e7460448201526064016105a5565b9392505050565b604051806101a001604052806000815260200160008152602001600060ff16815260200160008152602001600081526020016060815260200161373f60405180606001604052806000815260200160006001600160a01b03168152602001606081525090565b8152602001613773604051806080016040528060001515815260200160001515815260200160608152602001606081525090565b815260200161379960405180604001604052806000151581526020016000151581525090565b8152602001600081526020016060815260200160008152602001600081525090565b6000602082840312156137cd57600080fd5b81356001600160e01b0319811681146136d257600080fd5b6000806000606084860312156137fa57600080fd5b505081359360208301359350604090920135919050565b60006020828403121561382357600080fd5b5035919050565b60008083601f84011261383c57600080fd5b50813567ffffffffffffffff81111561385457600080fd5b60208301915083602082850101111561386c57600080fd5b9250929050565b60008060006040848603121561388857600080fd5b83359250602084013567ffffffffffffffff8111156138a657600080fd5b6138b28682870161382a565b9497909650939450505050565b6001600160a01b0381168114612e7457600080fd5b600080604083850312156138e757600080fd5b8235915060208301356138f9816138bf565b809150509250929050565b634e487b7160e01b600052602160045260246000fd5b60005b8381101561393557818101518382015260200161391d565b50506000910152565b6000815180845261395681602086016020860161391a565b601f01601f19169290920160200192915050565b84815260006003851061397f5761397f613904565b8460208301528360408301526080606083015261399f608083018461393e565b9695505050505050565b6000806000606084860312156139be57600080fd5b8335925060208401359150604084013580151581146139dc57600080fd5b809150509250925092565b803560ff811681146139f857600080fd5b919050565b6000806000806000806000806000806101208b8d031215613a1d57600080fd5b8a35995060208b0135985060408b01359750613a3b60608c016139e7565b965060808b0135613a4b816138bf565b955060a08b0135945060c08b013567ffffffffffffffff811115613a6e57600080fd5b613a7a8d828e0161382a565b9b9e9a9d50989b979a969995989760e0810135966101009091013595509350505050565b8051825260018060a01b0360208201511660208301526000604082015160606040850152613acf606085018261393e565b949350505050565b8051151582526020810151151560208301526000604082015160806040850152613b04608085018261393e565b905060608301518482036060860152613b1d828261393e565b95945050505050565b60048110613b3657613b36613904565b9052565b60006101a08e83528d602084015260ff8d1660408401528b60608401528a60808401528060a0840152613b6f8184018b61393e565b905082810360c0840152613b83818a613a9e565b905082810360e0840152613b978189613ad7565b87511515610100850152602088015115156101208501529150613bb79050565b613bc5610140830186613b26565b61016082019390935261018001529a9950505050505050505050565b60008060008060008060a08789031215613bfa57600080fd5b8635955060208701359450613c11604088016139e7565b935060608701359250608087013567ffffffffffffffff811115613c3457600080fd5b613c4089828a0161382a565b979a9699509497509295939492505050565b60008060008060608587031215613c6857600080fd5b8435935060208501359250604085013567ffffffffffffffff811115613c8d57600080fd5b613c998782880161382a565b95989497509550505050565b60008060408385031215613cb857600080fd5b50508035926020909101359150565b60058110613b3657613b36613904565b600081518084526020808501945080840160005b83811015613d3f5781518051885283810151151584890152604080820151908901526060808201519089015260809081015190613d2a818a0183613cc7565b505060a0969096019590820190600101613ceb565b509495945050505050565b60208152815160208201526020820151604082015260006040830151613d75606084018260ff169052565b5060608301516080830152608083015160a083015260a08301516101c08060c0850152613da66101e085018361393e565b915060c0850151601f19808685030160e0870152613dc48483613a9e565b935060e08701519150610100818786030181880152613de38584613ad7565b945080880151925050610120613e09818801848051151582526020908101511515910152565b8701519150610160613e1d87820184613b26565b6101408801519250610180828887030181890152613e3b8685613cd7565b918901516101a089015290970151929095019190915250929392505050565b634e487b7160e01b600052604160045260246000fd5b600080600060608486031215613e8557600080fd5b8335925060208401359150604084013567ffffffffffffffff80821115613eab57600080fd5b818601915086601f830112613ebf57600080fd5b813581811115613ed157613ed1613e5a565b604051601f8201601f19908116603f01168101908382118183101715613ef957613ef9613e5a565b81604052828152896020848701011115613f1257600080fd5b8260208601602083013760006020848301015280955050505050509250925092565b602081528151602082015260ff602083015116604082015260408201516060820152606082015160808201526000608083015160a080840152613acf60c084018261393e565b85815260ff8516602082015283604082015282606082015260a060808201526000613fa860a083018461393e565b979650505050505050565b600080600080600080600060c0888a031215613fce57600080fd5b8735965060208801359550613fe5604089016139e7565b9450606088013593506080880135925060a088013567ffffffffffffffff81111561400f57600080fd5b61401b8a828b0161382a565b989b979a50959850939692959293505050565b60008060008060008060008060e0898b03121561404a57600080fd5b88359750602089013596506040890135614063816138bf565b955060608901359450608089013567ffffffffffffffff81111561408657600080fd5b6140928b828c0161382a565b999c989b5096999598969760a08701359660c0013595509350505050565b6020815260006136d26020830184613cd7565b6000602082840312156140d557600080fd5b81516136d2816138bf565b60208082526018908201527f4c656173653a204e6f742054727573744964206f776e65720000000000000000604082015260600190565b600181811c9082168061412b57607f821691505b60208210810361414b57634e487b7160e01b600052602260045260246000fd5b50919050565b634e487b7160e01b600052601160045260246000fd5b808202811582820484141761050857610508614151565b8082018082111561050857610508614151565b634e487b7160e01b600052603260045260246000fd5b601f821115610cb457600081815260208120601f850160051c810160208610156141ce5750805b601f850160051c820191505b81811015610c28578281556001016141da565b67ffffffffffffffff83111561420557614205613e5a565b614219836142138354614117565b836141a7565b6000601f84116001811461424d57600085156142355750838201355b600019600387901b1c1916600186901b1783556134c4565b600083815260209020601f19861690835b8281101561427e578685013582556020948501946001909201910161425e565b508682101561429b5760001960f88860031b161c19848701351681555b505060018560011b0183555050505050565b81835281816020850137506000828201602090810191909152601f909101601f19169091010190565b838152604060208201526000613b1d6040830184866142ad565b8381526020810183905260608101613acf6040830184613cc7565b600060ff821660ff810361432157614321614151565b60010192915050565b85815284602082015260018060a01b0384166040820152608060608201526000613fa86080830184866142ad565b85815260ff85166020820152836040820152608060608201526000613fa86080830184866142ad565b60208082526021908201527f4c656173653a204e6f7420616e206163746f72206f662074686973206c6561736040820152606560f81b606082015260800190565b828152604081016136d26020830184613b26565b815167ffffffffffffffff8111156143f0576143f0613e5a565b614404816143fe8454614117565b846141a7565b602080601f83116001811461443957600084156144215750858301515b600019600386901b1c1916600185901b178555610c28565b600085815260208120601f198616915b8281101561446857888601518255948401946001909101908401614449565b50858210156144865787850151600019600388901b60f8161c191681555b5050505050600190811b01905550565b828152604060208201526000613acf604083018461393e565b87815286602082015260ff8616604082015284606082015283608082015260c060a082015260006144e460c0830184866142ad565b9998505050505050505050565b84815283602082015260606040820152600061399f6060830184866142ad565b7f416363657373436f6e74726f6c3a206163636f756e742000000000000000000081526000835161454981601785016020880161391a565b7001034b99036b4b9b9b4b733903937b6329607d1b601791840191820152835161457a81602884016020880161391a565b01602801949350505050565b6020815260006136d2602083018461393e565b6000816145a8576145a8614151565b50600019019056fea2646970667358221220b5269c28cdcef200f6e7a05ba56a72efa5f6bbb69b04d7b9f92f64884b25e16364736f6c63430008110033",
  "linkReferences": {},
  "deployedLinkReferences": {}
}