{
  "_format": "hh-sol-artifact-1",
  "contractName": "PaymentManager",
  "sourceName": "contracts/PaymentManager.sol",
  "abi": [
    {
      "inputs": [
        {
          "internalType": "address",
          "name": "_trustIdContract",
          "type": "address"
        },
        {
          "internalType": "address",
          "name": "_rateOracle",
          "type": "address"
        },
        {
          "internalType": "address",
          "name": "_platformIdContract",
          "type": "address"
        },
        {
          "internalType": "address",
          "name": "_leaseContract",
          "type": "address"
        }
      ],
      "stateMutability": "nonpayable",
      "type": "constructor"
    },
    {
      "anonymous": false,
      "inputs": [
        {
          "indexed": false,
          "internalType": "uint256",
          "name": "leaseId",
          "type": "uint256"
        },
        {
          "indexed": false,
          "internalType": "uint256",
          "name": "rentId",
          "type": "uint256"
        },
        {
          "indexed": false,
          "internalType": "bool",
          "name": "withoutIssues",
          "type": "bool"
        },
        {
          "indexed": false,
          "internalType": "uint256",
          "name": "amount",
          "type": "uint256"
        }
      ],
      "name": "CryptoRentPaid",
      "type": "event"
    },
    {
      "anonymous": false,
      "inputs": [
        {
          "indexed": false,
          "internalType": "uint256",
          "name": "leaseId",
          "type": "uint256"
        },
        {
          "indexed": false,
          "internalType": "uint256",
          "name": "rentId",
          "type": "uint256"
        },
        {
          "indexed": false,
          "internalType": "bool",
          "name": "withoutIssues",
          "type": "bool"
        },
        {
          "indexed": false,
          "internalType": "uint256",
          "name": "amount",
          "type": "uint256"
        },
        {
          "indexed": false,
          "internalType": "int256",
          "name": "exchangeRate",
          "type": "int256"
        },
        {
          "indexed": false,
          "internalType": "uint256",
          "name": "exchangeRateTimestamp",
          "type": "uint256"
        }
      ],
      "name": "FiatRentPaid",
      "type": "event"
    },
    {
      "anonymous": false,
      "inputs": [
        {
          "indexed": false,
          "internalType": "uint16",
          "name": "_protocolFeeRate",
          "type": "uint16"
        }
      ],
      "name": "ProtocolFeeRateUpdated",
      "type": "event"
    },
    {
      "anonymous": false,
      "inputs": [
        {
          "indexed": true,
          "internalType": "bytes32",
          "name": "role",
          "type": "bytes32"
        },
        {
          "indexed": true,
          "internalType": "bytes32",
          "name": "previousAdminRole",
          "type": "bytes32"
        },
        {
          "indexed": true,
          "internalType": "bytes32",
          "name": "newAdminRole",
          "type": "bytes32"
        }
      ],
      "name": "RoleAdminChanged",
      "type": "event"
    },
    {
      "anonymous": false,
      "inputs": [
        {
          "indexed": true,
          "internalType": "bytes32",
          "name": "role",
          "type": "bytes32"
        },
        {
          "indexed": true,
          "internalType": "address",
          "name": "account",
          "type": "address"
        },
        {
          "indexed": true,
          "internalType": "address",
          "name": "sender",
          "type": "address"
        }
      ],
      "name": "RoleGranted",
      "type": "event"
    },
    {
      "anonymous": false,
      "inputs": [
        {
          "indexed": true,
          "internalType": "bytes32",
          "name": "role",
          "type": "bytes32"
        },
        {
          "indexed": true,
          "internalType": "address",
          "name": "account",
          "type": "address"
        },
        {
          "indexed": true,
          "internalType": "address",
          "name": "sender",
          "type": "address"
        }
      ],
      "name": "RoleRevoked",
      "type": "event"
    },
    {
      "inputs": [],
      "name": "DEFAULT_ADMIN_ROLE",
      "outputs": [
        {
          "internalType": "bytes32",
          "name": "",
          "type": "bytes32"
        }
      ],
      "stateMutability": "view",
      "type": "function"
    },
    {
      "inputs": [
        {
          "internalType": "bytes32",
          "name": "role",
          "type": "bytes32"
        }
      ],
      "name": "getRoleAdmin",
      "outputs": [
        {
          "internalType": "bytes32",
          "name": "",
          "type": "bytes32"
        }
      ],
      "stateMutability": "view",
      "type": "function"
    },
    {
      "inputs": [
        {
          "internalType": "bytes32",
          "name": "role",
          "type": "bytes32"
        },
        {
          "internalType": "address",
          "name": "account",
          "type": "address"
        }
      ],
      "name": "grantRole",
      "outputs": [],
      "stateMutability": "nonpayable",
      "type": "function"
    },
    {
      "inputs": [
        {
          "internalType": "bytes32",
          "name": "role",
          "type": "bytes32"
        },
        {
          "internalType": "address",
          "name": "account",
          "type": "address"
        }
      ],
      "name": "hasRole",
      "outputs": [
        {
          "internalType": "bool",
          "name": "",
          "type": "bool"
        }
      ],
      "stateMutability": "view",
      "type": "function"
    },
    {
      "inputs": [
        {
          "internalType": "uint256",
          "name": "_profileId",
          "type": "uint256"
        },
        {
          "internalType": "uint256",
          "name": "_leaseId",
          "type": "uint256"
        },
        {
          "internalType": "uint256",
          "name": "_rentId",
          "type": "uint256"
        },
        {
          "internalType": "bool",
          "name": "_withoutIssues",
          "type": "bool"
        }
      ],
      "name": "payCryptoRent",
      "outputs": [],
      "stateMutability": "payable",
      "type": "function"
    },
    {
      "inputs": [
        {
          "internalType": "uint256",
          "name": "_profileId",
          "type": "uint256"
        },
        {
          "internalType": "uint256",
          "name": "_leaseId",
          "type": "uint256"
        },
        {
          "internalType": "uint256",
          "name": "_rentId",
          "type": "uint256"
        },
        {
          "internalType": "bool",
          "name": "_withoutIssues",
          "type": "bool"
        }
      ],
      "name": "payFiatRentInEth",
      "outputs": [],
      "stateMutability": "payable",
      "type": "function"
    },
    {
      "inputs": [
        {
          "internalType": "uint256",
          "name": "_profileId",
          "type": "uint256"
        },
        {
          "internalType": "uint256",
          "name": "_leaseId",
          "type": "uint256"
        },
        {
          "internalType": "uint256",
          "name": "_rentId",
          "type": "uint256"
        },
        {
          "internalType": "bool",
          "name": "_withoutIssues",
          "type": "bool"
        },
        {
          "internalType": "uint256",
          "name": "_amountInSmallestDecimal",
          "type": "uint256"
        }
      ],
      "name": "payFiatRentInToken",
      "outputs": [],
      "stateMutability": "nonpayable",
      "type": "function"
    },
    {
      "inputs": [],
      "name": "protocolFeeRate",
      "outputs": [
        {
          "internalType": "uint16",
          "name": "",
          "type": "uint16"
        }
      ],
      "stateMutability": "view",
      "type": "function"
    },
    {
      "inputs": [],
      "name": "protocolWallet",
      "outputs": [
        {
          "internalType": "address payable",
          "name": "",
          "type": "address"
        }
      ],
      "stateMutability": "view",
      "type": "function"
    },
    {
      "inputs": [
        {
          "internalType": "bytes32",
          "name": "role",
          "type": "bytes32"
        },
        {
          "internalType": "address",
          "name": "account",
          "type": "address"
        }
      ],
      "name": "renounceRole",
      "outputs": [],
      "stateMutability": "nonpayable",
      "type": "function"
    },
    {
      "inputs": [
        {
          "internalType": "bytes32",
          "name": "role",
          "type": "bytes32"
        },
        {
          "internalType": "address",
          "name": "account",
          "type": "address"
        }
      ],
      "name": "revokeRole",
      "outputs": [],
      "stateMutability": "nonpayable",
      "type": "function"
    },
    {
      "inputs": [
        {
          "internalType": "bytes4",
          "name": "interfaceId",
          "type": "bytes4"
        }
      ],
      "name": "supportsInterface",
      "outputs": [
        {
          "internalType": "bool",
          "name": "",
          "type": "bool"
        }
      ],
      "stateMutability": "view",
      "type": "function"
    },
    {
      "inputs": [
        {
          "internalType": "uint16",
          "name": "_protocolFeeRate",
          "type": "uint16"
        }
      ],
      "name": "updateProtocolFeeRate",
      "outputs": [],
      "stateMutability": "nonpayable",
      "type": "function"
    },
    {
      "inputs": [
        {
          "internalType": "address payable",
          "name": "_protocolWallet",
          "type": "address"
        }
      ],
      "name": "updateProtocolWallet",
      "outputs": [],
      "stateMutability": "nonpayable",
      "type": "function"
    }
  ],
  "bytecode": "0x60806040526001805460ff191660c81790553480156200001e57600080fd5b506040516200306238038062003062833981016040819052620000419162000466565b6200004e600033620000bf565b60018054610100600160a81b0319166101006001600160a01b038781169190910291909117909155600280546001600160a01b03199081168684161790915560038054821685841617905560048054909116918316919091179055620000b56064620000cf565b5050505062000623565b620000cb828262000133565b5050565b6000620000dc81620001bb565b6005805461ffff60a01b1916600160a01b61ffff8516908102919091179091556040519081527f1b89f70e2fb3771e6a9f5cd2d2ad3439b823b67e0e69bdeb89b7d68a35fdd5c99060200160405180910390a15050565b6200013f8282620001ca565b620000cb576000828152602081815260408083206001600160a01b03851684529091529020805460ff19166001179055620001773390565b6001600160a01b0316816001600160a01b0316837f2f8788117e7eff1d82e926ec794901d17c78024a50270940304540a733656f0d60405160405180910390a45050565b620001c78133620001f5565b50565b6000828152602081815260408083206001600160a01b038516845290915290205460ff165b92915050565b620002018282620001ca565b620000cb576200021c816200027660201b62001d4f1760201c565b6200023283602062001d6162000289821b17811c565b60405160200162000245929190620004e9565b60408051601f198184030181529082905262461bcd60e51b82526200026d9160040162000562565b60405180910390fd5b6060620001ef6001600160a01b03831660145b606060006200029a836002620005ad565b620002a7906002620005c7565b6001600160401b03811115620002c157620002c1620005dd565b6040519080825280601f01601f191660200182016040528015620002ec576020820181803683370190505b509050600360fc1b816000815181106200030a576200030a620005f3565b60200101906001600160f81b031916908160001a905350600f60fb1b816001815181106200033c576200033c620005f3565b60200101906001600160f81b031916908160001a905350600062000362846002620005ad565b6200036f906001620005c7565b90505b6001811115620003f1576f181899199a1a9b1b9c1cb0b131b232b360811b85600f1660108110620003a757620003a7620005f3565b1a60f81b828281518110620003c057620003c0620005f3565b60200101906001600160f81b031916908160001a90535060049490941c93620003e98162000609565b905062000372565b508315620004425760405162461bcd60e51b815260206004820181905260248201527f537472696e67733a20686578206c656e67746820696e73756666696369656e7460448201526064016200026d565b9392505050565b80516001600160a01b03811681146200046157600080fd5b919050565b600080600080608085870312156200047d57600080fd5b620004888562000449565b9350620004986020860162000449565b9250620004a86040860162000449565b9150620004b86060860162000449565b905092959194509250565b60005b83811015620004e0578181015183820152602001620004c6565b50506000910152565b7f416363657373436f6e74726f6c3a206163636f756e742000000000000000000081526000835162000523816017850160208801620004c3565b7001034b99036b4b9b9b4b733903937b6329607d1b601791840191820152835162000556816028840160208801620004c3565b01602801949350505050565b602081526000825180602084015262000583816040850160208701620004c3565b601f01601f19169190910160400192915050565b634e487b7160e01b600052601160045260246000fd5b8082028115828204841417620001ef57620001ef62000597565b80820180821115620001ef57620001ef62000597565b634e487b7160e01b600052604160045260246000fd5b634e487b7160e01b600052603260045260246000fd5b6000816200061b576200061b62000597565b506000190190565b612a2f80620006336000396000f3fe6080604052600436106100dd5760003560e01c80633ba2b7c31161007f57806391d148541161005957806391d148541461026a578063a217fddf1461028a578063d547741f1461029f578063e308a099146102bf57600080fd5b80633ba2b7c31461020257806358f85880146102225780639130f7e51461025757600080fd5b8063248a9ca3116100bb578063248a9ca3146101715780632f2ff15d146101af578063310f02b5146101cf57806336568abe146101e257600080fd5b806301ffc9a7146100e257806306d6e63f146101175780631de9f2b81461014f575b600080fd5b3480156100ee57600080fd5b506101026100fd366004612053565b6102df565b60405190151581526020015b60405180910390f35b34801561012357600080fd5b50600554610137906001600160a01b031681565b6040516001600160a01b03909116815260200161010e565b34801561015b57600080fd5b5061016f61016a36600461208b565b610316565b005b34801561017d57600080fd5b506101a161018c3660046120d4565b60009081526020819052604090206001015490565b60405190815260200161010e565b3480156101bb57600080fd5b5061016f6101ca366004612102565b610b74565b61016f6101dd366004612132565b610b9e565b3480156101ee57600080fd5b5061016f6101fd366004612102565b6112c0565b34801561020e57600080fd5b5061016f61021d366004612183565b61133e565b34801561022e57600080fd5b5060055461024490600160a01b900461ffff1681565b60405161ffff909116815260200161010e565b61016f610265366004612132565b6113a0565b34801561027657600080fd5b50610102610285366004612102565b611cd3565b34801561029657600080fd5b506101a1600081565b3480156102ab57600080fd5b5061016f6102ba366004612102565b611cfc565b3480156102cb57600080fd5b5061016f6102da3660046121a0565b611d21565b60006001600160e01b03198216637965db0b60e01b148061031057506301ffc9a760e01b6001600160e01b03198316145b92915050565b6001546040516331a9108f60e11b815260048101879052339161010090046001600160a01b031690636352211e90602401602060405180830381865afa158015610364573d6000803e3d6000fd5b505050506040513d601f19601f8201168201806040525081019061038891906121bd565b6001600160a01b0316146103b75760405162461bcd60e51b81526004016103ae906121da565b60405180910390fd5b6004805460405162f577a560e81b81529182018690526001600160a01b03169063f577a50090602401600060405180830381600087803b1580156103fa57600080fd5b505af115801561040e573d6000803e3d6000fd5b5050600480546040516327d1195f60e21b8152918201889052600093506001600160a01b03169150639f44657c90602401600060405180830381865afa15801561045c573d6000803e3d6000fd5b505050506040513d6000823e601f3d908101601f1916820160405261048491908101906125d3565b9050806020015186146104a95760405162461bcd60e51b81526004016103ae9061272a565b600081610120015160038111156104c2576104c2612777565b146104df5760405162461bcd60e51b81526004016103ae9061278d565b600081610140015185815181106104f8576104f86127ba565b602002602001015190506001600481111561051557610515612777565b8160800151600481111561052b5761052b612777565b14158061054e575060038160800151600481111561054b5761054b612777565b14155b8061056f575060048160800151600481111561056c5761056c612777565b14155b61058b5760405162461bcd60e51b81526004016103ae906127d0565b60c0820151602001516040516370a0823160e01b815233600482015284906001600160a01b038316906370a0823190602401602060405180830381865afa1580156105da573d6000803e3d6000fd5b505050506040513d601f19601f820116820180604052508101906105fe9190612800565b101561064c5760405162461bcd60e51b815260206004820152601860248201527f4e6f7420656e6f75676820746f6b656e2062616c616e6365000000000000000060448201526064016103ae565b60025460c08401516040908101519051630d81b5db60e31b815260009283926001600160a01b0390911691636c0daed89161068991600401612819565b6040805180830381865afa1580156106a5573d6000803e3d6000fd5b505050506040513d601f19601f820116820180604052508101906106c9919061284c565b604086018290526060860181905260c08701515191935091506000906106f0908490612886565b600154909150612710906107079060ff1683612886565b610711919061289d565b61071b90826128bf565b87101561073a5760405162461bcd60e51b81526004016103ae906128d2565b6001546127109061074e9060ff1683612886565b610758919061289d565b61076290826128fc565b8711156107815760405162461bcd60e51b81526004016103ae906128d2565b600354610160870151604051630a5b03bd60e41b815260048101919091526000916001600160a01b03169063a5b03bd090602401602060405180830381865afa1580156107d2573d6000803e3d6000fd5b505050506040513d601f19601f820116820180604052508101906107f6919061290f565b9050600061271061080b61ffff841685612886565b610815919061289d565b6005549091506000906127109061083790600160a01b900461ffff1686612886565b610841919061289d565b6001548a516040516331a9108f60e11b815260048101919091529192506001600160a01b03898116926323b872dd9233926101009091041690636352211e90602401602060405180830381865afa1580156108a0573d6000803e3d6000fd5b505050506040513d601f19601f820116820180604052508101906108c491906121bd565b6108ce85876128fc565b6108d8908f6128bf565b6040518463ffffffff1660e01b81526004016108f69392919061292c565b6020604051808303816000875af1158015610915573d6000803e3d6000fd5b505050506040513d601f19601f820116820180604052508101906109399190612950565b506005546040516323b872dd60e01b81526001600160a01b03808a16926323b872dd9261096e9233921690869060040161292c565b6020604051808303816000875af115801561098d573d6000803e3d6000fd5b505050506040513d601f19601f820116820180604052508101906109b19190612950565b506003546101608a01516040516331a9108f60e11b815260048101919091526001600160a01b03898116926323b872dd92339290911690636352211e90602401602060405180830381865afa158015610a0e573d6000803e3d6000fd5b505050506040513d601f19601f82011682018060405250810190610a3291906121bd565b856040518463ffffffff1660e01b8152600401610a519392919061292c565b6020604051808303816000875af1158015610a70573d6000803e3d6000fd5b505050506040513d601f19601f82011682018060405250810190610a949190612950565b506004805460405163031982db60e51b81529182018f9052602482018e90528c151560448301526001600160a01b0316906363305b6090606401600060405180830381600087803b158015610ae857600080fd5b505af1158015610afc573d6000803e3d6000fd5b505050507f43de4a3cb1db480811bab43f7a5cb99c70e242076ea2b0736f3c84b163a76dbe8d8d8d8d8a8a604051610b5c96959493929190958652602086019490945291151560408501526060840152608083015260a082015260c00190565b60405180910390a15050505050505050505050505050565b600082815260208190526040902060010154610b8f81611f04565b610b998383611f11565b505050565b6001546040516331a9108f60e11b815260048101869052339161010090046001600160a01b031690636352211e90602401602060405180830381865afa158015610bec573d6000803e3d6000fd5b505050506040513d601f19601f82011682018060405250810190610c1091906121bd565b6001600160a01b031614610c365760405162461bcd60e51b81526004016103ae906121da565b6004805460405162f577a560e81b81529182018590526001600160a01b03169063f577a50090602401600060405180830381600087803b158015610c7957600080fd5b505af1158015610c8d573d6000803e3d6000fd5b5050600480546040516327d1195f60e21b8152918201879052600093506001600160a01b03169150639f44657c90602401600060405180830381865afa158015610cdb573d6000803e3d6000fd5b505050506040513d6000823e601f3d908101601f19168201604052610d0391908101906125d3565b905080602001518514610d285760405162461bcd60e51b81526004016103ae9061272a565b60008161012001516003811115610d4157610d41612777565b14610d5e5760405162461bcd60e51b81526004016103ae9061278d565b60008161014001518481518110610d7757610d776127ba565b6020026020010151905060016004811115610d9457610d94612777565b81608001516004811115610daa57610daa612777565b141580610dcd5750600381608001516004811115610dca57610dca612777565b14155b80610dee5750600481608001516004811115610deb57610deb612777565b14155b610e0a5760405162461bcd60e51b81526004016103ae906127d0565b60025460c08301516040908101519051630d81b5db60e31b815260009283926001600160a01b0390911691636c0daed891610e4791600401612819565b6040805180830381865afa158015610e63573d6000803e3d6000fd5b505050506040513d601f19601f82011682018060405250810190610e87919061284c565b604085018290526060850181905260c0860151519193509150600090610eae908490612886565b60015490915061271090610ec59060ff1683612886565b610ecf919061289d565b610ed990826128bf565b341015610ef85760405162461bcd60e51b81526004016103ae906128d2565b60015461271090610f0c9060ff1683612886565b610f16919061289d565b610f2090826128fc565b341115610f3f5760405162461bcd60e51b81526004016103ae906128d2565b600354610160860151604051630a5b03bd60e41b815260048101919091526000916001600160a01b03169063a5b03bd090602401602060405180830381865afa158015610f90573d6000803e3d6000fd5b505050506040513d601f19601f82011682018060405250810190610fb4919061290f565b90506000612710610fc961ffff841685612886565b610fd3919061289d565b60055490915060009061271090610ff590600160a01b900461ffff1686612886565b610fff919061289d565b60015489516040516331a9108f60e11b8152600481019190915291925061010090046001600160a01b031690636352211e90602401602060405180830381865afa158015611051573d6000803e3d6000fd5b505050506040513d601f19601f8201168201806040525081019061107591906121bd565b6001600160a01b031661108882846128fc565b61109290346128bf565b604051600081818185875af1925050503d80600081146110ce576040519150601f19603f3d011682016040523d82523d6000602084013e6110d3565b606091505b50506005546040516001600160a01b0390911691508290600081818185875af1925050503d8060008114611123576040519150601f19603f3d011682016040523d82523d6000602084013e611128565b606091505b50506003546101608a01516040516331a9108f60e11b815260048101919091526001600160a01b039091169150636352211e90602401602060405180830381865afa15801561117b573d6000803e3d6000fd5b505050506040513d601f19601f8201168201806040525081019061119f91906121bd565b6001600160a01b03168260405160006040518083038185875af1925050503d80600081146111e9576040519150601f19603f3d011682016040523d82523d6000602084013e6111ee565b606091505b50506004805460405163031982db60e51b81529182018e9052602482018d90528b151560448301526001600160a01b031691506363305b6090606401600060405180830381600087803b15801561124457600080fd5b505af1158015611258573d6000803e3d6000fd5b5050604080518e8152602081018e90528c151581830152346060820152608081018a905260a0810189905290517f43de4a3cb1db480811bab43f7a5cb99c70e242076ea2b0736f3c84b163a76dbe93509081900360c0019150a1505050505050505050505050565b6001600160a01b03811633146113305760405162461bcd60e51b815260206004820152602f60248201527f416363657373436f6e74726f6c3a2063616e206f6e6c792072656e6f756e636560448201526e103937b632b9903337b91039b2b63360891b60648201526084016103ae565b61133a8282611f95565b5050565b600061134981611f04565b6005805461ffff60a01b1916600160a01b61ffff8516908102919091179091556040519081527f1b89f70e2fb3771e6a9f5cd2d2ad3439b823b67e0e69bdeb89b7d68a35fdd5c99060200160405180910390a15050565b6001546040516331a9108f60e11b815260048101869052339161010090046001600160a01b031690636352211e90602401602060405180830381865afa1580156113ee573d6000803e3d6000fd5b505050506040513d601f19601f8201168201806040525081019061141291906121bd565b6001600160a01b0316146114385760405162461bcd60e51b81526004016103ae906121da565b6004805460405162f577a560e81b81529182018590526001600160a01b03169063f577a50090602401600060405180830381600087803b15801561147b57600080fd5b505af115801561148f573d6000803e3d6000fd5b5050600480546040516327d1195f60e21b8152918201879052600093506001600160a01b03169150639f44657c90602401600060405180830381865afa1580156114dd573d6000803e3d6000fd5b505050506040513d6000823e601f3d908101601f1916820160405261150591908101906125d3565b90508060200151851461152a5760405162461bcd60e51b81526004016103ae9061272a565b6000816101200151600381111561154357611543612777565b146115605760405162461bcd60e51b81526004016103ae9061278d565b60008161014001518481518110611579576115796127ba565b602002602001015190506001600481111561159657611596612777565b816080015160048111156115ac576115ac612777565b1415806115cf57506003816080015160048111156115cc576115cc612777565b14155b806115f057506004816080015160048111156115ed576115ed612777565b14155b61160c5760405162461bcd60e51b81526004016103ae906127d0565b60c0820151602001516001600160a01b03166116705760c082015151341461166b5760405162461bcd60e51b81526020600482015260126024820152714e6f6e2d6d61746368696e672066756e647360701b60448201526064016103ae565b6116b3565b34156116b35760405162461bcd60e51b81526020600482015260126024820152714e6f6e2d6d61746368696e672066756e647360701b60448201526064016103ae565b600354610160830151604051630a5b03bd60e41b815260048101919091526000916001600160a01b03169063a5b03bd090602401602060405180830381865afa158015611704573d6000803e3d6000fd5b505050506040513d601f19601f82011682018060405250810190611728919061290f565b60c084015151909150600090612710906117479061ffff851690612886565b611751919061289d565b60055460c0860151519192506000916127109161177a91600160a01b90910461ffff1690612886565b611784919061289d565b60c0860151602001519091506001600160a01b03166000036119955760015485516040516331a9108f60e11b815260048101919091526101009091046001600160a01b031690636352211e90602401602060405180830381865afa1580156117f0573d6000803e3d6000fd5b505050506040513d601f19601f8201168201806040525081019061181491906121bd565b6001600160a01b031661182782846128fc565b61183190346128bf565b604051600081818185875af1925050503d806000811461186d576040519150601f19603f3d011682016040523d82523d6000602084013e611872565b606091505b50506005546040516001600160a01b0390911691508290600081818185875af1925050503d80600081146118c2576040519150601f19603f3d011682016040523d82523d6000602084013e6118c7565b606091505b50506003546101608701516040516331a9108f60e11b815260048101919091526001600160a01b039091169150636352211e90602401602060405180830381865afa15801561191a573d6000803e3d6000fd5b505050506040513d601f19601f8201168201806040525081019061193e91906121bd565b6001600160a01b03168260405160006040518083038185875af1925050503d8060008114611988576040519150601f19603f3d011682016040523d82523d6000602084013e61198d565b606091505b505050611c15565b60c08501516020015160015486516040516331a9108f60e11b81526001600160a01b03938416936323b872dd93339361010090910490911691636352211e916119e49160040190815260200190565b602060405180830381865afa158015611a01573d6000803e3d6000fd5b505050506040513d601f19601f82011682018060405250810190611a2591906121bd565b611a2f85876128fc565b60c08a015151611a3f91906128bf565b6040518463ffffffff1660e01b8152600401611a5d9392919061292c565b6020604051808303816000875af1158015611a7c573d6000803e3d6000fd5b505050506040513d601f19601f82011682018060405250810190611aa09190612950565b5060c0850151602001516005546040516323b872dd60e01b81526001600160a01b03928316926323b872dd92611ae092339290911690869060040161292c565b6020604051808303816000875af1158015611aff573d6000803e3d6000fd5b505050506040513d601f19601f82011682018060405250810190611b239190612950565b5060c0850151602001516003546101608701516040516331a9108f60e11b81526001600160a01b03938416936323b872dd933393911691636352211e91611b709160040190815260200190565b602060405180830381865afa158015611b8d573d6000803e3d6000fd5b505050506040513d601f19601f82011682018060405250810190611bb191906121bd565b856040518463ffffffff1660e01b8152600401611bd09392919061292c565b6020604051808303816000875af1158015611bef573d6000803e3d6000fd5b505050506040513d601f19601f82011682018060405250810190611c139190612950565b505b6004805460405163031982db60e51b81529182018a90526024820189905287151560448301526001600160a01b0316906363305b6090606401600060405180830381600087803b158015611c6857600080fd5b505af1158015611c7c573d6000803e3d6000fd5b5050604080518b8152602081018b90528915158183015234606082015290517f9f156b31b6d7fa9704e1ce08eae240657807a5454f6a1722bdd732b8137ca3a99350908190036080019150a1505050505050505050565b6000918252602082815260408084206001600160a01b0393909316845291905290205460ff1690565b600082815260208190526040902060010154611d1781611f04565b610b998383611f95565b6000611d2c81611f04565b50600580546001600160a01b0319166001600160a01b0392909216919091179055565b60606103106001600160a01b03831660145b60606000611d70836002612886565b611d7b9060026128fc565b67ffffffffffffffff811115611d9357611d93612211565b6040519080825280601f01601f191660200182016040528015611dbd576020820181803683370190505b509050600360fc1b81600081518110611dd857611dd86127ba565b60200101906001600160f81b031916908160001a905350600f60fb1b81600181518110611e0757611e076127ba565b60200101906001600160f81b031916908160001a9053506000611e2b846002612886565b611e369060016128fc565b90505b6001811115611eae576f181899199a1a9b1b9c1cb0b131b232b360811b85600f1660108110611e6a57611e6a6127ba565b1a60f81b828281518110611e8057611e806127ba565b60200101906001600160f81b031916908160001a90535060049490941c93611ea78161296d565b9050611e39565b508315611efd5760405162461bcd60e51b815260206004820181905260248201527f537472696e67733a20686578206c656e67746820696e73756666696369656e7460448201526064016103ae565b9392505050565b611f0e8133611ffa565b50565b611f1b8282611cd3565b61133a576000828152602081815260408083206001600160a01b03851684529091529020805460ff19166001179055611f513390565b6001600160a01b0316816001600160a01b0316837f2f8788117e7eff1d82e926ec794901d17c78024a50270940304540a733656f0d60405160405180910390a45050565b611f9f8282611cd3565b1561133a576000828152602081815260408083206001600160a01b0385168085529252808320805460ff1916905551339285917ff6391f5c32d9c69d2a47ea670b442974b53935d1edc7fd64eb21e047a839171b9190a45050565b6120048282611cd3565b61133a5761201181611d4f565b61201c836020611d61565b60405160200161202d929190612984565b60408051601f198184030181529082905262461bcd60e51b82526103ae91600401612819565b60006020828403121561206557600080fd5b81356001600160e01b031981168114611efd57600080fd5b8015158114611f0e57600080fd5b600080600080600060a086880312156120a357600080fd5b85359450602086013593506040860135925060608601356120c38161207d565b949793965091946080013592915050565b6000602082840312156120e657600080fd5b5035919050565b6001600160a01b0381168114611f0e57600080fd5b6000806040838503121561211557600080fd5b823591506020830135612127816120ed565b809150509250929050565b6000806000806080858703121561214857600080fd5b84359350602085013592506040850135915060608501356121688161207d565b939692955090935050565b61ffff81168114611f0e57600080fd5b60006020828403121561219557600080fd5b8135611efd81612173565b6000602082840312156121b257600080fd5b8135611efd816120ed565b6000602082840312156121cf57600080fd5b8151611efd816120ed565b60208082526018908201527f4c656173653a204e6f742054727573744964206f776e65720000000000000000604082015260600190565b634e487b7160e01b600052604160045260246000fd5b60405160a0810167ffffffffffffffff8111828210171561224a5761224a612211565b60405290565b6040516101a0810167ffffffffffffffff8111828210171561224a5761224a612211565b604051601f8201601f1916810167ffffffffffffffff8111828210171561229d5761229d612211565b604052919050565b805160ff811681146122b657600080fd5b919050565b60005b838110156122d65781810151838201526020016122be565b50506000910152565b600082601f8301126122f057600080fd5b815167ffffffffffffffff81111561230a5761230a612211565b61231d601f8201601f1916602001612274565b81815284602083860101111561233257600080fd5b6123438260208301602087016122bb565b949350505050565b60006060828403121561235d57600080fd5b6040516060810167ffffffffffffffff828210818311171561238157612381612211565b81604052829350845183526020850151915061239c826120ed565b81602084015260408501519150808211156123b657600080fd5b506123c3858286016122df565b6040830152505092915050565b6000608082840312156123e257600080fd5b6040516080810167ffffffffffffffff828210818311171561240657612406612211565b816040528293508451915061241a8261207d565b90825260208401519061242c8261207d565b816020840152604085015191508082111561244657600080fd5b612452868387016122df565b6040840152606085015191508082111561246b57600080fd5b50612478858286016122df565b6060830152505092915050565b60006040828403121561249757600080fd5b6040516040810181811067ffffffffffffffff821117156124ba576124ba612211565b806040525080915082516124cd8161207d565b815260208301516124dd8161207d565b6020919091015292915050565b8051600481106122b657600080fd5b600082601f83011261250a57600080fd5b8151602067ffffffffffffffff82111561252657612526612211565b60056125358284831b01612274565b83815260a0938402860183019383820191908886111561255457600080fd5b8488015b868110156125c55781818b0312156125705760008081fd5b612578612227565b81518152868201516125898161207d565b8188015260408281015190820152606080830151908201526080808301518781106125b45760008081fd5b908201528452928501928101612558565b509098975050505050505050565b6000602082840312156125e557600080fd5b815167ffffffffffffffff808211156125fd57600080fd5b908301906101c0828603121561261257600080fd5b61261a612250565b8251815260208301516020820152612634604084016122a5565b6040820152606083015160608201526080830151608082015260a08301518281111561265f57600080fd5b61266b878286016122df565b60a08301525060c08301518281111561268357600080fd5b61268f8782860161234b565b60c08301525060e0830151828111156126a757600080fd5b6126b3878286016123d0565b60e0830152506101006126c887828601612485565b908201526101406126da8482016124ea565b61012083015261016080850151848111156126f457600080fd5b612700898288016124f9565b83850152506101809350838501518184015250506101a08301518282015280935050505092915050565b6020808252602d908201527f4c656173653a204f6e6c79207468652074656e616e742063616e2063616c6c2060408201526c3a3434b990333ab731ba34b7b760991b606082015260800190565b634e487b7160e01b600052602160045260246000fd5b6020808252601390820152724c65617365206973206e6f742041637469766560681b604082015260600190565b634e487b7160e01b600052603260045260246000fd5b6020808252601690820152755061796d656e74206973206e6f742070656e64696e6760501b604082015260600190565b60006020828403121561281257600080fd5b5051919050565b60208152600082518060208401526128388160408501602087016122bb565b601f01601f19169190910160400192915050565b6000806040838503121561285f57600080fd5b505080516020909101519092909150565b634e487b7160e01b600052601160045260246000fd5b808202811582820484141761031057610310612870565b6000826128ba57634e487b7160e01b600052601260045260246000fd5b500490565b8181038181111561031057610310612870565b60208082526010908201526f57726f6e672072656e742076616c756560801b604082015260600190565b8082018082111561031057610310612870565b60006020828403121561292157600080fd5b8151611efd81612173565b6001600160a01b039384168152919092166020820152604081019190915260600190565b60006020828403121561296257600080fd5b8151611efd8161207d565b60008161297c5761297c612870565b506000190190565b7f416363657373436f6e74726f6c3a206163636f756e74200000000000000000008152600083516129bc8160178501602088016122bb565b7001034b99036b4b9b9b4b733903937b6329607d1b60179184019182015283516129ed8160288401602088016122bb565b0160280194935050505056fea264697066735822122043cd2e28137572e4615c4cf07a1be13e9f5957b0e0b646d08125508b0aba977e64736f6c63430008110033",
  "linkReferences": {},
  "deployedLinkReferences": {}
}