{
  "_format": "hh-sol-artifact-1",
  "contractName": "PaymentManager",
  "sourceName": "contracts/PaymentManager.sol",
  "abi": [
    {
      "inputs": [
        {
          "internalType": "address",
          "name": "_trustIdContract",
          "type": "address"
        },
        {
          "internalType": "address",
          "name": "_rateOracle",
          "type": "address"
        },
        {
          "internalType": "address",
          "name": "_platformIdContract",
          "type": "address"
        },
        {
          "internalType": "address",
          "name": "_leaseContract",
          "type": "address"
        }
      ],
      "stateMutability": "nonpayable",
      "type": "constructor"
    },
    {
      "anonymous": false,
      "inputs": [
        {
          "indexed": false,
          "internalType": "uint256",
          "name": "leaseId",
          "type": "uint256"
        },
        {
          "indexed": false,
          "internalType": "uint256",
          "name": "rentId",
          "type": "uint256"
        },
        {
          "indexed": false,
          "internalType": "bool",
          "name": "withoutIssues",
          "type": "bool"
        },
        {
          "indexed": false,
          "internalType": "uint256",
          "name": "amount",
          "type": "uint256"
        }
      ],
      "name": "CryptoRentPaid",
      "type": "event"
    },
    {
      "anonymous": false,
      "inputs": [
        {
          "indexed": false,
          "internalType": "uint256",
          "name": "leaseId",
          "type": "uint256"
        },
        {
          "indexed": false,
          "internalType": "uint256",
          "name": "rentId",
          "type": "uint256"
        },
        {
          "indexed": false,
          "internalType": "bool",
          "name": "withoutIssues",
          "type": "bool"
        },
        {
          "indexed": false,
          "internalType": "uint256",
          "name": "amount",
          "type": "uint256"
        },
        {
          "indexed": false,
          "internalType": "int256",
          "name": "exchangeRate",
          "type": "int256"
        },
        {
          "indexed": false,
          "internalType": "uint256",
          "name": "exchangeRateTimestamp",
          "type": "uint256"
        }
      ],
      "name": "FiatRentPaid",
      "type": "event"
    },
    {
      "anonymous": false,
      "inputs": [
        {
          "indexed": true,
          "internalType": "bytes32",
          "name": "role",
          "type": "bytes32"
        },
        {
          "indexed": true,
          "internalType": "bytes32",
          "name": "previousAdminRole",
          "type": "bytes32"
        },
        {
          "indexed": true,
          "internalType": "bytes32",
          "name": "newAdminRole",
          "type": "bytes32"
        }
      ],
      "name": "RoleAdminChanged",
      "type": "event"
    },
    {
      "anonymous": false,
      "inputs": [
        {
          "indexed": true,
          "internalType": "bytes32",
          "name": "role",
          "type": "bytes32"
        },
        {
          "indexed": true,
          "internalType": "address",
          "name": "account",
          "type": "address"
        },
        {
          "indexed": true,
          "internalType": "address",
          "name": "sender",
          "type": "address"
        }
      ],
      "name": "RoleGranted",
      "type": "event"
    },
    {
      "anonymous": false,
      "inputs": [
        {
          "indexed": true,
          "internalType": "bytes32",
          "name": "role",
          "type": "bytes32"
        },
        {
          "indexed": true,
          "internalType": "address",
          "name": "account",
          "type": "address"
        },
        {
          "indexed": true,
          "internalType": "address",
          "name": "sender",
          "type": "address"
        }
      ],
      "name": "RoleRevoked",
      "type": "event"
    },
    {
      "inputs": [],
      "name": "DEFAULT_ADMIN_ROLE",
      "outputs": [
        {
          "internalType": "bytes32",
          "name": "",
          "type": "bytes32"
        }
      ],
      "stateMutability": "view",
      "type": "function"
    },
    {
      "inputs": [
        {
          "internalType": "bytes32",
          "name": "role",
          "type": "bytes32"
        }
      ],
      "name": "getRoleAdmin",
      "outputs": [
        {
          "internalType": "bytes32",
          "name": "",
          "type": "bytes32"
        }
      ],
      "stateMutability": "view",
      "type": "function"
    },
    {
      "inputs": [
        {
          "internalType": "bytes32",
          "name": "role",
          "type": "bytes32"
        },
        {
          "internalType": "address",
          "name": "account",
          "type": "address"
        }
      ],
      "name": "grantRole",
      "outputs": [],
      "stateMutability": "nonpayable",
      "type": "function"
    },
    {
      "inputs": [
        {
          "internalType": "bytes32",
          "name": "role",
          "type": "bytes32"
        },
        {
          "internalType": "address",
          "name": "account",
          "type": "address"
        }
      ],
      "name": "hasRole",
      "outputs": [
        {
          "internalType": "bool",
          "name": "",
          "type": "bool"
        }
      ],
      "stateMutability": "view",
      "type": "function"
    },
    {
      "inputs": [
        {
          "internalType": "uint256",
          "name": "_profileId",
          "type": "uint256"
        },
        {
          "internalType": "uint256",
          "name": "_leaseId",
          "type": "uint256"
        },
        {
          "internalType": "uint256",
          "name": "_rentId",
          "type": "uint256"
        },
        {
          "internalType": "bool",
          "name": "_withoutIssues",
          "type": "bool"
        }
      ],
      "name": "payCryptoRent",
      "outputs": [],
      "stateMutability": "payable",
      "type": "function"
    },
    {
      "inputs": [
        {
          "internalType": "uint256",
          "name": "_profileId",
          "type": "uint256"
        },
        {
          "internalType": "uint256",
          "name": "_leaseId",
          "type": "uint256"
        },
        {
          "internalType": "uint256",
          "name": "_rentId",
          "type": "uint256"
        },
        {
          "internalType": "bool",
          "name": "_withoutIssues",
          "type": "bool"
        }
      ],
      "name": "payFiatRentInEth",
      "outputs": [],
      "stateMutability": "payable",
      "type": "function"
    },
    {
      "inputs": [
        {
          "internalType": "uint256",
          "name": "_profileId",
          "type": "uint256"
        },
        {
          "internalType": "uint256",
          "name": "_leaseId",
          "type": "uint256"
        },
        {
          "internalType": "uint256",
          "name": "_rentId",
          "type": "uint256"
        },
        {
          "internalType": "bool",
          "name": "_withoutIssues",
          "type": "bool"
        },
        {
          "internalType": "uint256",
          "name": "_amountInSmallestDecimal",
          "type": "uint256"
        }
      ],
      "name": "payFiatRentInToken",
      "outputs": [],
      "stateMutability": "nonpayable",
      "type": "function"
    },
    {
      "inputs": [],
      "name": "protocolFeeRate",
      "outputs": [
        {
          "internalType": "uint16",
          "name": "",
          "type": "uint16"
        }
      ],
      "stateMutability": "view",
      "type": "function"
    },
    {
      "inputs": [],
      "name": "protocolWallet",
      "outputs": [
        {
          "internalType": "address payable",
          "name": "",
          "type": "address"
        }
      ],
      "stateMutability": "view",
      "type": "function"
    },
    {
      "inputs": [
        {
          "internalType": "bytes32",
          "name": "role",
          "type": "bytes32"
        },
        {
          "internalType": "address",
          "name": "account",
          "type": "address"
        }
      ],
      "name": "renounceRole",
      "outputs": [],
      "stateMutability": "nonpayable",
      "type": "function"
    },
    {
      "inputs": [
        {
          "internalType": "bytes32",
          "name": "role",
          "type": "bytes32"
        },
        {
          "internalType": "address",
          "name": "account",
          "type": "address"
        }
      ],
      "name": "revokeRole",
      "outputs": [],
      "stateMutability": "nonpayable",
      "type": "function"
    },
    {
      "inputs": [
        {
          "internalType": "bytes4",
          "name": "interfaceId",
          "type": "bytes4"
        }
      ],
      "name": "supportsInterface",
      "outputs": [
        {
          "internalType": "bool",
          "name": "",
          "type": "bool"
        }
      ],
      "stateMutability": "view",
      "type": "function"
    },
    {
      "inputs": [
        {
          "internalType": "uint16",
          "name": "_protocolFeeRate",
          "type": "uint16"
        }
      ],
      "name": "updateProtocolFeeRate",
      "outputs": [],
      "stateMutability": "nonpayable",
      "type": "function"
    },
    {
      "inputs": [
        {
          "internalType": "address payable",
          "name": "_protocolWallet",
          "type": "address"
        }
      ],
      "name": "updateProtocolWallet",
      "outputs": [],
      "stateMutability": "nonpayable",
      "type": "function"
    }
  ],
  "bytecode": "0x60806040526001805460ff191660c81790553480156200001e57600080fd5b5060405162002ffa38038062002ffa833981016040819052620000419162000432565b6200004e600033620000bf565b60018054610100600160a81b0319166101006001600160a01b038781169190910291909117909155600280546001600160a01b03199081168684161790915560038054821685841617905560048054909116918316919091179055620000b56064620000cf565b50505050620005ef565b620000cb8282620000ff565b5050565b6000620000dc8162000187565b506005805461ffff909216600160a01b0261ffff60a01b19909216919091179055565b6200010b828262000196565b620000cb576000828152602081815260408083206001600160a01b03851684529091529020805460ff19166001179055620001433390565b6001600160a01b0316816001600160a01b0316837f2f8788117e7eff1d82e926ec794901d17c78024a50270940304540a733656f0d60405160405180910390a45050565b620001938133620001c1565b50565b6000828152602081815260408083206001600160a01b038516845290915290205460ff165b92915050565b620001cd828262000196565b620000cb57620001e8816200024260201b62001d1b1760201c565b620001fe83602062001d2d62000255821b17811c565b60405160200162000211929190620004b5565b60408051601f198184030181529082905262461bcd60e51b825262000239916004016200052e565b60405180910390fd5b6060620001bb6001600160a01b03831660145b606060006200026683600262000579565b6200027390600262000593565b6001600160401b038111156200028d576200028d620005a9565b6040519080825280601f01601f191660200182016040528015620002b8576020820181803683370190505b509050600360fc1b81600081518110620002d657620002d6620005bf565b60200101906001600160f81b031916908160001a905350600f60fb1b81600181518110620003085762000308620005bf565b60200101906001600160f81b031916908160001a90535060006200032e84600262000579565b6200033b90600162000593565b90505b6001811115620003bd576f181899199a1a9b1b9c1cb0b131b232b360811b85600f1660108110620003735762000373620005bf565b1a60f81b8282815181106200038c576200038c620005bf565b60200101906001600160f81b031916908160001a90535060049490941c93620003b581620005d5565b90506200033e565b5083156200040e5760405162461bcd60e51b815260206004820181905260248201527f537472696e67733a20686578206c656e67746820696e73756666696369656e74604482015260640162000239565b9392505050565b80516001600160a01b03811681146200042d57600080fd5b919050565b600080600080608085870312156200044957600080fd5b620004548562000415565b9350620004646020860162000415565b9250620004746040860162000415565b9150620004846060860162000415565b905092959194509250565b60005b83811015620004ac57818101518382015260200162000492565b50506000910152565b7f416363657373436f6e74726f6c3a206163636f756e7420000000000000000000815260008351620004ef8160178501602088016200048f565b7001034b99036b4b9b9b4b733903937b6329607d1b6017918401918201528351620005228160288401602088016200048f565b01602801949350505050565b60208152600082518060208401526200054f8160408501602087016200048f565b601f01601f19169190910160400192915050565b634e487b7160e01b600052601160045260246000fd5b8082028115828204841417620001bb57620001bb62000563565b80820180821115620001bb57620001bb62000563565b634e487b7160e01b600052604160045260246000fd5b634e487b7160e01b600052603260045260246000fd5b600081620005e757620005e762000563565b506000190190565b6129fb80620005ff6000396000f3fe6080604052600436106100dd5760003560e01c80633ba2b7c31161007f57806391d148541161005957806391d148541461026a578063a217fddf1461028a578063d547741f1461029f578063e308a099146102bf57600080fd5b80633ba2b7c31461020257806358f85880146102225780639130f7e51461025757600080fd5b8063248a9ca3116100bb578063248a9ca3146101715780632f2ff15d146101af578063310f02b5146101cf57806336568abe146101e257600080fd5b806301ffc9a7146100e257806306d6e63f146101175780631de9f2b81461014f575b600080fd5b3480156100ee57600080fd5b506101026100fd36600461201f565b6102df565b60405190151581526020015b60405180910390f35b34801561012357600080fd5b50600554610137906001600160a01b031681565b6040516001600160a01b03909116815260200161010e565b34801561015b57600080fd5b5061016f61016a366004612057565b610316565b005b34801561017d57600080fd5b506101a161018c3660046120a0565b60009081526020819052604090206001015490565b60405190815260200161010e565b3480156101bb57600080fd5b5061016f6101ca3660046120ce565b610b74565b61016f6101dd3660046120fe565b610b9e565b3480156101ee57600080fd5b5061016f6101fd3660046120ce565b6112c0565b34801561020e57600080fd5b5061016f61021d36600461214f565b61133e565b34801561022e57600080fd5b5060055461024490600160a01b900461ffff1681565b60405161ffff909116815260200161010e565b61016f6102653660046120fe565b61136c565b34801561027657600080fd5b506101026102853660046120ce565b611c9f565b34801561029657600080fd5b506101a1600081565b3480156102ab57600080fd5b5061016f6102ba3660046120ce565b611cc8565b3480156102cb57600080fd5b5061016f6102da36600461216c565b611ced565b60006001600160e01b03198216637965db0b60e01b148061031057506301ffc9a760e01b6001600160e01b03198316145b92915050565b6001546040516331a9108f60e11b815260048101879052339161010090046001600160a01b031690636352211e90602401602060405180830381865afa158015610364573d6000803e3d6000fd5b505050506040513d601f19601f820116820180604052508101906103889190612189565b6001600160a01b0316146103b75760405162461bcd60e51b81526004016103ae906121a6565b60405180910390fd5b6004805460405162f577a560e81b81529182018690526001600160a01b03169063f577a50090602401600060405180830381600087803b1580156103fa57600080fd5b505af115801561040e573d6000803e3d6000fd5b5050600480546040516327d1195f60e21b8152918201889052600093506001600160a01b03169150639f44657c90602401600060405180830381865afa15801561045c573d6000803e3d6000fd5b505050506040513d6000823e601f3d908101601f19168201604052610484919081019061259f565b9050806020015186146104a95760405162461bcd60e51b81526004016103ae906126f6565b600081610120015160038111156104c2576104c2612743565b146104df5760405162461bcd60e51b81526004016103ae90612759565b600081610140015185815181106104f8576104f8612786565b602002602001015190506001600481111561051557610515612743565b8160800151600481111561052b5761052b612743565b14158061054e575060038160800151600481111561054b5761054b612743565b14155b8061056f575060048160800151600481111561056c5761056c612743565b14155b61058b5760405162461bcd60e51b81526004016103ae9061279c565b60c0820151602001516040516370a0823160e01b815233600482015284906001600160a01b038316906370a0823190602401602060405180830381865afa1580156105da573d6000803e3d6000fd5b505050506040513d601f19601f820116820180604052508101906105fe91906127cc565b101561064c5760405162461bcd60e51b815260206004820152601860248201527f4e6f7420656e6f75676820746f6b656e2062616c616e6365000000000000000060448201526064016103ae565b60025460c08401516040908101519051630d81b5db60e31b815260009283926001600160a01b0390911691636c0daed891610689916004016127e5565b6040805180830381865afa1580156106a5573d6000803e3d6000fd5b505050506040513d601f19601f820116820180604052508101906106c99190612818565b604086018290526060860181905260c08701515191935091506000906106f0908490612852565b600154909150612710906107079060ff1683612852565b6107119190612869565b61071b908261288b565b87101561073a5760405162461bcd60e51b81526004016103ae9061289e565b6001546127109061074e9060ff1683612852565b6107589190612869565b61076290826128c8565b8711156107815760405162461bcd60e51b81526004016103ae9061289e565b600354610160870151604051630a5b03bd60e41b815260048101919091526000916001600160a01b03169063a5b03bd090602401602060405180830381865afa1580156107d2573d6000803e3d6000fd5b505050506040513d601f19601f820116820180604052508101906107f691906128db565b9050600061271061080b61ffff841685612852565b6108159190612869565b6005549091506000906127109061083790600160a01b900461ffff1686612852565b6108419190612869565b6001548a516040516331a9108f60e11b815260048101919091529192506001600160a01b03898116926323b872dd9233926101009091041690636352211e90602401602060405180830381865afa1580156108a0573d6000803e3d6000fd5b505050506040513d601f19601f820116820180604052508101906108c49190612189565b6108ce85876128c8565b6108d8908f61288b565b6040518463ffffffff1660e01b81526004016108f6939291906128f8565b6020604051808303816000875af1158015610915573d6000803e3d6000fd5b505050506040513d601f19601f82011682018060405250810190610939919061291c565b506005546040516323b872dd60e01b81526001600160a01b03808a16926323b872dd9261096e923392169086906004016128f8565b6020604051808303816000875af115801561098d573d6000803e3d6000fd5b505050506040513d601f19601f820116820180604052508101906109b1919061291c565b506003546101608a01516040516331a9108f60e11b815260048101919091526001600160a01b03898116926323b872dd92339290911690636352211e90602401602060405180830381865afa158015610a0e573d6000803e3d6000fd5b505050506040513d601f19601f82011682018060405250810190610a329190612189565b856040518463ffffffff1660e01b8152600401610a51939291906128f8565b6020604051808303816000875af1158015610a70573d6000803e3d6000fd5b505050506040513d601f19601f82011682018060405250810190610a94919061291c565b506004805460405163031982db60e51b81529182018f9052602482018e90528c151560448301526001600160a01b0316906363305b6090606401600060405180830381600087803b158015610ae857600080fd5b505af1158015610afc573d6000803e3d6000fd5b505050507f43de4a3cb1db480811bab43f7a5cb99c70e242076ea2b0736f3c84b163a76dbe8d8d8d8d8a8a604051610b5c96959493929190958652602086019490945291151560408501526060840152608083015260a082015260c00190565b60405180910390a15050505050505050505050505050565b600082815260208190526040902060010154610b8f81611ed0565b610b998383611edd565b505050565b6001546040516331a9108f60e11b815260048101869052339161010090046001600160a01b031690636352211e90602401602060405180830381865afa158015610bec573d6000803e3d6000fd5b505050506040513d601f19601f82011682018060405250810190610c109190612189565b6001600160a01b031614610c365760405162461bcd60e51b81526004016103ae906121a6565b6004805460405162f577a560e81b81529182018590526001600160a01b03169063f577a50090602401600060405180830381600087803b158015610c7957600080fd5b505af1158015610c8d573d6000803e3d6000fd5b5050600480546040516327d1195f60e21b8152918201879052600093506001600160a01b03169150639f44657c90602401600060405180830381865afa158015610cdb573d6000803e3d6000fd5b505050506040513d6000823e601f3d908101601f19168201604052610d03919081019061259f565b905080602001518514610d285760405162461bcd60e51b81526004016103ae906126f6565b60008161012001516003811115610d4157610d41612743565b14610d5e5760405162461bcd60e51b81526004016103ae90612759565b60008161014001518481518110610d7757610d77612786565b6020026020010151905060016004811115610d9457610d94612743565b81608001516004811115610daa57610daa612743565b141580610dcd5750600381608001516004811115610dca57610dca612743565b14155b80610dee5750600481608001516004811115610deb57610deb612743565b14155b610e0a5760405162461bcd60e51b81526004016103ae9061279c565b60025460c08301516040908101519051630d81b5db60e31b815260009283926001600160a01b0390911691636c0daed891610e47916004016127e5565b6040805180830381865afa158015610e63573d6000803e3d6000fd5b505050506040513d601f19601f82011682018060405250810190610e879190612818565b604085018290526060850181905260c0860151519193509150600090610eae908490612852565b60015490915061271090610ec59060ff1683612852565b610ecf9190612869565b610ed9908261288b565b341015610ef85760405162461bcd60e51b81526004016103ae9061289e565b60015461271090610f0c9060ff1683612852565b610f169190612869565b610f2090826128c8565b341115610f3f5760405162461bcd60e51b81526004016103ae9061289e565b600354610160860151604051630a5b03bd60e41b815260048101919091526000916001600160a01b03169063a5b03bd090602401602060405180830381865afa158015610f90573d6000803e3d6000fd5b505050506040513d601f19601f82011682018060405250810190610fb491906128db565b90506000612710610fc961ffff841685612852565b610fd39190612869565b60055490915060009061271090610ff590600160a01b900461ffff1686612852565b610fff9190612869565b60015489516040516331a9108f60e11b8152600481019190915291925061010090046001600160a01b031690636352211e90602401602060405180830381865afa158015611051573d6000803e3d6000fd5b505050506040513d601f19601f820116820180604052508101906110759190612189565b6001600160a01b031661108882846128c8565b611092903461288b565b604051600081818185875af1925050503d80600081146110ce576040519150601f19603f3d011682016040523d82523d6000602084013e6110d3565b606091505b50506005546040516001600160a01b0390911691508290600081818185875af1925050503d8060008114611123576040519150601f19603f3d011682016040523d82523d6000602084013e611128565b606091505b50506003546101608a01516040516331a9108f60e11b815260048101919091526001600160a01b039091169150636352211e90602401602060405180830381865afa15801561117b573d6000803e3d6000fd5b505050506040513d601f19601f8201168201806040525081019061119f9190612189565b6001600160a01b03168260405160006040518083038185875af1925050503d80600081146111e9576040519150601f19603f3d011682016040523d82523d6000602084013e6111ee565b606091505b50506004805460405163031982db60e51b81529182018e9052602482018d90528b151560448301526001600160a01b031691506363305b6090606401600060405180830381600087803b15801561124457600080fd5b505af1158015611258573d6000803e3d6000fd5b5050604080518e8152602081018e90528c151581830152346060820152608081018a905260a0810189905290517f43de4a3cb1db480811bab43f7a5cb99c70e242076ea2b0736f3c84b163a76dbe93509081900360c0019150a1505050505050505050505050565b6001600160a01b03811633146113305760405162461bcd60e51b815260206004820152602f60248201527f416363657373436f6e74726f6c3a2063616e206f6e6c792072656e6f756e636560448201526e103937b632b9903337b91039b2b63360891b60648201526084016103ae565b61133a8282611f61565b5050565b600061134981611ed0565b506005805461ffff909216600160a01b0261ffff60a01b19909216919091179055565b6001546040516331a9108f60e11b815260048101869052339161010090046001600160a01b031690636352211e90602401602060405180830381865afa1580156113ba573d6000803e3d6000fd5b505050506040513d601f19601f820116820180604052508101906113de9190612189565b6001600160a01b0316146114045760405162461bcd60e51b81526004016103ae906121a6565b6004805460405162f577a560e81b81529182018590526001600160a01b03169063f577a50090602401600060405180830381600087803b15801561144757600080fd5b505af115801561145b573d6000803e3d6000fd5b5050600480546040516327d1195f60e21b8152918201879052600093506001600160a01b03169150639f44657c90602401600060405180830381865afa1580156114a9573d6000803e3d6000fd5b505050506040513d6000823e601f3d908101601f191682016040526114d1919081019061259f565b9050806020015185146114f65760405162461bcd60e51b81526004016103ae906126f6565b6000816101200151600381111561150f5761150f612743565b1461152c5760405162461bcd60e51b81526004016103ae90612759565b6000816101400151848151811061154557611545612786565b602002602001015190506001600481111561156257611562612743565b8160800151600481111561157857611578612743565b14158061159b575060038160800151600481111561159857611598612743565b14155b806115bc57506004816080015160048111156115b9576115b9612743565b14155b6115d85760405162461bcd60e51b81526004016103ae9061279c565b60c0820151602001516001600160a01b031661163c5760c08201515134146116375760405162461bcd60e51b81526020600482015260126024820152714e6f6e2d6d61746368696e672066756e647360701b60448201526064016103ae565b61167f565b341561167f5760405162461bcd60e51b81526020600482015260126024820152714e6f6e2d6d61746368696e672066756e647360701b60448201526064016103ae565b600354610160830151604051630a5b03bd60e41b815260048101919091526000916001600160a01b03169063a5b03bd090602401602060405180830381865afa1580156116d0573d6000803e3d6000fd5b505050506040513d601f19601f820116820180604052508101906116f491906128db565b60c084015151909150600090612710906117139061ffff851690612852565b61171d9190612869565b60055460c0860151519192506000916127109161174691600160a01b90910461ffff1690612852565b6117509190612869565b60c0860151602001519091506001600160a01b03166000036119615760015485516040516331a9108f60e11b815260048101919091526101009091046001600160a01b031690636352211e90602401602060405180830381865afa1580156117bc573d6000803e3d6000fd5b505050506040513d601f19601f820116820180604052508101906117e09190612189565b6001600160a01b03166117f382846128c8565b6117fd903461288b565b604051600081818185875af1925050503d8060008114611839576040519150601f19603f3d011682016040523d82523d6000602084013e61183e565b606091505b50506005546040516001600160a01b0390911691508290600081818185875af1925050503d806000811461188e576040519150601f19603f3d011682016040523d82523d6000602084013e611893565b606091505b50506003546101608701516040516331a9108f60e11b815260048101919091526001600160a01b039091169150636352211e90602401602060405180830381865afa1580156118e6573d6000803e3d6000fd5b505050506040513d601f19601f8201168201806040525081019061190a9190612189565b6001600160a01b03168260405160006040518083038185875af1925050503d8060008114611954576040519150601f19603f3d011682016040523d82523d6000602084013e611959565b606091505b505050611be1565b60c08501516020015160015486516040516331a9108f60e11b81526001600160a01b03938416936323b872dd93339361010090910490911691636352211e916119b09160040190815260200190565b602060405180830381865afa1580156119cd573d6000803e3d6000fd5b505050506040513d601f19601f820116820180604052508101906119f19190612189565b6119fb85876128c8565b60c08a015151611a0b919061288b565b6040518463ffffffff1660e01b8152600401611a29939291906128f8565b6020604051808303816000875af1158015611a48573d6000803e3d6000fd5b505050506040513d601f19601f82011682018060405250810190611a6c919061291c565b5060c0850151602001516005546040516323b872dd60e01b81526001600160a01b03928316926323b872dd92611aac9233929091169086906004016128f8565b6020604051808303816000875af1158015611acb573d6000803e3d6000fd5b505050506040513d601f19601f82011682018060405250810190611aef919061291c565b5060c0850151602001516003546101608701516040516331a9108f60e11b81526001600160a01b03938416936323b872dd933393911691636352211e91611b3c9160040190815260200190565b602060405180830381865afa158015611b59573d6000803e3d6000fd5b505050506040513d601f19601f82011682018060405250810190611b7d9190612189565b856040518463ffffffff1660e01b8152600401611b9c939291906128f8565b6020604051808303816000875af1158015611bbb573d6000803e3d6000fd5b505050506040513d601f19601f82011682018060405250810190611bdf919061291c565b505b6004805460405163031982db60e51b81529182018a90526024820189905287151560448301526001600160a01b0316906363305b6090606401600060405180830381600087803b158015611c3457600080fd5b505af1158015611c48573d6000803e3d6000fd5b5050604080518b8152602081018b90528915158183015234606082015290517f9f156b31b6d7fa9704e1ce08eae240657807a5454f6a1722bdd732b8137ca3a99350908190036080019150a1505050505050505050565b6000918252602082815260408084206001600160a01b0393909316845291905290205460ff1690565b600082815260208190526040902060010154611ce381611ed0565b610b998383611f61565b6000611cf881611ed0565b50600580546001600160a01b0319166001600160a01b0392909216919091179055565b60606103106001600160a01b03831660145b60606000611d3c836002612852565b611d479060026128c8565b67ffffffffffffffff811115611d5f57611d5f6121dd565b6040519080825280601f01601f191660200182016040528015611d89576020820181803683370190505b509050600360fc1b81600081518110611da457611da4612786565b60200101906001600160f81b031916908160001a905350600f60fb1b81600181518110611dd357611dd3612786565b60200101906001600160f81b031916908160001a9053506000611df7846002612852565b611e029060016128c8565b90505b6001811115611e7a576f181899199a1a9b1b9c1cb0b131b232b360811b85600f1660108110611e3657611e36612786565b1a60f81b828281518110611e4c57611e4c612786565b60200101906001600160f81b031916908160001a90535060049490941c93611e7381612939565b9050611e05565b508315611ec95760405162461bcd60e51b815260206004820181905260248201527f537472696e67733a20686578206c656e67746820696e73756666696369656e7460448201526064016103ae565b9392505050565b611eda8133611fc6565b50565b611ee78282611c9f565b61133a576000828152602081815260408083206001600160a01b03851684529091529020805460ff19166001179055611f1d3390565b6001600160a01b0316816001600160a01b0316837f2f8788117e7eff1d82e926ec794901d17c78024a50270940304540a733656f0d60405160405180910390a45050565b611f6b8282611c9f565b1561133a576000828152602081815260408083206001600160a01b0385168085529252808320805460ff1916905551339285917ff6391f5c32d9c69d2a47ea670b442974b53935d1edc7fd64eb21e047a839171b9190a45050565b611fd08282611c9f565b61133a57611fdd81611d1b565b611fe8836020611d2d565b604051602001611ff9929190612950565b60408051601f198184030181529082905262461bcd60e51b82526103ae916004016127e5565b60006020828403121561203157600080fd5b81356001600160e01b031981168114611ec957600080fd5b8015158114611eda57600080fd5b600080600080600060a0868803121561206f57600080fd5b853594506020860135935060408601359250606086013561208f81612049565b949793965091946080013592915050565b6000602082840312156120b257600080fd5b5035919050565b6001600160a01b0381168114611eda57600080fd5b600080604083850312156120e157600080fd5b8235915060208301356120f3816120b9565b809150509250929050565b6000806000806080858703121561211457600080fd5b843593506020850135925060408501359150606085013561213481612049565b939692955090935050565b61ffff81168114611eda57600080fd5b60006020828403121561216157600080fd5b8135611ec98161213f565b60006020828403121561217e57600080fd5b8135611ec9816120b9565b60006020828403121561219b57600080fd5b8151611ec9816120b9565b60208082526018908201527f4c656173653a204e6f742054727573744964206f776e65720000000000000000604082015260600190565b634e487b7160e01b600052604160045260246000fd5b60405160a0810167ffffffffffffffff81118282101715612216576122166121dd565b60405290565b6040516101a0810167ffffffffffffffff81118282101715612216576122166121dd565b604051601f8201601f1916810167ffffffffffffffff81118282101715612269576122696121dd565b604052919050565b805160ff8116811461228257600080fd5b919050565b60005b838110156122a257818101518382015260200161228a565b50506000910152565b600082601f8301126122bc57600080fd5b815167ffffffffffffffff8111156122d6576122d66121dd565b6122e9601f8201601f1916602001612240565b8181528460208386010111156122fe57600080fd5b61230f826020830160208701612287565b949350505050565b60006060828403121561232957600080fd5b6040516060810167ffffffffffffffff828210818311171561234d5761234d6121dd565b816040528293508451835260208501519150612368826120b9565b816020840152604085015191508082111561238257600080fd5b5061238f858286016122ab565b6040830152505092915050565b6000608082840312156123ae57600080fd5b6040516080810167ffffffffffffffff82821081831117156123d2576123d26121dd565b81604052829350845191506123e682612049565b9082526020840151906123f882612049565b816020840152604085015191508082111561241257600080fd5b61241e868387016122ab565b6040840152606085015191508082111561243757600080fd5b50612444858286016122ab565b6060830152505092915050565b60006040828403121561246357600080fd5b6040516040810181811067ffffffffffffffff82111715612486576124866121dd565b8060405250809150825161249981612049565b815260208301516124a981612049565b6020919091015292915050565b80516004811061228257600080fd5b600082601f8301126124d657600080fd5b8151602067ffffffffffffffff8211156124f2576124f26121dd565b60056125018284831b01612240565b83815260a0938402860183019383820191908886111561252057600080fd5b8488015b868110156125915781818b03121561253c5760008081fd5b6125446121f3565b815181528682015161255581612049565b8188015260408281015190820152606080830151908201526080808301518781106125805760008081fd5b908201528452928501928101612524565b509098975050505050505050565b6000602082840312156125b157600080fd5b815167ffffffffffffffff808211156125c957600080fd5b908301906101c082860312156125de57600080fd5b6125e661221c565b825181526020830151602082015261260060408401612271565b6040820152606083015160608201526080830151608082015260a08301518281111561262b57600080fd5b612637878286016122ab565b60a08301525060c08301518281111561264f57600080fd5b61265b87828601612317565b60c08301525060e08301518281111561267357600080fd5b61267f8782860161239c565b60e08301525061010061269487828601612451565b908201526101406126a68482016124b6565b61012083015261016080850151848111156126c057600080fd5b6126cc898288016124c5565b83850152506101809350838501518184015250506101a08301518282015280935050505092915050565b6020808252602d908201527f4c656173653a204f6e6c79207468652074656e616e742063616e2063616c6c2060408201526c3a3434b990333ab731ba34b7b760991b606082015260800190565b634e487b7160e01b600052602160045260246000fd5b6020808252601390820152724c65617365206973206e6f742041637469766560681b604082015260600190565b634e487b7160e01b600052603260045260246000fd5b6020808252601690820152755061796d656e74206973206e6f742070656e64696e6760501b604082015260600190565b6000602082840312156127de57600080fd5b5051919050565b6020815260008251806020840152612804816040850160208701612287565b601f01601f19169190910160400192915050565b6000806040838503121561282b57600080fd5b505080516020909101519092909150565b634e487b7160e01b600052601160045260246000fd5b80820281158282048414176103105761031061283c565b60008261288657634e487b7160e01b600052601260045260246000fd5b500490565b818103818111156103105761031061283c565b60208082526010908201526f57726f6e672072656e742076616c756560801b604082015260600190565b808201808211156103105761031061283c565b6000602082840312156128ed57600080fd5b8151611ec98161213f565b6001600160a01b039384168152919092166020820152604081019190915260600190565b60006020828403121561292e57600080fd5b8151611ec981612049565b6000816129485761294861283c565b506000190190565b7f416363657373436f6e74726f6c3a206163636f756e7420000000000000000000815260008351612988816017850160208801612287565b7001034b99036b4b9b9b4b733903937b6329607d1b60179184019182015283516129b9816028840160208801612287565b0160280194935050505056fea264697066735822122061f941a9e3062033c36e7c79be866c90986c9d777e67ee13cd15a6b4824a348a64736f6c63430008110033",
  "linkReferences": {},
  "deployedLinkReferences": {}
}