{
  "_format": "hh-sol-artifact-1",
  "contractName": "PlatformId",
  "sourceName": "contracts/PlatformId.sol",
  "abi": [
    {
      "inputs": [],
      "stateMutability": "nonpayable",
      "type": "constructor"
    },
    {
      "inputs": [],
      "name": "HandleContainsInvalidCharacters",
      "type": "error"
    },
    {
      "inputs": [],
      "name": "HandleFirstCharInvalid",
      "type": "error"
    },
    {
      "inputs": [],
      "name": "HandleLengthInvalid",
      "type": "error"
    },
    {
      "anonymous": false,
      "inputs": [
        {
          "indexed": true,
          "internalType": "address",
          "name": "owner",
          "type": "address"
        },
        {
          "indexed": true,
          "internalType": "address",
          "name": "approved",
          "type": "address"
        },
        {
          "indexed": true,
          "internalType": "uint256",
          "name": "tokenId",
          "type": "uint256"
        }
      ],
      "name": "Approval",
      "type": "event"
    },
    {
      "anonymous": false,
      "inputs": [
        {
          "indexed": true,
          "internalType": "address",
          "name": "owner",
          "type": "address"
        },
        {
          "indexed": true,
          "internalType": "address",
          "name": "operator",
          "type": "address"
        },
        {
          "indexed": false,
          "internalType": "bool",
          "name": "approved",
          "type": "bool"
        }
      ],
      "name": "ApprovalForAll",
      "type": "event"
    },
    {
      "anonymous": false,
      "inputs": [
        {
          "indexed": true,
          "internalType": "uint256",
          "name": "platformId",
          "type": "uint256"
        },
        {
          "indexed": false,
          "internalType": "string",
          "name": "newCid",
          "type": "string"
        }
      ],
      "name": "CidUpdated",
      "type": "event"
    },
    {
      "anonymous": false,
      "inputs": [
        {
          "indexed": false,
          "internalType": "uint256",
          "name": "platformId",
          "type": "uint256"
        },
        {
          "indexed": false,
          "internalType": "uint256",
          "name": "leasePostingFee",
          "type": "uint256"
        }
      ],
      "name": "LeasePostingFeeUpdated",
      "type": "event"
    },
    {
      "anonymous": false,
      "inputs": [
        {
          "indexed": true,
          "internalType": "address",
          "name": "platformOwnerAddress",
          "type": "address"
        },
        {
          "indexed": false,
          "internalType": "uint256",
          "name": "platformId",
          "type": "uint256"
        },
        {
          "indexed": false,
          "internalType": "string",
          "name": "platformName",
          "type": "string"
        },
        {
          "indexed": false,
          "internalType": "uint256",
          "name": "fee",
          "type": "uint256"
        }
      ],
      "name": "Mint",
      "type": "event"
    },
    {
      "anonymous": false,
      "inputs": [
        {
          "indexed": false,
          "internalType": "uint256",
          "name": "mintFee",
          "type": "uint256"
        }
      ],
      "name": "MintFeeUpdated",
      "type": "event"
    },
    {
      "anonymous": false,
      "inputs": [
        {
          "indexed": false,
          "internalType": "uint256",
          "name": "platformId",
          "type": "uint256"
        },
        {
          "indexed": false,
          "internalType": "uint16",
          "name": "originLeaseFeeRate",
          "type": "uint16"
        }
      ],
      "name": "OriginLeaseFeeRateUpdated",
      "type": "event"
    },
    {
      "anonymous": false,
      "inputs": [
        {
          "indexed": false,
          "internalType": "uint256",
          "name": "platformId",
          "type": "uint256"
        },
        {
          "indexed": false,
          "internalType": "uint16",
          "name": "originProposalFeeRate",
          "type": "uint16"
        }
      ],
      "name": "OriginProposalFeeRateUpdated",
      "type": "event"
    },
    {
      "anonymous": false,
      "inputs": [
        {
          "indexed": false,
          "internalType": "uint256",
          "name": "platformId",
          "type": "uint256"
        },
        {
          "indexed": false,
          "internalType": "uint256",
          "name": "proposalPostingFee",
          "type": "uint256"
        }
      ],
      "name": "ProposalPostingFeeUpdated",
      "type": "event"
    },
    {
      "anonymous": false,
      "inputs": [
        {
          "indexed": true,
          "internalType": "bytes32",
          "name": "role",
          "type": "bytes32"
        },
        {
          "indexed": true,
          "internalType": "bytes32",
          "name": "previousAdminRole",
          "type": "bytes32"
        },
        {
          "indexed": true,
          "internalType": "bytes32",
          "name": "newAdminRole",
          "type": "bytes32"
        }
      ],
      "name": "RoleAdminChanged",
      "type": "event"
    },
    {
      "anonymous": false,
      "inputs": [
        {
          "indexed": true,
          "internalType": "bytes32",
          "name": "role",
          "type": "bytes32"
        },
        {
          "indexed": true,
          "internalType": "address",
          "name": "account",
          "type": "address"
        },
        {
          "indexed": true,
          "internalType": "address",
          "name": "sender",
          "type": "address"
        }
      ],
      "name": "RoleGranted",
      "type": "event"
    },
    {
      "anonymous": false,
      "inputs": [
        {
          "indexed": true,
          "internalType": "bytes32",
          "name": "role",
          "type": "bytes32"
        },
        {
          "indexed": true,
          "internalType": "address",
          "name": "account",
          "type": "address"
        },
        {
          "indexed": true,
          "internalType": "address",
          "name": "sender",
          "type": "address"
        }
      ],
      "name": "RoleRevoked",
      "type": "event"
    },
    {
      "anonymous": false,
      "inputs": [
        {
          "indexed": true,
          "internalType": "address",
          "name": "from",
          "type": "address"
        },
        {
          "indexed": true,
          "internalType": "address",
          "name": "to",
          "type": "address"
        },
        {
          "indexed": true,
          "internalType": "uint256",
          "name": "tokenId",
          "type": "uint256"
        }
      ],
      "name": "Transfer",
      "type": "event"
    },
    {
      "inputs": [],
      "name": "DEFAULT_ADMIN_ROLE",
      "outputs": [
        {
          "internalType": "bytes32",
          "name": "",
          "type": "bytes32"
        }
      ],
      "stateMutability": "view",
      "type": "function"
    },
    {
      "inputs": [],
      "name": "MINT_ROLE",
      "outputs": [
        {
          "internalType": "bytes32",
          "name": "",
          "type": "bytes32"
        }
      ],
      "stateMutability": "view",
      "type": "function"
    },
    {
      "inputs": [
        {
          "internalType": "address",
          "name": "to",
          "type": "address"
        },
        {
          "internalType": "uint256",
          "name": "tokenId",
          "type": "uint256"
        }
      ],
      "name": "approve",
      "outputs": [],
      "stateMutability": "nonpayable",
      "type": "function"
    },
    {
      "inputs": [
        {
          "internalType": "address",
          "name": "owner",
          "type": "address"
        }
      ],
      "name": "balanceOf",
      "outputs": [
        {
          "internalType": "uint256",
          "name": "",
          "type": "uint256"
        }
      ],
      "stateMutability": "view",
      "type": "function"
    },
    {
      "inputs": [
        {
          "internalType": "uint256",
          "name": "tokenId",
          "type": "uint256"
        }
      ],
      "name": "getApproved",
      "outputs": [
        {
          "internalType": "address",
          "name": "",
          "type": "address"
        }
      ],
      "stateMutability": "view",
      "type": "function"
    },
    {
      "inputs": [
        {
          "internalType": "uint256",
          "name": "_platformId",
          "type": "uint256"
        }
      ],
      "name": "getLeasePostingFee",
      "outputs": [
        {
          "internalType": "uint256",
          "name": "",
          "type": "uint256"
        }
      ],
      "stateMutability": "view",
      "type": "function"
    },
    {
      "inputs": [
        {
          "internalType": "uint256",
          "name": "_platformId",
          "type": "uint256"
        }
      ],
      "name": "getOriginLeaseFeeRate",
      "outputs": [
        {
          "internalType": "uint16",
          "name": "",
          "type": "uint16"
        }
      ],
      "stateMutability": "view",
      "type": "function"
    },
    {
      "inputs": [
        {
          "internalType": "uint256",
          "name": "_platformId",
          "type": "uint256"
        }
      ],
      "name": "getOriginProposalFeeRate",
      "outputs": [
        {
          "internalType": "uint16",
          "name": "",
          "type": "uint16"
        }
      ],
      "stateMutability": "view",
      "type": "function"
    },
    {
      "inputs": [
        {
          "internalType": "uint256",
          "name": "_platformId",
          "type": "uint256"
        }
      ],
      "name": "getPlatform",
      "outputs": [
        {
          "components": [
            {
              "internalType": "uint256",
              "name": "id",
              "type": "uint256"
            },
            {
              "internalType": "string",
              "name": "name",
              "type": "string"
            },
            {
              "internalType": "string",
              "name": "dataUri",
              "type": "string"
            },
            {
              "internalType": "uint16",
              "name": "originLeaseFeeRate",
              "type": "uint16"
            },
            {
              "internalType": "uint16",
              "name": "originProposalFeeRate",
              "type": "uint16"
            },
            {
              "internalType": "uint256",
              "name": "leasePostingFee",
              "type": "uint256"
            },
            {
              "internalType": "uint256",
              "name": "proposalPostingFee",
              "type": "uint256"
            }
          ],
          "internalType": "struct PlatformId.Platform",
          "name": "",
          "type": "tuple"
        }
      ],
      "stateMutability": "view",
      "type": "function"
    },
    {
      "inputs": [
        {
          "internalType": "uint256",
          "name": "_platformId",
          "type": "uint256"
        }
      ],
      "name": "getProposalPostingFee",
      "outputs": [
        {
          "internalType": "uint256",
          "name": "",
          "type": "uint256"
        }
      ],
      "stateMutability": "view",
      "type": "function"
    },
    {
      "inputs": [
        {
          "internalType": "bytes32",
          "name": "role",
          "type": "bytes32"
        }
      ],
      "name": "getRoleAdmin",
      "outputs": [
        {
          "internalType": "bytes32",
          "name": "",
          "type": "bytes32"
        }
      ],
      "stateMutability": "view",
      "type": "function"
    },
    {
      "inputs": [
        {
          "internalType": "bytes32",
          "name": "role",
          "type": "bytes32"
        },
        {
          "internalType": "address",
          "name": "account",
          "type": "address"
        }
      ],
      "name": "grantRole",
      "outputs": [],
      "stateMutability": "nonpayable",
      "type": "function"
    },
    {
      "inputs": [
        {
          "internalType": "bytes32",
          "name": "role",
          "type": "bytes32"
        },
        {
          "internalType": "address",
          "name": "account",
          "type": "address"
        }
      ],
      "name": "hasRole",
      "outputs": [
        {
          "internalType": "bool",
          "name": "",
          "type": "bool"
        }
      ],
      "stateMutability": "view",
      "type": "function"
    },
    {
      "inputs": [
        {
          "internalType": "address",
          "name": "",
          "type": "address"
        }
      ],
      "name": "ids",
      "outputs": [
        {
          "internalType": "uint256",
          "name": "",
          "type": "uint256"
        }
      ],
      "stateMutability": "view",
      "type": "function"
    },
    {
      "inputs": [
        {
          "internalType": "address",
          "name": "owner",
          "type": "address"
        },
        {
          "internalType": "address",
          "name": "operator",
          "type": "address"
        }
      ],
      "name": "isApprovedForAll",
      "outputs": [
        {
          "internalType": "bool",
          "name": "",
          "type": "bool"
        }
      ],
      "stateMutability": "view",
      "type": "function"
    },
    {
      "inputs": [
        {
          "internalType": "uint256",
          "name": "_platformId",
          "type": "uint256"
        }
      ],
      "name": "isValid",
      "outputs": [],
      "stateMutability": "view",
      "type": "function"
    },
    {
      "inputs": [
        {
          "internalType": "string",
          "name": "_platformName",
          "type": "string"
        }
      ],
      "name": "mint",
      "outputs": [
        {
          "internalType": "uint256",
          "name": "",
          "type": "uint256"
        }
      ],
      "stateMutability": "payable",
      "type": "function"
    },
    {
      "inputs": [],
      "name": "mintFee",
      "outputs": [
        {
          "internalType": "uint256",
          "name": "",
          "type": "uint256"
        }
      ],
      "stateMutability": "view",
      "type": "function"
    },
    {
      "inputs": [
        {
          "internalType": "string",
          "name": "_platformName",
          "type": "string"
        },
        {
          "internalType": "address",
          "name": "_platformAddress",
          "type": "address"
        }
      ],
      "name": "mintForAddress",
      "outputs": [
        {
          "internalType": "uint256",
          "name": "",
          "type": "uint256"
        }
      ],
      "stateMutability": "payable",
      "type": "function"
    },
    {
      "inputs": [],
      "name": "name",
      "outputs": [
        {
          "internalType": "string",
          "name": "",
          "type": "string"
        }
      ],
      "stateMutability": "view",
      "type": "function"
    },
    {
      "inputs": [
        {
          "internalType": "uint256",
          "name": "tokenId",
          "type": "uint256"
        }
      ],
      "name": "ownerOf",
      "outputs": [
        {
          "internalType": "address",
          "name": "",
          "type": "address"
        }
      ],
      "stateMutability": "view",
      "type": "function"
    },
    {
      "inputs": [
        {
          "internalType": "uint256",
          "name": "",
          "type": "uint256"
        }
      ],
      "name": "platforms",
      "outputs": [
        {
          "internalType": "uint256",
          "name": "id",
          "type": "uint256"
        },
        {
          "internalType": "string",
          "name": "name",
          "type": "string"
        },
        {
          "internalType": "string",
          "name": "dataUri",
          "type": "string"
        },
        {
          "internalType": "uint16",
          "name": "originLeaseFeeRate",
          "type": "uint16"
        },
        {
          "internalType": "uint16",
          "name": "originProposalFeeRate",
          "type": "uint16"
        },
        {
          "internalType": "uint256",
          "name": "leasePostingFee",
          "type": "uint256"
        },
        {
          "internalType": "uint256",
          "name": "proposalPostingFee",
          "type": "uint256"
        }
      ],
      "stateMutability": "view",
      "type": "function"
    },
    {
      "inputs": [
        {
          "internalType": "bytes32",
          "name": "role",
          "type": "bytes32"
        },
        {
          "internalType": "address",
          "name": "account",
          "type": "address"
        }
      ],
      "name": "renounceRole",
      "outputs": [],
      "stateMutability": "nonpayable",
      "type": "function"
    },
    {
      "inputs": [
        {
          "internalType": "bytes32",
          "name": "role",
          "type": "bytes32"
        },
        {
          "internalType": "address",
          "name": "account",
          "type": "address"
        }
      ],
      "name": "revokeRole",
      "outputs": [],
      "stateMutability": "nonpayable",
      "type": "function"
    },
    {
      "inputs": [
        {
          "internalType": "address",
          "name": "from",
          "type": "address"
        },
        {
          "internalType": "address",
          "name": "to",
          "type": "address"
        },
        {
          "internalType": "uint256",
          "name": "tokenId",
          "type": "uint256"
        }
      ],
      "name": "safeTransferFrom",
      "outputs": [],
      "stateMutability": "nonpayable",
      "type": "function"
    },
    {
      "inputs": [
        {
          "internalType": "address",
          "name": "from",
          "type": "address"
        },
        {
          "internalType": "address",
          "name": "to",
          "type": "address"
        },
        {
          "internalType": "uint256",
          "name": "tokenId",
          "type": "uint256"
        },
        {
          "internalType": "bytes",
          "name": "data",
          "type": "bytes"
        }
      ],
      "name": "safeTransferFrom",
      "outputs": [],
      "stateMutability": "nonpayable",
      "type": "function"
    },
    {
      "inputs": [
        {
          "internalType": "address",
          "name": "operator",
          "type": "address"
        },
        {
          "internalType": "bool",
          "name": "approved",
          "type": "bool"
        }
      ],
      "name": "setApprovalForAll",
      "outputs": [],
      "stateMutability": "nonpayable",
      "type": "function"
    },
    {
      "inputs": [
        {
          "internalType": "bytes4",
          "name": "interfaceId",
          "type": "bytes4"
        }
      ],
      "name": "supportsInterface",
      "outputs": [
        {
          "internalType": "bool",
          "name": "",
          "type": "bool"
        }
      ],
      "stateMutability": "view",
      "type": "function"
    },
    {
      "inputs": [],
      "name": "symbol",
      "outputs": [
        {
          "internalType": "string",
          "name": "",
          "type": "string"
        }
      ],
      "stateMutability": "view",
      "type": "function"
    },
    {
      "inputs": [
        {
          "internalType": "string",
          "name": "",
          "type": "string"
        }
      ],
      "name": "takenNames",
      "outputs": [
        {
          "internalType": "bool",
          "name": "",
          "type": "bool"
        }
      ],
      "stateMutability": "view",
      "type": "function"
    },
    {
      "inputs": [
        {
          "internalType": "uint256",
          "name": "tokenId",
          "type": "uint256"
        }
      ],
      "name": "tokenURI",
      "outputs": [
        {
          "internalType": "string",
          "name": "",
          "type": "string"
        }
      ],
      "stateMutability": "view",
      "type": "function"
    },
    {
      "inputs": [],
      "name": "totalSupply",
      "outputs": [
        {
          "internalType": "uint256",
          "name": "",
          "type": "uint256"
        }
      ],
      "stateMutability": "view",
      "type": "function"
    },
    {
      "inputs": [
        {
          "internalType": "address",
          "name": "from",
          "type": "address"
        },
        {
          "internalType": "address",
          "name": "to",
          "type": "address"
        },
        {
          "internalType": "uint256",
          "name": "tokenId",
          "type": "uint256"
        }
      ],
      "name": "transferFrom",
      "outputs": [],
      "stateMutability": "nonpayable",
      "type": "function"
    },
    {
      "inputs": [
        {
          "internalType": "uint256",
          "name": "_platformId",
          "type": "uint256"
        },
        {
          "internalType": "uint256",
          "name": "_leasePostingFee",
          "type": "uint256"
        }
      ],
      "name": "updateLeasePostingFee",
      "outputs": [],
      "stateMutability": "nonpayable",
      "type": "function"
    },
    {
      "inputs": [
        {
          "internalType": "uint256",
          "name": "_mintFee",
          "type": "uint256"
        }
      ],
      "name": "updateMintFee",
      "outputs": [],
      "stateMutability": "nonpayable",
      "type": "function"
    },
    {
      "inputs": [
        {
          "internalType": "uint256",
          "name": "_platformId",
          "type": "uint256"
        },
        {
          "internalType": "uint16",
          "name": "_originLeaseFeeRate",
          "type": "uint16"
        }
      ],
      "name": "updateOriginLeaseFeeRate",
      "outputs": [],
      "stateMutability": "nonpayable",
      "type": "function"
    },
    {
      "inputs": [
        {
          "internalType": "uint256",
          "name": "_platformId",
          "type": "uint256"
        },
        {
          "internalType": "uint16",
          "name": "_originProposalFeeRate",
          "type": "uint16"
        }
      ],
      "name": "updateOriginProposalFeeRate",
      "outputs": [],
      "stateMutability": "nonpayable",
      "type": "function"
    },
    {
      "inputs": [
        {
          "internalType": "uint256",
          "name": "_platformId",
          "type": "uint256"
        },
        {
          "internalType": "string",
          "name": "_newCid",
          "type": "string"
        }
      ],
      "name": "updateProfileData",
      "outputs": [],
      "stateMutability": "nonpayable",
      "type": "function"
    },
    {
      "inputs": [
        {
          "internalType": "uint256",
          "name": "_platformId",
          "type": "uint256"
        },
        {
          "internalType": "uint256",
          "name": "_proposalPostingFee",
          "type": "uint256"
        }
      ],
      "name": "updateProposalPostingFee",
      "outputs": [],
      "stateMutability": "nonpayable",
      "type": "function"
    },
    {
      "inputs": [],
      "name": "withdraw",
      "outputs": [],
      "stateMutability": "nonpayable",
      "type": "function"
    }
  ],
  "bytecode": "0x60806040523480156200001157600080fd5b5060405180604001604052806006815260200165155cd95c925960d21b8152506040518060400160405280600381526020016215125160ea1b81525081600090816200005e91906200022d565b5060016200006d82826200022d565b50505062000087600b620000cb60201b620016a41760201c565b62000094600033620000d4565b620000c07f154c00819833dac601ee5ddded6fda79d9d8b506b911b3dbd54cdb95fe6c368633620000d4565b6000600a55620002f9565b80546001019055565b620000e08282620000e4565b5050565b60008281526006602090815260408083206001600160a01b038516845290915290205460ff16620000e05760008281526006602090815260408083206001600160a01b03851684529091529020805460ff19166001179055620001443390565b6001600160a01b0316816001600160a01b0316837f2f8788117e7eff1d82e926ec794901d17c78024a50270940304540a733656f0d60405160405180910390a45050565b634e487b7160e01b600052604160045260246000fd5b600181811c90821680620001b357607f821691505b602082108103620001d457634e487b7160e01b600052602260045260246000fd5b50919050565b601f8211156200022857600081815260208120601f850160051c81016020861015620002035750805b601f850160051c820191505b8181101562000224578281556001016200020f565b5050505b505050565b81516001600160401b0381111562000249576200024962000188565b62000261816200025a84546200019e565b84620001da565b602080601f831160018114620002995760008415620002805750858301515b600019600386901b1c1916600185901b17855562000224565b600085815260208120601f198616915b82811015620002ca57888601518255948401946001909101908401620002a9565b5085821015620002e95787850151600019600388901b60f8161c191681555b5050505050600190811b01905550565b61343e80620003096000396000f3fe60806040526004361061023b5760003560e01c806384017e521161012e578063c6bf01ce116100ab578063e985e9c51161006f578063e985e9c5146106e7578063e9a9c85014610730578063f160068f14610764578063f577a50014610784578063faa992d3146107a457600080fd5b8063c6bf01ce14610654578063c87b56dd14610674578063d153945a14610694578063d547741f146106b4578063d85d3d27146106d457600080fd5b8063a22cb465116100f2578063a22cb465146105a6578063a383c692146105c6578063a5b03bd014610601578063b88d4fde14610621578063c37e154e1461064157600080fd5b806384017e521461051c57806391d148541461053c57806395d89b411461055c5780639868920e14610571578063a217fddf1461059157600080fd5b80632f2ff15d116101bc5780634a7ab1d5116101805780634a7ab1d51461045c5780635bd22c981461047c5780636352211e146104a957806370a08231146104c957806372e1def6146104e957600080fd5b80632f2ff15d146103c757806336568abe146103e75780633ccfd60b146104075780633d63dc8e1461041c57806342842e0e1461043c57600080fd5b806314cd7b251161020357806314cd7b251461031557806318160ddd146103355780631847c06b1461034a57806323b872dd14610377578063248a9ca31461039757600080fd5b806301ffc9a71461024057806306fdde0314610275578063081812fc14610297578063095ea7b3146102cf57806313966db5146102f1575b600080fd5b34801561024c57600080fd5b5061026061025b3660046124ce565b6107d7565b60405190151581526020015b60405180910390f35b34801561028157600080fd5b5061028a6107f7565b60405161026c919061253b565b3480156102a357600080fd5b506102b76102b236600461254e565b610889565b6040516001600160a01b03909116815260200161026c565b3480156102db57600080fd5b506102ef6102ea366004612583565b6108b0565b005b3480156102fd57600080fd5b50610307600a5481565b60405190815260200161026c565b34801561032157600080fd5b506102ef6103303660046125ad565b6109ca565b34801561034157600080fd5b50610307610a66565b34801561035657600080fd5b506103076103653660046125e4565b60096020526000908152604090205481565b34801561038357600080fd5b506102ef6103923660046125ff565b610a82565b3480156103a357600080fd5b506103076103b236600461254e565b60009081526006602052604090206001015490565b3480156103d357600080fd5b506102ef6103e236600461263b565b610ab3565b3480156103f357600080fd5b506102ef61040236600461263b565b610ad8565b34801561041357600080fd5b506102ef610b56565b34801561042857600080fd5b506102ef6104373660046125ad565b610bf9565b34801561044857600080fd5b506102ef6104573660046125ff565b610c82565b34801561046857600080fd5b5061030761047736600461254e565b610c9d565b34801561048857600080fd5b5061049c61049736600461254e565b610cbe565b60405161026c9190612667565b3480156104b557600080fd5b506102b76104c436600461254e565b610e93565b3480156104d557600080fd5b506103076104e43660046125e4565b610ef3565b3480156104f557600080fd5b5061050961050436600461254e565b610f79565b60405161ffff909116815260200161026c565b34801561052857600080fd5b506102ef61053736600461254e565b610fa4565b34801561054857600080fd5b5061026061055736600461263b565b610feb565b34801561056857600080fd5b5061028a611016565b34801561057d57600080fd5b506102ef61058c3660046126ea565b611025565b34801561059d57600080fd5b50610307600081565b3480156105b257600080fd5b506102ef6105c136600461270c565b6110a1565b3480156105d257600080fd5b506102606105e13660046127e9565b805160208183018101805160078252928201919093012091525460ff1681565b34801561060d57600080fd5b5061050961061c36600461254e565b6110ac565b34801561062d57600080fd5b506102ef61063c36600461281e565b6110d1565b61030761064f3660046128e3565b611109565b34801561066057600080fd5b506102ef61066f3660046126ea565b61124f565b34801561068057600080fd5b5061028a61068f36600461254e565b6112cb565b3480156106a057600080fd5b506103076106af36600461254e565b6112d6565b3480156106c057600080fd5b506102ef6106cf36600461263b565b6112f7565b6103076106e2366004612937565b61131c565b3480156106f357600080fd5b50610260610702366004612979565b6001600160a01b03918216600090815260056020908152604080832093909416825291909152205460ff1690565b34801561073c57600080fd5b506103077f154c00819833dac601ee5ddded6fda79d9d8b506b911b3dbd54cdb95fe6c368681565b34801561077057600080fd5b506102ef61077f3660046129a3565b611431565b34801561079057600080fd5b506102ef61079f36600461254e565b6114fa565b3480156107b057600080fd5b506107c46107bf36600461254e565b611550565b60405161026c97969594939291906129ea565b60006107e2826116ad565b806107f157506107f1826116fd565b92915050565b60606000805461080690612a40565b80601f016020809104026020016040519081016040528092919081815260200182805461083290612a40565b801561087f5780601f106108545761010080835404028352916020019161087f565b820191906000526020600020905b81548152906001019060200180831161086257829003601f168201915b5050505050905090565b600061089482611722565b506000908152600460205260409020546001600160a01b031690565b60006108bb82610e93565b9050806001600160a01b0316836001600160a01b03160361092d5760405162461bcd60e51b815260206004820152602160248201527f4552433732313a20617070726f76616c20746f2063757272656e74206f776e656044820152603960f91b60648201526084015b60405180910390fd5b336001600160a01b038216148061094957506109498133610702565b6109bb5760405162461bcd60e51b815260206004820152603d60248201527f4552433732313a20617070726f76652063616c6c6572206973206e6f7420746f60448201527f6b656e206f776e6572206f7220617070726f76656420666f7220616c6c0000006064820152608401610924565b6109c58383611781565b505050565b81336109d582610e93565b6001600160a01b0316146109fb5760405162461bcd60e51b815260040161092490612a7a565b600083815260086020908152604091829020600301805463ffff000019166201000061ffff8716908102919091179091558251868152918201527fa94f5181436b1d51291bbced0da127ae2a10a16b6f2323e8ab157ccd87503fba91015b60405180910390a1505050565b60006001610a73600b5490565b610a7d9190612ab7565b905090565b610a8c33826117ef565b610aa85760405162461bcd60e51b815260040161092490612aca565b6109c583838361186e565b600082815260066020526040902060010154610ace816118b6565b6109c583836118c0565b6001600160a01b0381163314610b485760405162461bcd60e51b815260206004820152602f60248201527f416363657373436f6e74726f6c3a2063616e206f6e6c792072656e6f756e636560448201526e103937b632b9903337b91039b2b63360891b6064820152608401610924565b610b528282611946565b5050565b6000610b61816118b6565b604051600090339047908381818185875af1925050503d8060008114610ba3576040519150601f19603f3d011682016040523d82523d6000602084013e610ba8565b606091505b5050905080610b525760405162461bcd60e51b815260206004820152601860248201527f4661696c656420746f20776974686472617720457468657200000000000000006044820152606401610924565b8133610c0482610e93565b6001600160a01b031614610c2a5760405162461bcd60e51b815260040161092490612a7a565b600083815260086020908152604091829020600301805461ffff191661ffff86169081179091558251868152918201527f26f86600bc9a84134f58fed55321fa36de314449092a41512d31cd5b0911aec69101610a59565b6109c5838383604051806020016040528060008152506110d1565b6000610ca8826114fa565b5060009081526008602052604090206005015490565b610d066040518060e00160405280600081526020016060815260200160608152602001600061ffff168152602001600061ffff16815260200160008152602001600081525090565b610d0f826114fa565b600860008381526020019081526020016000206040518060e001604052908160008201548152602001600182018054610d4790612a40565b80601f0160208091040260200160405190810160405280929190818152602001828054610d7390612a40565b8015610dc05780601f10610d9557610100808354040283529160200191610dc0565b820191906000526020600020905b815481529060010190602001808311610da357829003601f168201915b50505050508152602001600282018054610dd990612a40565b80601f0160208091040260200160405190810160405280929190818152602001828054610e0590612a40565b8015610e525780601f10610e2757610100808354040283529160200191610e52565b820191906000526020600020905b815481529060010190602001808311610e3557829003601f168201915b5050509183525050600382015461ffff8082166020840152620100009091041660408201526004820154606082015260059091015460809091015292915050565b6000818152600260205260408120546001600160a01b0316806107f15760405162461bcd60e51b8152602060048201526018602482015277115490cdcc8c4e881a5b9d985b1a59081d1bdad95b88125160421b6044820152606401610924565b60006001600160a01b038216610f5d5760405162461bcd60e51b815260206004820152602960248201527f4552433732313a2061646472657373207a65726f206973206e6f7420612076616044820152683634b21037bbb732b960b91b6064820152608401610924565b506001600160a01b031660009081526003602052604090205490565b6000610f84826114fa565b5060009081526008602052604090206003015462010000900461ffff1690565b6000610faf816118b6565b600a8290556040518281527f38fbb1c8b109c430f0c030e7ed076cf5611a307773a4e8e365601e8f8bceaec69060200160405180910390a15050565b60009182526006602090815260408084206001600160a01b0393909316845291905290205460ff1690565b60606001805461080690612a40565b813361103082610e93565b6001600160a01b0316146110565760405162461bcd60e51b815260040161092490612a7a565b60008381526008602090815260409182902060040184905581518581529081018490527f9a8ff0847250b2758fcb10a7a4d26fdf11dac756a816f3a54548b0ea1414672b9101610a59565b610b523383836119ad565b60006110b7826114fa565b5060009081526008602052604090206003015461ffff1690565b6110db33836117ef565b6110f75760405162461bcd60e51b815260040161092490612aca565b61110384848484611a7b565b50505050565b6000838383600a54341461112f5760405162461bcd60e51b815260040161092490612b17565b61113881610ef3565b156111555760405162461bcd60e51b815260040161092490612b5b565b60078383604051611167929190612b9d565b9081526040519081900360200190205460ff16156111bc5760405162461bcd60e51b81526020600482015260126024820152712730b6b29030b63932b0b23c903a30b5b2b760711b6044820152606401610924565b6111c68383611aae565b7f154c00819833dac601ee5ddded6fda79d9d8b506b911b3dbd54cdb95fe6c36866111f0816118b6565b611202866111fd600b5490565b611cd0565b61124388888080601f0160208091040260200160405190810160405280939291908181526020018383808284376000920191909152508a9250611e5b915050565b98975050505050505050565b813361125a82610e93565b6001600160a01b0316146112805760405162461bcd60e51b815260040161092490612a7a565b60008381526008602090815260409182902060050184905581518581529081018490527f5cea455bfd7800a5b219f99906f1402cf18c09764b07b36821dc7285b86a77329101610a59565b60606107f182611f29565b60006112e1826114fa565b5060009081526008602052604090206004015490565b600082815260066020526040902060010154611312816118b6565b6109c58383611946565b6000828233600a5434146113425760405162461bcd60e51b815260040161092490612b17565b61134b81610ef3565b156113685760405162461bcd60e51b815260040161092490612b5b565b6007838360405161137a929190612b9d565b9081526040519081900360200190205460ff16156113cf5760405162461bcd60e51b81526020600482015260126024820152712730b6b29030b63932b0b23c903a30b5b2b760711b6044820152606401610924565b6113d98383611aae565b6113e6336111fd600b5490565b61142786868080601f016020809104026020016040519081016040528093929190818152602001838380828437600092019190915250339250611e5b915050565b9695505050505050565b813361143c82610e93565b6001600160a01b0316146114625760405162461bcd60e51b815260040161092490612a7a565b8151602e146114a15760405162461bcd60e51b815260206004820152600b60248201526a125b9d985b1a590818da5960aa1b6044820152606401610924565b60008381526008602052604090206002016114bc8382612bf3565b50827f613807bd6768f626264e7eb664a65ca99a0d930f8fd8a5b868491a592eb57f72836040516114ed919061253b565b60405180910390a2505050565b60008111801561150b5750600b5481105b61154d5760405162461bcd60e51b8152602060048201526013602482015272125b9d985b1a59081c1b185d199bdc9b481251606a1b6044820152606401610924565b50565b6008602052600090815260409020805460018201805491929161157290612a40565b80601f016020809104026020016040519081016040528092919081815260200182805461159e90612a40565b80156115eb5780601f106115c0576101008083540402835291602001916115eb565b820191906000526020600020905b8154815290600101906020018083116115ce57829003601f168201915b50505050509080600201805461160090612a40565b80601f016020809104026020016040519081016040528092919081815260200182805461162c90612a40565b80156116795780601f1061164e57610100808354040283529160200191611679565b820191906000526020600020905b81548152906001019060200180831161165c57829003601f168201915b50505060038401546004850154600590950154939461ffff8083169562010000909304169350915087565b80546001019055565b60006001600160e01b031982166380ac58cd60e01b14806116de57506001600160e01b03198216635b5e139f60e01b145b806107f157506301ffc9a760e01b6001600160e01b03198316146107f1565b60006001600160e01b03198216637965db0b60e01b14806107f157506107f1826116ad565b6000818152600260205260409020546001600160a01b031661154d5760405162461bcd60e51b8152602060048201526018602482015277115490cdcc8c4e881a5b9d985b1a59081d1bdad95b88125160421b6044820152606401610924565b600081815260046020526040902080546001600160a01b0319166001600160a01b03841690811790915581906117b682610e93565b6001600160a01b03167f8c5be1e5ebec7d5bd14f71427d1e84f3dd0314c0f7b2291e5b200ac8c7c3b92560405160405180910390a45050565b6000806117fb83610e93565b9050806001600160a01b0316846001600160a01b0316148061184257506001600160a01b0380821660009081526005602090815260408083209388168352929052205460ff165b806118665750836001600160a01b031661185b84610889565b6001600160a01b0316145b949350505050565b60405162461bcd60e51b815260206004820152601d60248201527f546f6b656e207472616e73666572206973206e6f7420616c6c6f7765640000006044820152606401610924565b61154d8133612056565b6118ca8282610feb565b610b525760008281526006602090815260408083206001600160a01b03851684529091529020805460ff191660011790556119023390565b6001600160a01b0316816001600160a01b0316837f2f8788117e7eff1d82e926ec794901d17c78024a50270940304540a733656f0d60405160405180910390a45050565b6119508282610feb565b15610b525760008281526006602090815260408083206001600160a01b0385168085529252808320805460ff1916905551339285917ff6391f5c32d9c69d2a47ea670b442974b53935d1edc7fd64eb21e047a839171b9190a45050565b816001600160a01b0316836001600160a01b031603611a0e5760405162461bcd60e51b815260206004820152601960248201527f4552433732313a20617070726f766520746f2063616c6c6572000000000000006044820152606401610924565b6001600160a01b03838116600081815260056020908152604080832094871680845294825291829020805460ff191686151590811790915591519182527f17307eab39ab6107e8899845ad3d59bd9653f200f220920489ca2b5937696c31910160405180910390a3505050565b611a8684848461186e565b611a92848484846120af565b6111035760405162461bcd60e51b815260040161092490612cb3565b600082828080601f0160208091040260200160405190810160405280939291908181526020018383808284376000920191909152505082519293505060058210905080611afb5750601f81115b15611b1957604051633eb64ab360e01b815260040160405180910390fd5b600084846000818110611b2e57611b2e612d05565b909101356001600160f81b031916915050602d60f81b811480611b5e5750605f60f81b6001600160f81b03198216145b15611b7c57604051632f2c22a760e11b815260040160405180910390fd5b60005b82811015611cc857600360fc1b848281518110611b9e57611b9e612d05565b01602001516001600160f81b0319161080611bdc5750603d60f91b848281518110611bcb57611bcb612d05565b01602001516001600160f81b031916115b80611c385750603960f81b848281518110611bf957611bf9612d05565b01602001516001600160f81b031916118015611c385750606160f81b848281518110611c2757611c27612d05565b01602001516001600160f81b031916105b8015611c695750838181518110611c5157611c51612d05565b6020910101516001600160f81b031916602d60f81b14155b8015611c9a5750838181518110611c8257611c82612d05565b6020910101516001600160f81b031916605f60f81b14155b15611cb857604051630bb7f19b60e21b815260040160405180910390fd5b611cc181612d1b565b9050611b7f565b505050505050565b6001600160a01b038216611d265760405162461bcd60e51b815260206004820181905260248201527f4552433732313a206d696e7420746f20746865207a65726f20616464726573736044820152606401610924565b6000818152600260205260409020546001600160a01b031615611d8b5760405162461bcd60e51b815260206004820152601c60248201527f4552433732313a20746f6b656e20616c7265616479206d696e746564000000006044820152606401610924565b6000818152600260205260409020546001600160a01b031615611df05760405162461bcd60e51b815260206004820152601c60248201527f4552433732313a20746f6b656e20616c7265616479206d696e746564000000006044820152606401610924565b6001600160a01b038216600081815260036020908152604080832080546001019055848352600290915280822080546001600160a01b0319168417905551839291907fddf252ad1be2c89b69c2b068fc378daa952ba7f163c4a11628f55a4df523b3ef908290a45050565b600080611e67600b5490565b9050611e77600b80546001019055565b600081815260086020526040902060018101611e938682612bf3565b50818155604051600190600790611eab908890612d50565b9081526040805160209281900383018120805460ff1916941515949094179093556001600160a01b038716600081815260099093529120849055600a5490917f704496b72f6d3fd6e462fa31e27faddedde127bc9942bc94320e0c115b00cedf91611f199186918a91612d6c565b60405180910390a2509392505050565b6000818152600860209081526040808320905160609392611f4e926001019101612d95565b604051602081830303815290604052905060006014600860008681526020019081526020016000206001018054611f8490612a40565b90501115611fac5760405180604001604052806002815260200161034360f41b815250611fc8565b60405180604001604052806002815260200161036360f41b8152505b90506000611ff68284604051602001611fe2929190612e17565b6040516020818303038152906040526121b0565b604051602001612006919061318f565b604051602081830303815290604052905061202d8382604051602001611fe29291906131d4565b60405160200161203d919061325b565b6040516020818303038152906040529350505050919050565b6120608282610feb565b610b525761206d81612303565b612078836020612315565b6040516020016120899291906132a0565b60408051601f198184030181529082905262461bcd60e51b82526109249160040161253b565b60006001600160a01b0384163b156121a557604051630a85bd0160e11b81526001600160a01b0385169063150b7a02906120f3903390899088908890600401613315565b6020604051808303816000875af192505050801561212e575060408051601f3d908101601f1916820190925261212b91810190613348565b60015b61218b573d80801561215c576040519150601f19603f3d011682016040523d82523d6000602084013e612161565b606091505b5080516000036121835760405162461bcd60e51b815260040161092490612cb3565b805181602001fd5b6001600160e01b031916630a85bd0160e11b149050611866565b506001949350505050565b606081516000036121cf57505060408051602081019091526000815290565b60006040518060600160405280604081526020016133c960409139905060006003845160026121fe9190613365565b6122089190613378565b61221390600461339a565b67ffffffffffffffff81111561222b5761222b61273d565b6040519080825280601f01601f191660200182016040528015612255576020820181803683370190505b509050600182016020820185865187015b808210156122c1576003820191508151603f8160121c168501518453600184019350603f81600c1c168501518453600184019350603f8160061c168501518453600184019350603f8116850151845350600183019250612266565b50506003865106600181146122dd57600281146122f0576122f8565b603d6001830353603d60028303536122f8565b603d60018303535b509195945050505050565b60606107f16001600160a01b03831660145b6060600061232483600261339a565b61232f906002613365565b67ffffffffffffffff8111156123475761234761273d565b6040519080825280601f01601f191660200182016040528015612371576020820181803683370190505b509050600360fc1b8160008151811061238c5761238c612d05565b60200101906001600160f81b031916908160001a905350600f60fb1b816001815181106123bb576123bb612d05565b60200101906001600160f81b031916908160001a90535060006123df84600261339a565b6123ea906001613365565b90505b6001811115612462576f181899199a1a9b1b9c1cb0b131b232b360811b85600f166010811061241e5761241e612d05565b1a60f81b82828151811061243457612434612d05565b60200101906001600160f81b031916908160001a90535060049490941c9361245b816133b1565b90506123ed565b5083156124b15760405162461bcd60e51b815260206004820181905260248201527f537472696e67733a20686578206c656e67746820696e73756666696369656e746044820152606401610924565b9392505050565b6001600160e01b03198116811461154d57600080fd5b6000602082840312156124e057600080fd5b81356124b1816124b8565b60005b838110156125065781810151838201526020016124ee565b50506000910152565b600081518084526125278160208601602086016124eb565b601f01601f19169290920160200192915050565b6020815260006124b1602083018461250f565b60006020828403121561256057600080fd5b5035919050565b80356001600160a01b038116811461257e57600080fd5b919050565b6000806040838503121561259657600080fd5b61259f83612567565b946020939093013593505050565b600080604083850312156125c057600080fd5b82359150602083013561ffff811681146125d957600080fd5b809150509250929050565b6000602082840312156125f657600080fd5b6124b182612567565b60008060006060848603121561261457600080fd5b61261d84612567565b925061262b60208501612567565b9150604084013590509250925092565b6000806040838503121561264e57600080fd5b8235915061265e60208401612567565b90509250929050565b60208152815160208201526000602083015160e0604084015261268e61010084018261250f565b90506040840151601f198483030160608501526126ab828261250f565b915050606084015161ffff80821660808601528060808701511660a0860152505060a084015160c084015260c084015160e08401528091505092915050565b600080604083850312156126fd57600080fd5b50508035926020909101359150565b6000806040838503121561271f57600080fd5b61272883612567565b9150602083013580151581146125d957600080fd5b634e487b7160e01b600052604160045260246000fd5b600067ffffffffffffffff8084111561276e5761276e61273d565b604051601f8501601f19908116603f011681019082821181831017156127965761279661273d565b816040528093508581528686860111156127af57600080fd5b858560208301376000602087830101525050509392505050565b600082601f8301126127da57600080fd5b6124b183833560208501612753565b6000602082840312156127fb57600080fd5b813567ffffffffffffffff81111561281257600080fd5b611866848285016127c9565b6000806000806080858703121561283457600080fd5b61283d85612567565b935061284b60208601612567565b925060408501359150606085013567ffffffffffffffff81111561286e57600080fd5b8501601f8101871361287f57600080fd5b61288e87823560208401612753565b91505092959194509250565b60008083601f8401126128ac57600080fd5b50813567ffffffffffffffff8111156128c457600080fd5b6020830191508360208285010111156128dc57600080fd5b9250929050565b6000806000604084860312156128f857600080fd5b833567ffffffffffffffff81111561290f57600080fd5b61291b8682870161289a565b909450925061292e905060208501612567565b90509250925092565b6000806020838503121561294a57600080fd5b823567ffffffffffffffff81111561296157600080fd5b61296d8582860161289a565b90969095509350505050565b6000806040838503121561298c57600080fd5b61299583612567565b915061265e60208401612567565b600080604083850312156129b657600080fd5b82359150602083013567ffffffffffffffff8111156129d457600080fd5b6129e0858286016127c9565b9150509250929050565b87815260e060208201526000612a0360e083018961250f565b8281036040840152612a15818961250f565b61ffff97881660608501529590961660808301525060a081019290925260c090910152949350505050565b600181811c90821680612a5457607f821691505b602082108103612a7457634e487b7160e01b600052602260045260246000fd5b50919050565b6020808252600d908201526c2737ba103a34329037bbb732b960991b604082015260600190565b634e487b7160e01b600052601160045260246000fd5b818103818111156107f1576107f1612aa1565b6020808252602d908201527f4552433732313a2063616c6c6572206973206e6f7420746f6b656e206f776e6560408201526c1c881bdc88185c1c1c9bdd9959609a1b606082015260800190565b60208082526024908201527f496e636f727265637420616d6f756e74206f662045544820666f72206d696e746040820152632066656560e01b606082015260800190565b60208082526022908201527f506c6174666f726d20616c726561647920686173206120506c6174666f726d20604082015261125160f21b606082015260800190565b8183823760009101908152919050565b601f8211156109c557600081815260208120601f850160051c81016020861015612bd45750805b601f850160051c820191505b81811015611cc857828155600101612be0565b815167ffffffffffffffff811115612c0d57612c0d61273d565b612c2181612c1b8454612a40565b84612bad565b602080601f831160018114612c565760008415612c3e5750858301515b600019600386901b1c1916600185901b178555611cc8565b600085815260208120601f198616915b82811015612c8557888601518255948401946001909101908401612c66565b5085821015612ca35787850151600019600388901b60f8161c191681555b5050505050600190811b01905550565b60208082526032908201527f4552433732313a207472616e7366657220746f206e6f6e20455243373231526560408201527131b2b4bb32b91034b6b83632b6b2b73a32b960711b606082015260800190565b634e487b7160e01b600052603260045260246000fd5b600060018201612d2d57612d2d612aa1565b5060010190565b60008151612d468185602086016124eb565b9290920192915050565b60008251612d628184602087016124eb565b9190910192915050565b838152606060208201526000612d85606083018561250f565b9050826040830152949350505050565b6000808354612da381612a40565b60018281168015612dbb5760018114612dd057612dff565b60ff1984168752821515830287019450612dff565b8760005260208060002060005b85811015612df65781548a820152908401908201612ddd565b50505082870194505b5050632e616e7960e01b835250506004019392505050565b7f3c73766720786d6c6e733d22687474703a2f2f7777772e77332e6f72672f323081527f30302f737667222077696474683d2237323022206865696768743d223732302260208201527f3e3c726563742077696474683d223130302522206865696768743d223130302560408201527f222f3e3c73766720786d6c6e733d22687474703a2f2f7777772e77332e6f726760608201527f2f323030302f737667222077696474683d2231353022206865696768743d223160808201527f3530222076657273696f6e3d22312e32222076696577426f783d222d3230302060a08201527f2d353020313030302031303030223e3c706174682066696c6c3d22234646464660c08201527f46462220643d224d3236342e35203139302e3563302d31332e382031312e322d60e08201527f32352032352d3235483536386331332e3820302032352031312e3220323520326101008201527f357634393063302031332e382d31312e322032352d3235203235483238392e356101208201527f632d31332e3820302d32352d31312e322d32352d32357a222f3e3c70617468206101408201527f66696c6c3d22234646464646462220643d224d3236352036323463302d31332e6101608201527f382031312e322d32352032352d3235683534336331332e3820302032352031316101808201527f2e322032352032357635362e3563302031332e382d31312e322032352d3235206101a08201527f323548323930632d31332e3820302d32352d31312e322d32352d32357a222f3e6101c08201527f3c706174682066696c6c3d22234646464646462220643d224d30203139302e356101e08201527f63302d31332e382031312e322d32352032352d3235683534336331332e3820306102008201527f2032352031312e322032352032355632343763302031332e382d31312e3220326102208201527f352d3235203235483235632d31332e3820302d32352d31312e322d32352d32356102408201527f7a222f3e3c2f7376673e3c7465787420783d2233302220793d223637302220736102608201526b03a3cb6329e913337b73a1d160a51b610280820152600061186661317661317061314761028c860188612d34565b7f70782073616e732d73657269663b66696c6c3a23666666223e00000000000000815260190190565b85612d34565b6c1e17ba32bc3a1f1e17b9bb339f60991b8152600d0190565b7f646174613a696d6167652f7376672b786d6c3b6261736536342c0000000000008152600082516131c781601a8501602087016124eb565b91909101601a0192915050565b683d913730b6b2911d1160b91b815282516000906131f98160098501602088016124eb565b6b1116101134b6b0b3b2911d1160a11b60099184019182015283516132258160158401602088016124eb565b7f222c20226465736372697074696f6e223a2022506c6174666f726d204944227d60159290910191820152603501949350505050565b7f646174613a6170706c69636174696f6e2f6a736f6e3b6261736536342c00000081526000825161329381601d8501602087016124eb565b91909101601d0192915050565b7f416363657373436f6e74726f6c3a206163636f756e74200000000000000000008152600083516132d88160178501602088016124eb565b7001034b99036b4b9b9b4b733903937b6329607d1b60179184019182015283516133098160288401602088016124eb565b01602801949350505050565b6001600160a01b03858116825284166020820152604081018390526080606082018190526000906114279083018461250f565b60006020828403121561335a57600080fd5b81516124b1816124b8565b808201808211156107f1576107f1612aa1565b60008261339557634e487b7160e01b600052601260045260246000fd5b500490565b80820281158282048414176107f1576107f1612aa1565b6000816133c0576133c0612aa1565b50600019019056fe4142434445464748494a4b4c4d4e4f505152535455565758595a6162636465666768696a6b6c6d6e6f707172737475767778797a303132333435363738392b2fa26469706673582212204649ae644d973fb0349a0c2b1f814bdde08822bc10e05089fe1264108560556064736f6c63430008110033",
  "linkReferences": {},
  "deployedLinkReferences": {}
}