{
  "_format": "hh-sol-artifact-1",
  "contractName": "TrustId",
  "sourceName": "contracts/TrustId.sol",
  "abi": [
    {
      "inputs": [],
      "stateMutability": "nonpayable",
      "type": "constructor"
    },
    {
      "anonymous": false,
      "inputs": [
        {
          "indexed": true,
          "internalType": "address",
          "name": "owner",
          "type": "address"
        },
        {
          "indexed": true,
          "internalType": "address",
          "name": "approved",
          "type": "address"
        },
        {
          "indexed": true,
          "internalType": "uint256",
          "name": "tokenId",
          "type": "uint256"
        }
      ],
      "name": "Approval",
      "type": "event"
    },
    {
      "anonymous": false,
      "inputs": [
        {
          "indexed": true,
          "internalType": "address",
          "name": "owner",
          "type": "address"
        },
        {
          "indexed": true,
          "internalType": "address",
          "name": "operator",
          "type": "address"
        },
        {
          "indexed": false,
          "internalType": "bool",
          "name": "approved",
          "type": "bool"
        }
      ],
      "name": "ApprovalForAll",
      "type": "event"
    },
    {
      "anonymous": false,
      "inputs": [
        {
          "indexed": true,
          "internalType": "uint256",
          "name": "_tokenId",
          "type": "uint256"
        },
        {
          "indexed": false,
          "internalType": "string",
          "name": "_newCid",
          "type": "string"
        }
      ],
      "name": "CidUpdated",
      "type": "event"
    },
    {
      "anonymous": false,
      "inputs": [
        {
          "indexed": true,
          "internalType": "address",
          "name": "_address",
          "type": "address"
        },
        {
          "indexed": false,
          "internalType": "uint256",
          "name": "_tokenId",
          "type": "uint256"
        },
        {
          "indexed": false,
          "internalType": "string",
          "name": "_handle",
          "type": "string"
        }
      ],
      "name": "Mint",
      "type": "event"
    },
    {
      "anonymous": false,
      "inputs": [
        {
          "indexed": true,
          "internalType": "address",
          "name": "previousOwner",
          "type": "address"
        },
        {
          "indexed": true,
          "internalType": "address",
          "name": "newOwner",
          "type": "address"
        }
      ],
      "name": "OwnershipTransferred",
      "type": "event"
    },
    {
      "anonymous": false,
      "inputs": [
        {
          "indexed": true,
          "internalType": "address",
          "name": "from",
          "type": "address"
        },
        {
          "indexed": true,
          "internalType": "address",
          "name": "to",
          "type": "address"
        },
        {
          "indexed": true,
          "internalType": "uint256",
          "name": "tokenId",
          "type": "uint256"
        }
      ],
      "name": "Transfer",
      "type": "event"
    },
    {
      "inputs": [
        {
          "internalType": "address",
          "name": "to",
          "type": "address"
        },
        {
          "internalType": "uint256",
          "name": "tokenId",
          "type": "uint256"
        }
      ],
      "name": "approve",
      "outputs": [],
      "stateMutability": "nonpayable",
      "type": "function"
    },
    {
      "inputs": [
        {
          "internalType": "address",
          "name": "owner",
          "type": "address"
        }
      ],
      "name": "balanceOf",
      "outputs": [
        {
          "internalType": "uint256",
          "name": "",
          "type": "uint256"
        }
      ],
      "stateMutability": "view",
      "type": "function"
    },
    {
      "inputs": [
        {
          "internalType": "uint256",
          "name": "tokenId",
          "type": "uint256"
        }
      ],
      "name": "getApproved",
      "outputs": [
        {
          "internalType": "address",
          "name": "",
          "type": "address"
        }
      ],
      "stateMutability": "view",
      "type": "function"
    },
    {
      "inputs": [
        {
          "internalType": "address",
          "name": "",
          "type": "address"
        }
      ],
      "name": "ids",
      "outputs": [
        {
          "internalType": "uint256",
          "name": "",
          "type": "uint256"
        }
      ],
      "stateMutability": "view",
      "type": "function"
    },
    {
      "inputs": [
        {
          "internalType": "address",
          "name": "owner",
          "type": "address"
        },
        {
          "internalType": "address",
          "name": "operator",
          "type": "address"
        }
      ],
      "name": "isApprovedForAll",
      "outputs": [
        {
          "internalType": "bool",
          "name": "",
          "type": "bool"
        }
      ],
      "stateMutability": "view",
      "type": "function"
    },
    {
      "inputs": [
        {
          "internalType": "uint256",
          "name": "_profileId",
          "type": "uint256"
        }
      ],
      "name": "isValid",
      "outputs": [],
      "stateMutability": "view",
      "type": "function"
    },
    {
      "inputs": [
        {
          "internalType": "string",
          "name": "_handle",
          "type": "string"
        }
      ],
      "name": "mint",
      "outputs": [
        {
          "internalType": "uint256",
          "name": "",
          "type": "uint256"
        }
      ],
      "stateMutability": "nonpayable",
      "type": "function"
    },
    {
      "inputs": [],
      "name": "name",
      "outputs": [
        {
          "internalType": "string",
          "name": "",
          "type": "string"
        }
      ],
      "stateMutability": "view",
      "type": "function"
    },
    {
      "inputs": [],
      "name": "owner",
      "outputs": [
        {
          "internalType": "address",
          "name": "",
          "type": "address"
        }
      ],
      "stateMutability": "view",
      "type": "function"
    },
    {
      "inputs": [
        {
          "internalType": "uint256",
          "name": "tokenId",
          "type": "uint256"
        }
      ],
      "name": "ownerOf",
      "outputs": [
        {
          "internalType": "address",
          "name": "",
          "type": "address"
        }
      ],
      "stateMutability": "view",
      "type": "function"
    },
    {
      "inputs": [
        {
          "internalType": "uint256",
          "name": "_tokenId1",
          "type": "uint256"
        },
        {
          "internalType": "uint256",
          "name": "_tokenId2",
          "type": "uint256"
        }
      ],
      "name": "ownersOf",
      "outputs": [
        {
          "internalType": "address",
          "name": "",
          "type": "address"
        },
        {
          "internalType": "address",
          "name": "",
          "type": "address"
        }
      ],
      "stateMutability": "view",
      "type": "function"
    },
    {
      "inputs": [
        {
          "internalType": "uint256",
          "name": "",
          "type": "uint256"
        }
      ],
      "name": "profiles",
      "outputs": [
        {
          "internalType": "uint256",
          "name": "id",
          "type": "uint256"
        },
        {
          "internalType": "string",
          "name": "handle",
          "type": "string"
        },
        {
          "internalType": "string",
          "name": "dataUri",
          "type": "string"
        }
      ],
      "stateMutability": "view",
      "type": "function"
    },
    {
      "inputs": [],
      "name": "renounceOwnership",
      "outputs": [],
      "stateMutability": "nonpayable",
      "type": "function"
    },
    {
      "inputs": [
        {
          "internalType": "address",
          "name": "from",
          "type": "address"
        },
        {
          "internalType": "address",
          "name": "to",
          "type": "address"
        },
        {
          "internalType": "uint256",
          "name": "tokenId",
          "type": "uint256"
        }
      ],
      "name": "safeTransferFrom",
      "outputs": [],
      "stateMutability": "nonpayable",
      "type": "function"
    },
    {
      "inputs": [
        {
          "internalType": "address",
          "name": "from",
          "type": "address"
        },
        {
          "internalType": "address",
          "name": "to",
          "type": "address"
        },
        {
          "internalType": "uint256",
          "name": "tokenId",
          "type": "uint256"
        },
        {
          "internalType": "bytes",
          "name": "data",
          "type": "bytes"
        }
      ],
      "name": "safeTransferFrom",
      "outputs": [],
      "stateMutability": "nonpayable",
      "type": "function"
    },
    {
      "inputs": [
        {
          "internalType": "address",
          "name": "operator",
          "type": "address"
        },
        {
          "internalType": "bool",
          "name": "approved",
          "type": "bool"
        }
      ],
      "name": "setApprovalForAll",
      "outputs": [],
      "stateMutability": "nonpayable",
      "type": "function"
    },
    {
      "inputs": [
        {
          "internalType": "bytes4",
          "name": "interfaceId",
          "type": "bytes4"
        }
      ],
      "name": "supportsInterface",
      "outputs": [
        {
          "internalType": "bool",
          "name": "",
          "type": "bool"
        }
      ],
      "stateMutability": "view",
      "type": "function"
    },
    {
      "inputs": [],
      "name": "symbol",
      "outputs": [
        {
          "internalType": "string",
          "name": "",
          "type": "string"
        }
      ],
      "stateMutability": "view",
      "type": "function"
    },
    {
      "inputs": [
        {
          "internalType": "string",
          "name": "",
          "type": "string"
        }
      ],
      "name": "takenHandles",
      "outputs": [
        {
          "internalType": "bool",
          "name": "",
          "type": "bool"
        }
      ],
      "stateMutability": "view",
      "type": "function"
    },
    {
      "inputs": [
        {
          "internalType": "uint256",
          "name": "tokenId",
          "type": "uint256"
        }
      ],
      "name": "tokenURI",
      "outputs": [
        {
          "internalType": "string",
          "name": "",
          "type": "string"
        }
      ],
      "stateMutability": "view",
      "type": "function"
    },
    {
      "inputs": [],
      "name": "totalSupply",
      "outputs": [
        {
          "internalType": "uint256",
          "name": "",
          "type": "uint256"
        }
      ],
      "stateMutability": "view",
      "type": "function"
    },
    {
      "inputs": [
        {
          "internalType": "address",
          "name": "from",
          "type": "address"
        },
        {
          "internalType": "address",
          "name": "to",
          "type": "address"
        },
        {
          "internalType": "uint256",
          "name": "tokenId",
          "type": "uint256"
        }
      ],
      "name": "transferFrom",
      "outputs": [],
      "stateMutability": "nonpayable",
      "type": "function"
    },
    {
      "inputs": [
        {
          "internalType": "address",
          "name": "newOwner",
          "type": "address"
        }
      ],
      "name": "transferOwnership",
      "outputs": [],
      "stateMutability": "nonpayable",
      "type": "function"
    },
    {
      "inputs": [
        {
          "internalType": "address",
          "name": "_leaseContractAddress",
          "type": "address"
        }
      ],
      "name": "updateLeaseContractAddress",
      "outputs": [],
      "stateMutability": "nonpayable",
      "type": "function"
    },
    {
      "inputs": [
        {
          "internalType": "uint256",
          "name": "_tokenId",
          "type": "uint256"
        },
        {
          "internalType": "string",
          "name": "_newCid",
          "type": "string"
        }
      ],
      "name": "updateProfileData",
      "outputs": [],
      "stateMutability": "nonpayable",
      "type": "function"
    }
  ],
  "bytecode": "0x60806040523480156200001157600080fd5b5060405180604001604052806006815260200165155cd95c925960d21b8152506040518060400160405280600381526020016215125160ea1b81525081600090816200005e9190620001ab565b5060016200006d8282620001ab565b5050506200008a62000084620000a760201b60201c565b620000ab565b620000a16007620000fd60201b62000cfa1760201c565b62000277565b3390565b600680546001600160a01b038381166001600160a01b0319831681179093556040519116919082907f8be0079c531659141344cd1fd0a4f28419497f9722a3daafe3b4186f6b6457e090600090a35050565b80546001019055565b634e487b7160e01b600052604160045260246000fd5b600181811c908216806200013157607f821691505b6020821081036200015257634e487b7160e01b600052602260045260246000fd5b50919050565b601f821115620001a657600081815260208120601f850160051c81016020861015620001815750805b601f850160051c820191505b81811015620001a2578281556001016200018d565b5050505b505050565b81516001600160401b03811115620001c757620001c762000106565b620001df81620001d884546200011c565b8462000158565b602080601f831160018114620002175760008415620001fe5750858301515b600019600386901b1c1916600185901b178555620001a2565b600085815260208120601f198616915b82811015620002485788860151825594840194600190910190840162000227565b5085821015620002675787850151600019600388901b60f8161c191681555b5050505050600190811b01905550565b6136c780620002876000396000f3fe608060405234801561001057600080fd5b50600436106101735760003560e01c80638da5cb5b116100de578063d85d3d2711610097578063f2fde38b11610071578063f2fde38b1461035a578063f577a5001461036d578063f69a795814610380578063fbdc8dc01461039357600080fd5b8063d85d3d2714610321578063e985e9c514610334578063f160068f1461034757600080fd5b80638da5cb5b146102ad57806395d89b41146102be578063a22cb465146102c6578063b88d4fde146102d9578063c36fe3d6146102ec578063c87b56dd1461030e57600080fd5b80632106beec116101305780632106beec1461022b57806323b872dd1461025957806342842e0e1461026c5780636352211e1461027f57806370a0823114610292578063715018a6146102a557600080fd5b806301ffc9a71461017857806306fdde03146101a0578063081812fc146101b5578063095ea7b3146101e057806318160ddd146101f55780631847c06b1461020b575b600080fd5b61018b6101863660046115f9565b6103c6565b60405190151581526020015b60405180910390f35b6101a8610418565b604051610197919061166d565b6101c86101c3366004611680565b6104aa565b6040516001600160a01b039091168152602001610197565b6101f36101ee3660046116b5565b6104d1565b005b6101fd6105eb565b604051908152602001610197565b6101fd6102193660046116df565b600a6020526000908152604090205481565b61018b6102393660046117a6565b805160208183018101805160088252928201919093012091525460ff1681565b6101f36102673660046117db565b610607565b6101f361027a3660046117db565b61062d565b6101c861028d366004611680565b610648565b6101fd6102a03660046116df565b6106a8565b6101f361072e565b6006546001600160a01b03166101c8565b6101a8610742565b6101f36102d4366004611817565b610751565b6101f36102e7366004611853565b610760565b6102ff6102fa366004611680565b610798565b604051610197939291906118cf565b6101a861031c366004611680565b6108cb565b6101fd61032f3660046117a6565b6108d6565b61018b610342366004611904565b610a43565b6101f3610355366004611937565b610a71565b6101f36103683660046116df565b610b7a565b6101f361037b366004611680565b610bf3565b6101f361038e3660046116df565b610c3c565b6103a66103a136600461197e565b610cda565b604080516001600160a01b03938416815292909116602083015201610197565b60006001600160e01b031982166380ac58cd60e01b14806103f757506001600160e01b03198216635b5e139f60e01b145b8061041257506301ffc9a760e01b6001600160e01b03198316145b92915050565b606060008054610427906119a0565b80601f0160208091040260200160405190810160405280929190818152602001828054610453906119a0565b80156104a05780601f10610475576101008083540402835291602001916104a0565b820191906000526020600020905b81548152906001019060200180831161048357829003601f168201915b5050505050905090565b60006104b582610d03565b506000908152600460205260409020546001600160a01b031690565b60006104dc82610648565b9050806001600160a01b0316836001600160a01b03160361054e5760405162461bcd60e51b815260206004820152602160248201527f4552433732313a20617070726f76616c20746f2063757272656e74206f776e656044820152603960f91b60648201526084015b60405180910390fd5b336001600160a01b038216148061056a575061056a8133610a43565b6105dc5760405162461bcd60e51b815260206004820152603d60248201527f4552433732313a20617070726f76652063616c6c6572206973206e6f7420746f60448201527f6b656e206f776e6572206f7220617070726f76656420666f7220616c6c0000006064820152608401610545565b6105e68383610d62565b505050565b600060016105f860075490565b61060291906119ea565b905090565b6106113382610dd0565b6105e65760405162461bcd60e51b8152600401610545906119fd565b6105e683838360405180602001604052806000815250610760565b6000818152600260205260408120546001600160a01b0316806104125760405162461bcd60e51b8152602060048201526018602482015277115490cdcc8c4e881a5b9d985b1a59081d1bdad95b88125160421b6044820152606401610545565b60006001600160a01b0382166107125760405162461bcd60e51b815260206004820152602960248201527f4552433732313a2061646472657373207a65726f206973206e6f7420612076616044820152683634b21037bbb732b960b91b6064820152608401610545565b506001600160a01b031660009081526003602052604090205490565b610736610e2f565b6107406000610e89565b565b606060018054610427906119a0565b61075c338383610edb565b5050565b61076a3383610dd0565b6107865760405162461bcd60e51b8152600401610545906119fd565b61079284848484610fa9565b50505050565b600960205260009081526040902080546001820180549192916107ba906119a0565b80601f01602080910402602001604051908101604052809291908181526020018280546107e6906119a0565b80156108335780601f1061080857610100808354040283529160200191610833565b820191906000526020600020905b81548152906001019060200180831161081657829003601f168201915b505050505090806002018054610848906119a0565b80601f0160208091040260200160405190810160405280929190818152602001828054610874906119a0565b80156108c15780601f10610896576101008083540402835291602001916108c1565b820191906000526020600020905b8154815290600101906020018083116108a457829003601f168201915b5050505050905083565b606061041282610fd1565b6000816108e2336106a8565b1561092f5760405162461bcd60e51b815260206004820152601a60248201527f596f7520616c72656164792068617665206120557365722049640000000000006044820152606401610545565b6002815110156109745760405162461bcd60e51b815260206004820152601060248201526f12185b991b19481d1bdbc81cda1bdc9d60821b6044820152606401610545565b600a815111156109b85760405162461bcd60e51b815260206004820152600f60248201526e48616e646c6520746f6f206c6f6e6760881b6044820152606401610545565b6008816040516109c89190611a66565b9081526040519081900360200190205460ff1615610a1f5760405162461bcd60e51b81526020600482015260146024820152732430b73236329030b63932b0b23c903a30b5b2b760611b6044820152606401610545565b610a3133610a2c60075490565b6110fb565b610a3a83611115565b91505b50919050565b6001600160a01b03918216600090815260056020908152604080832093909416825291909152205460ff1690565b33610a7b83610648565b6001600160a01b031614610ad15760405162461bcd60e51b815260206004820152601f60248201527f5573657249643a2063616c6c6572206973206e6f7420746865206f776e6572006044820152606401610545565b6000815111610b225760405162461bcd60e51b815260206004820152601f60248201527f53686f756c642070726f7669646520612076616c6964204950465320555249006044820152606401610545565b6000828152600960205260409020600201610b3d8282611ad0565b50817f613807bd6768f626264e7eb664a65ca99a0d930f8fd8a5b868491a592eb57f7282604051610b6e919061166d565b60405180910390a25050565b610b82610e2f565b6001600160a01b038116610be75760405162461bcd60e51b815260206004820152602660248201527f4f776e61626c653a206e6577206f776e657220697320746865207a65726f206160448201526564647265737360d01b6064820152608401610545565b610bf081610e89565b50565b600081118015610c04575060075481105b610bf05760405162461bcd60e51b81526020600482015260096024820152681b9bdd081d985b1a5960ba1b6044820152606401610545565b610c44610e2f565b6001600160a01b038116610cb85760405162461bcd60e51b815260206004820152603560248201527f5573657249643a206c6561736520636f6e747261637420616464726573732063604482015274616e6e6f74206265207a65726f206164647265737360581b6064820152608401610545565b600b80546001600160a01b0319166001600160a01b0392909216919091179055565b600080610ce684610648565b610cef84610648565b915091509250929050565b80546001019055565b6000818152600260205260409020546001600160a01b0316610bf05760405162461bcd60e51b8152602060048201526018602482015277115490cdcc8c4e881a5b9d985b1a59081d1bdad95b88125160421b6044820152606401610545565b600081815260046020526040902080546001600160a01b0319166001600160a01b0384169081179091558190610d9782610648565b6001600160a01b03167f8c5be1e5ebec7d5bd14f71427d1e84f3dd0314c0f7b2291e5b200ac8c7c3b92560405160405180910390a45050565b600080610ddc83610648565b9050806001600160a01b0316846001600160a01b03161480610e035750610e038185610a43565b80610e275750836001600160a01b0316610e1c846104aa565b6001600160a01b0316145b949350505050565b6006546001600160a01b031633146107405760405162461bcd60e51b815260206004820181905260248201527f4f776e61626c653a2063616c6c6572206973206e6f7420746865206f776e65726044820152606401610545565b600680546001600160a01b038381166001600160a01b0319831681179093556040519116919082907f8be0079c531659141344cd1fd0a4f28419497f9722a3daafe3b4186f6b6457e090600090a35050565b816001600160a01b0316836001600160a01b031603610f3c5760405162461bcd60e51b815260206004820152601960248201527f4552433732313a20617070726f766520746f2063616c6c6572000000000000006044820152606401610545565b6001600160a01b03838116600081815260056020908152604080832094871680845294825291829020805460ff191686151590811790915591519182527f17307eab39ab6107e8899845ad3d59bd9653f200f220920489ca2b5937696c31910160405180910390a3505050565b610fb5848484846111d1565b6107925760405162461bcd60e51b815260040161054590611b90565b600081815260096020526040812060010180546060929190610ff2906119a0565b80601f016020809104026020016040519081016040528092919081815260200182805461101e906119a0565b801561106b5780601f106110405761010080835404028352916020019161106b565b820191906000526020600020905b81548152906001019060200180831161104e57829003601f168201915b50505050509050600061109c826040516020016110889190611be2565b6040516020818303038152906040526112d2565b6040516020016110ac9190613481565b60405160208183030381529060405290506110d382826040516020016110889291906134c6565b6040516020016110e39190613557565b60405160208183030381529060405292505050919050565b61075c828260405180602001604052806000815250611425565b600061112060075490565b9050611130600780546001019055565b60008181526009602052604090208181556001810161114f8482611ad0565b5060016008846040516111629190611a66565b9081526040805160209281900383018120805460ff191694151594909417909355336000818152600a9093529120849055907f85a66b9141978db9980f7e0ce3b468cebf4f7999f32b23091c5c03e798b1ba7a906111c3908590879061359c565b60405180910390a250919050565b60006001600160a01b0384163b156112c757604051630a85bd0160e11b81526001600160a01b0385169063150b7a02906112159033908990889088906004016135b5565b6020604051808303816000875af1925050508015611250575060408051601f3d908101601f1916820190925261124d918101906135e8565b60015b6112ad573d80801561127e576040519150601f19603f3d011682016040523d82523d6000602084013e611283565b606091505b5080516000036112a55760405162461bcd60e51b815260040161054590611b90565b805181602001fd5b6001600160e01b031916630a85bd0160e11b149050610e27565b506001949350505050565b606081516000036112f157505060408051602081019091526000815290565b600060405180606001604052806040815260200161365260409139905060006003845160026113209190613605565b61132a9190613618565b61133590600461363a565b67ffffffffffffffff81111561134d5761134d6116fa565b6040519080825280601f01601f191660200182016040528015611377576020820181803683370190505b509050600182016020820185865187015b808210156113e3576003820191508151603f8160121c168501518453600184019350603f81600c1c168501518453600184019350603f8160061c168501518453600184019350603f8116850151845350600183019250611388565b50506003865106600181146113ff57600281146114125761141a565b603d6001830353603d600283035361141a565b603d60018303535b509195945050505050565b61142f8383611458565b61143c60008484846111d1565b6105e65760405162461bcd60e51b815260040161054590611b90565b6001600160a01b0382166114ae5760405162461bcd60e51b815260206004820181905260248201527f4552433732313a206d696e7420746f20746865207a65726f20616464726573736044820152606401610545565b6000818152600260205260409020546001600160a01b0316156115135760405162461bcd60e51b815260206004820152601c60248201527f4552433732313a20746f6b656e20616c7265616479206d696e746564000000006044820152606401610545565b6000818152600260205260409020546001600160a01b0316156115785760405162461bcd60e51b815260206004820152601c60248201527f4552433732313a20746f6b656e20616c7265616479206d696e746564000000006044820152606401610545565b6001600160a01b038216600081815260036020908152604080832080546001019055848352600290915280822080546001600160a01b0319168417905551839291907fddf252ad1be2c89b69c2b068fc378daa952ba7f163c4a11628f55a4df523b3ef908290a45050565b6001600160e01b031981168114610bf057600080fd5b60006020828403121561160b57600080fd5b8135611616816115e3565b9392505050565b60005b83811015611638578181015183820152602001611620565b50506000910152565b6000815180845261165981602086016020860161161d565b601f01601f19169290920160200192915050565b6020815260006116166020830184611641565b60006020828403121561169257600080fd5b5035919050565b80356001600160a01b03811681146116b057600080fd5b919050565b600080604083850312156116c857600080fd5b6116d183611699565b946020939093013593505050565b6000602082840312156116f157600080fd5b61161682611699565b634e487b7160e01b600052604160045260246000fd5b600067ffffffffffffffff8084111561172b5761172b6116fa565b604051601f8501601f19908116603f01168101908282118183101715611753576117536116fa565b8160405280935085815286868601111561176c57600080fd5b858560208301376000602087830101525050509392505050565b600082601f83011261179757600080fd5b61161683833560208501611710565b6000602082840312156117b857600080fd5b813567ffffffffffffffff8111156117cf57600080fd5b610e2784828501611786565b6000806000606084860312156117f057600080fd5b6117f984611699565b925061180760208501611699565b9150604084013590509250925092565b6000806040838503121561182a57600080fd5b61183383611699565b91506020830135801515811461184857600080fd5b809150509250929050565b6000806000806080858703121561186957600080fd5b61187285611699565b935061188060208601611699565b925060408501359150606085013567ffffffffffffffff8111156118a357600080fd5b8501601f810187136118b457600080fd5b6118c387823560208401611710565b91505092959194509250565b8381526060602082015260006118e86060830185611641565b82810360408401526118fa8185611641565b9695505050505050565b6000806040838503121561191757600080fd5b61192083611699565b915061192e60208401611699565b90509250929050565b6000806040838503121561194a57600080fd5b82359150602083013567ffffffffffffffff81111561196857600080fd5b61197485828601611786565b9150509250929050565b6000806040838503121561199157600080fd5b50508035926020909101359150565b600181811c908216806119b457607f821691505b602082108103610a3d57634e487b7160e01b600052602260045260246000fd5b634e487b7160e01b600052601160045260246000fd5b81810381811115610412576104126119d4565b6020808252602d908201527f4552433732313a2063616c6c6572206973206e6f7420746f6b656e206f776e6560408201526c1c881bdc88185c1c1c9bdd9959609a1b606082015260800190565b60008151611a5c81856020860161161d565b9290920192915050565b60008251611a7881846020870161161d565b9190910192915050565b601f8211156105e657600081815260208120601f850160051c81016020861015611aa95750805b601f850160051c820191505b81811015611ac857828155600101611ab5565b505050505050565b815167ffffffffffffffff811115611aea57611aea6116fa565b611afe81611af884546119a0565b84611a82565b602080601f831160018114611b335760008415611b1b5750858301515b600019600386901b1c1916600185901b178555611ac8565b600085815260208120601f198616915b82811015611b6257888601518255948401946001909101908401611b43565b5085821015611b805787850151600019600388901b60f8161c191681555b5050505050600190811b01905550565b60208082526032908201527f4552433732313a207472616e7366657220746f206e6f6e20455243373231526560408201527131b2b4bb32b91034b6b83632b6b2b73a32b960711b606082015260800190565b7f3c73766720786d6c6e733d22687474703a2f2f7777772e77332e6f72672f323081527f30302f737667222076696577426f783d223020302037323020373230223e3c6460208201527f6566733e3c6c696e6561724772616469656e742069643d2261222078313d223660408201527f372e3934222079313d223136392e3438222078323d223637302e39382220793260608201527f3d223536322e383622206772616469656e74556e6974733d227573657253706160808201527f63654f6e557365223e3c73746f70206f66667365743d2230222073746f702d6360a08201527f6f6c6f723d2223313761396332222f3e3c73746f70206f66667365743d222e3160c08201527f32222073746f702d636f6c6f723d2223316161396263222f3e3c73746f70206f60e08201527f66667365743d222e3239222073746f702d636f6c6f723d2223323561626162226101008201527f2f3e3c73746f70206f66667365743d222e3438222073746f702d636f6c6f723d6101208201527f2223333561643866222f3e3c73746f70206f66667365743d222e3634222073746101408201527f6f702d636f6c6f723d2223343862303732222f3e3c73746f70206f66667365746101608201527f3d222e3738222073746f702d636f6c6f723d2223353962323534222f3e3c73746101808201527f6f70206f66667365743d2231222073746f702d636f6c6f723d222337616237326101a08201527f30222f3e3c2f6c696e6561724772616469656e743e3c2f646566733e3c7061746101c08201527f68207374796c653d2266696c6c3a75726c282361292220643d224d30203068376101e08201527f32307637323048307a222f3e3c7061746820643d224d34372e30352039322e336102008201527f375635332e38344833332e32395634366833362e383576372e38344835362e346102208201527f317633382e3532682d392e33365a6d33352e37312d32332e33342d382e30372d6102408201527f312e3436632e39312d332e323520322e34372d352e363520342e36382d372e326102608201527f3120322e32312d312e353620352e352d322e333420392e38372d322e333420336102808201527f2e3936203020362e39322e343720382e383620312e343120312e39342e3934206102a08201527f332e333120322e313320342e3120332e353773312e313920342e3120312e31396102c08201527f20372e39366c2d2e312031302e3337633020322e39352e313420352e31332e346102e08201527f3320362e35332e323820312e342e383220322e393120312e3620342e3531682d6103008201527f382e3739632d2e32332d2e35392d2e35322d312e34372d2e38352d322e36332d6103208201527f2e31352d2e35332d2e32352d2e38382d2e33322d312e30342d312e353220312e6103408201527f34382d332e313420322e35382d342e383720332e3332732d332e353720312e316103608201527f312d352e353420312e3131632d332e343620302d362e31382d2e39342d382e316103808201527f382d322e38322d312e39392d312e38382d322e39392d342e32352d322e39392d6103a08201527f372e313220302d312e392e34352d332e353920312e33362d352e303873322e316103c08201527f382d322e363320332e38312d332e343220332e39392d312e343820372e30372d6103e08201527f322e303763342e31352d2e373820372e30332d312e353120382e36332d322e316104008201527f38762d2e383963302d312e37312d2e34322d322e39332d312e32372d332e36356104208201527f732d322e34342d312e30392d342e37382d312e3039632d312e353820302d322e6104408201527f38322e33312d332e372e39332d2e38392e36322d312e3620312e37312d322e316104608201527f3520332e32375a6d31312e383920372e3231632d312e31342e33382d322e39346104808201527f2e38332d352e343120312e33362d322e34372e35332d342e303820312e30342d6104a08201527f342e383420312e35352d312e31362e38322d312e373420312e38372d312e37346104c08201527f20332e3133732e343620322e333220312e333920332e3233632e39332e3931206104e08201527f322e313120312e333620332e353420312e333620312e36203020332e31332d2e6105008201527f353320342e35392d312e353820312e30382d2e3820312e37382d312e373820326105208201527f2e31322d322e39342e32332d2e37362e33352d322e322e33352d342e3333762d6105408201527f312e37375a6d31372e34392031362e313356343668382e38397634362e3337686105608201527f2d382e38395a6d33372e34352d31302e363920382e383620312e3439632d312e6105808201527f313420332e32352d322e393420352e37322d352e333920372e3432732d352e356105a08201527f3320322e35352d392e323220322e3535632d352e383420302d31302e31362d316105c08201527f2e39312d31322e39372d352e37322d322e32312d332e30362d332e33322d362e6105e08201527f39322d332e33322d31312e353820302d352e353720312e34362d392e393320346106008201527f2e33362d31332e303820322e39312d332e313520362e35392d342e37332031316106208201527f2e30342d342e37332035203020382e393420312e36352031312e383320342e396106408201527f3573342e323720382e333620342e31342031352e3137682d32322e3237632e306106608201527f3620322e36342e373820342e363920322e313520362e313520312e333720312e6106808201527f343720332e303820322e3220352e313220322e3220312e3339203020322e35366106a08201527f2d2e333820332e35312d312e31342e39352d2e373620312e36372d312e3938206106c08201527f322e31352d332e36375a6d2e35312d382e3938632d2e30362d322e35372d2e376106e08201527f332d342e35332d312e39392d352e38372d312e32372d312e33342d322e38312d6107008201527f322e30312d342e36322d322e30312d312e393420302d332e35342e37312d342e6107208201527f383120322e31322d312e323720312e34312d312e383920332e33332d312e38376107408201527f20352e37366831332e32385a6d34362e36322031392e3637682d382e383956376107608201527f352e323363302d332e36332d2e31392d352e39372d2e35372d372e30342d2e336107808201527f382d312e30362d312d312e38392d312e38352d322e3438732d312e38382d2e386107a08201527f392d332e30382d2e3839632d312e353420302d322e39322e34322d342e3134206107c08201527f312e3237732d322e303620312e39362d322e353120332e3335632d2e343520316107e08201527f2e33392d2e363820332e39362d2e363820372e37327631352e3231682d382e386108008201527f395635382e373868382e323676342e393363322e39332d332e3820362e36322d6108208201527f352e36392031312e30372d352e363920312e3936203020332e37352e333520356108408201527f2e333820312e303620312e36322e373120322e383520312e363120332e3638206108608201527f322e372e383320312e3120312e343120322e333420312e373420332e3733732e6108808201527f343920332e33382e343920352e39387632302e38385a6d32342e34322d33332e6108a08201527f353976372e3038682d362e30375637392e34633020322e37342e303620342e336108c08201527f342e313720342e37392e31322e34352e33382e38332e373920312e31322e34316108e08201527f2e332e39312e343420312e352e34342e3832203020322e30312d2e323820332e6109008201527f35372d2e38356c2e373620362e39632d322e30372e38392d342e343120312e336109208201527f332d372e303220312e33332d312e3620302d332e30352d2e32372d342e33332d6109408201527f2e38312d312e32392d2e35342d322e32332d312e32332d322e38332d322e30396109608201527f2d2e362d2e38352d312e30322d322e30312d312e32352d332e34362d2e31392d6109808201527f312e30332d2e32382d332e31322d2e32382d362e32365636352e3836682d342e6109a08201527f3038762d372e303868342e3038762d362e36376c382e39322d352e31397631316109c08201527f2e383668362e30375a6d362e32362033332e353956343668362e31347634302e6109e08201527f396832322e383476352e3437682d32382e39375a6d35372e34372d342e313463610a008201527f2d322e313120312e37392d342e313420332e30362d362e303920332e382d312e610a208201527f39352e37342d342e303420312e31312d362e323820312e31312d332e36392030610a408201527f2d362e35332d2e392d382e35312d322e372d312e39382d312e382d322e39372d610a608201527f342e31312d322e39372d362e393120302d312e36342e33372d332e313520312e610a808201527f31322d342e353173312e37332d322e343520322e39342d332e323763312e3231610aa08201527f2d2e383220322e35382d312e343420342e312d312e383720312e31322d2e3320610ac08201527f322e382d2e353820352e30362d2e383520342e362d2e353520372e39382d312e610ae08201527f322031302e31352d312e39362e30322d2e37382e30332d312e32382e30332d31610b008201527f2e343920302d322e33322d2e35342d332e39352d312e36312d342e392d312e34610b208201527f362d312e32392d332e36322d312e39332d362e34382d312e39332d322e363820610b408201527f302d342e36352e34372d352e393320312e3431732d322e323220322e362d322e610b608201527f383320342e39386c2d352e35372d2e3736632e35312d322e333820312e33342d610b808201527f342e333120322e352d352e373720312e31362d312e343720322e38342d322e35610ba08201527f3920352e30332d332e333820322e31392d2e373920342e37332d312e31392037610bc08201527f2e36322d312e313973352e322e333420362e393920312e303163312e37392e36610be08201527f3820332e313120312e353220332e393520322e35352e383420312e303220312e610c008201527f343320322e333120312e373720332e38382e31392e39372e323820322e37322e610c208201527f323820352e323576372e3539633020352e32392e313220382e36342e33362031610c408201527f302e30342e323420312e342e373220322e373520312e343420342e3033682d35610c608201527f2e3935632d2e35392d312e31382d2e39372d322e35362d312e31342d342e3134610c808201527f5a6d2d2e34372d31322e3732632d322e30372e38342d352e313720312e35362d610ca08201527f392e3320322e31352d322e33342e33342d34202e37322d342e393720312e3134610cc08201527f2d2e39372e34322d312e373220312e30342d322e323520312e3835732d2e3739610ce08201527f20312e37312d2e373920322e37633020312e35322e353720322e373820312e37610d008201527f3220332e3820312e313520312e303120322e383320312e353220352e30352031610d208201527f2e353273342e31342d2e343820352e38352d312e343420322e39362d322e3237610d408201527f20332e37362d332e3934632e36312d312e32392e39322d332e31382e39322d35610d608201527f2e3639762d322e30395a6d31342e33332032392e382d2e36332d352e33356331610d808201527f2e32342e333420322e33332e353120332e32362e353120312e3237203020322e610da08201527f32382d2e323120332e30342d2e363373312e33382d312e303120312e38372d31610dc08201527f2e3737632e33362d2e35372e39342d312e393820312e37342d342e32342e3131610de08201527f2d2e33322e32372d2e37382e35312d312e33396c2d31322e37352d33332e3635610e008201527f68362e31346c362e39392031392e3435632e393120322e343720312e37322035610e208201527f2e303620322e343420372e37382e36352d322e363120312e34332d352e313720610e408201527f322e33342d372e36356c372e31382d31392e353868352e36396c2d31322e3738610e608201527f2033342e3136632d312e333720332e36392d322e343420362e32332d332e3139610e808201527f20372e36322d312e303120312e38382d322e313720332e32352d332e34382034610ea08201527f2e31332d312e33312e38382d322e383720312e33312d342e363820312e33312d610ec08201527f312e3120302d322e33322d2e32332d332e36372d2e375a6d35352e36332d3233610ee08201527f2e373620352e38382e3733632d2e393320332e34342d322e363520362e312d35610f008201527f2e313620382d322e353120312e392d352e373120322e38352d392e363220322e610f208201527f38352d342e393120302d382e38312d312e35312d31312e36392d342e35342d32610f408201527f2e38382d332e30332d342e33322d372e32372d342e33322d31322e373373312e610f608201527f34362d31302e303420342e33362d31332e313663322e39312d332e313220362e610f808201527f36382d342e36382031312e33322d342e363873382e313620312e35332031312e610fa08201527f303120342e353963322e383520332e303620342e323720372e333620342e3237610fc08201527f2031322e39312030202e33342d2e30312e38342d2e303320312e3532682d3235610fe08201527f2e3035632e323120332e363920312e323520362e353220332e313320382e34386110008201527f20312e383820312e393620342e323220322e393420372e303220322e393420326110208201527f2e3039203020332e38372d2e353520352e33352d312e363420312e34382d312e6110408201527f3120322e36352d322e383520332e35312d352e32355a6d2d31382e36392d392e6110608201527f326831382e3736632d2e32352d322e38332d2e39372d342e39342d322e31352d6110808201527f362e33362d312e38312d322e31392d342e31372d332e32392d372e30352d332e6110a08201527f32392d322e363120302d342e38312e38382d362e3620322e3633732d322e37376110c08201527f20342e30392d322e393620372e30325a6d33312e36362032302e30325635382e6110e08201527f373868352e313276352e303963312e33312d322e333820322e35312d332e39356111008201527f20332e36322d342e373173322e33322d312e313420332e36352d312e313463316111208201527f2e3932203020332e38372e363120352e383520312e38336c2d312e393620352e6111408201527f3238632d312e33392d2e38322d322e37382d312e32332d342e31382d312e32336111608201527f2d312e323420302d322e33362e33372d332e333520312e31322d2e39392e37356111808201527f2d312e3720312e37392d322e313220332e31322d2e363320322e30322d2e39356111a08201527f20342e32342d2e393520362e36347631372e3539682d352e36395a6d32312e376111c08201527f39203056343668392e33367634362e3337682d392e33365a4d3430372e3337206111e08201527f34366831372e313163332e3836203020362e382e3320382e38332e383920322e6112008201527f37322e3820352e303520322e323220362e393920342e323720312e393420322e6112208201527f303520332e343220342e353520342e343320372e353120312e303120322e39366112408201527f20312e353220362e363220312e35322031302e3936203020332e38322d2e34376112608201527f20372e31312d312e343220392e38372d312e313620332e33372d322e383220366112808201527f2e312d342e393720382e31392d312e363220312e35382d332e383220322e38326112a08201527f2d362e353820332e372d322e30372e36352d342e38332e39382d382e32392e396112c08201527f38682d31372e36325634365a6d392e333620372e38347633302e373168362e396112e08201527f3963322e3631203020342e352d2e313520352e36362d2e343420312e35322d2e6113008201527f333820322e37382d312e303220332e37382d312e393320312d2e393120312e386113208201527f322d322e3420322e34352d342e34382e36332d322e30382e39352d342e39312e6113408201527f39352d382e3439732d2e33322d362e33342d2e39352d382e32362d312e35322d6113608201527f332e34322d322e36362d342e34392d322e35382d312e382d342e33332d322e316113808201527f38632d312e33312d2e332d332e38372d2e34342d372e36392d2e3434682d342e6113a08201527f32315a22207374796c653d2266696c6c3a23666666222f3e3c7465787420793d6113c08201527f223637302220783d22333022207374796c653d22666f6e743a373070782073616113e082015273373996b9b2b934b31db334b6361d11b33333111f60611b6114008201526000611616613468611414840185611a4a565b6c1e17ba32bc3a1f1e17b9bb339f60991b8152600d0190565b7f646174613a696d6167652f7376672b786d6c3b6261736536342c0000000000008152600082516134b981601a85016020870161161d565b91909101601a0192915050565b683d913730b6b2911d1160b91b815282516000906134eb81600985016020880161161d565b6b1116101134b6b0b3b2911d1160a11b600991840191820152835161351781601584016020880161161d565b7f222c20226465736372697074696f6e223a20225573657220557365722049442260159290910191820152607d60f81b6035820152603601949350505050565b7f646174613a6170706c69636174696f6e2f6a736f6e3b6261736536342c00000081526000825161358f81601d85016020870161161d565b91909101601d0192915050565b828152604060208201526000610e276040830184611641565b6001600160a01b03858116825284166020820152604081018390526080606082018190526000906118fa90830184611641565b6000602082840312156135fa57600080fd5b8151611616816115e3565b80820180821115610412576104126119d4565b60008261363557634e487b7160e01b600052601260045260246000fd5b500490565b8082028115828204841417610412576104126119d456fe4142434445464748494a4b4c4d4e4f505152535455565758595a6162636465666768696a6b6c6d6e6f707172737475767778797a303132333435363738392b2fa26469706673582212208a11ec0a1a1f662b0ed622fb7c232032196015b69c233e31e257bd68abc473ed64736f6c63430008110033",
  "linkReferences": {},
  "deployedLinkReferences": {}
}